{
  "_format": "hh-sol-artifact-1",
  "contractName": "Democracy",
  "sourceName": "contracts/Democracy.sol",
  "abi": [
    {
      "anonymous": false,
      "inputs": [
        {
          "indexed": false,
          "internalType": "address",
          "name": "citizen",
          "type": "address"
        },
        {
          "indexed": false,
          "internalType": "uint256",
          "name": "proposalId",
          "type": "uint256"
        },
        {
          "indexed": false,
          "internalType": "address",
          "name": "delegate",
          "type": "address"
        }
      ],
      "name": "CitizenDelegatedVote",
      "type": "event"
    },
    {
      "anonymous": false,
      "inputs": [
        {
          "indexed": false,
          "internalType": "address",
          "name": "citizen",
          "type": "address"
        }
      ],
      "name": "CitizenRegistered",
      "type": "event"
    },
    {
      "anonymous": false,
      "inputs": [
        {
          "indexed": false,
          "internalType": "address",
          "name": "citizen",
          "type": "address"
        },
        {
          "indexed": false,
          "internalType": "uint256",
          "name": "proposalId",
          "type": "uint256"
        },
        {
          "indexed": false,
          "internalType": "enum Democracy.Choice",
          "name": "choice",
          "type": "uint8"
        }
      ],
      "name": "CitizenVoted",
      "type": "event"
    },
    {
      "anonymous": false,
      "inputs": [
        {
          "indexed": false,
          "internalType": "address",
          "name": "delegate",
          "type": "address"
        },
        {
          "indexed": false,
          "internalType": "uint256",
          "name": "percentage",
          "type": "uint256"
        }
      ],
      "name": "DelegateRegistered",
      "type": "event"
    },
    {
      "anonymous": false,
      "inputs": [
        {
          "indexed": false,
          "internalType": "address",
          "name": "delegate",
          "type": "address"
        }
      ],
      "name": "DelegateUnregistered",
      "type": "event"
    },
    {
      "anonymous": false,
      "inputs": [
        {
          "indexed": false,
          "internalType": "address",
          "name": "delegate",
          "type": "address"
        },
        {
          "indexed": false,
          "internalType": "uint256",
          "name": "proposalId",
          "type": "uint256"
        },
        {
          "indexed": false,
          "internalType": "enum Democracy.Choice",
          "name": "choice",
          "type": "uint8"
        }
      ],
      "name": "DelegateVoted",
      "type": "event"
    },
    {
      "anonymous": false,
      "inputs": [
        {
          "indexed": true,
          "internalType": "address",
          "name": "previousOwner",
          "type": "address"
        },
        {
          "indexed": true,
          "internalType": "address",
          "name": "newOwner",
          "type": "address"
        }
      ],
      "name": "OwnershipTransferred",
      "type": "event"
    },
    {
      "anonymous": false,
      "inputs": [
        {
          "indexed": false,
          "internalType": "uint256",
          "name": "proposalId",
          "type": "uint256"
        },
        {
          "indexed": false,
          "internalType": "bytes32",
          "name": "title",
          "type": "bytes32"
        }
      ],
      "name": "ProposalCreated",
      "type": "event"
    },
    {
      "inputs": [
        {
          "internalType": "address",
          "name": "_citizen",
          "type": "address"
        },
        {
          "internalType": "uint256",
          "name": "_proposalId",
          "type": "uint256"
        }
      ],
      "name": "citizenHasVoted",
      "outputs": [
        {
          "internalType": "bool",
          "name": "",
          "type": "bool"
        }
      ],
      "stateMutability": "view",
      "type": "function"
    },
    {
      "inputs": [
        {
          "internalType": "uint256",
          "name": "",
          "type": "uint256"
        }
      ],
      "name": "citizens",
      "outputs": [
        {
          "internalType": "address",
          "name": "",
          "type": "address"
        }
      ],
      "stateMutability": "view",
      "type": "function"
    },
    {
      "inputs": [
        {
          "internalType": "bytes32",
          "name": "_title",
          "type": "bytes32"
        },
        {
          "internalType": "bytes32[8]",
          "name": "_description",
          "type": "bytes32[8]"
        }
      ],
      "name": "createProposal",
      "outputs": [],
      "stateMutability": "nonpayable",
      "type": "function"
    },
    {
      "inputs": [
        {
          "internalType": "address",
          "name": "_delegate",
          "type": "address"
        },
        {
          "internalType": "uint256",
          "name": "_proposalId",
          "type": "uint256"
        }
      ],
      "name": "delegateHasVoted",
      "outputs": [
        {
          "internalType": "bool",
          "name": "",
          "type": "bool"
        }
      ],
      "stateMutability": "view",
      "type": "function"
    },
    {
      "inputs": [
        {
          "internalType": "uint256",
          "name": "_proposalId",
          "type": "uint256"
        },
        {
          "internalType": "address",
          "name": "_delegate",
          "type": "address"
        }
      ],
      "name": "delegateVote",
      "outputs": [],
      "stateMutability": "nonpayable",
      "type": "function"
    },
    {
      "inputs": [
        {
          "internalType": "uint256",
          "name": "",
          "type": "uint256"
        }
      ],
      "name": "delegates",
      "outputs": [
        {
          "internalType": "address",
          "name": "",
          "type": "address"
        }
      ],
      "stateMutability": "view",
      "type": "function"
    },
    {
      "inputs": [
        {
          "internalType": "uint256",
          "name": "_proposalId",
          "type": "uint256"
        },
        {
          "internalType": "address",
          "name": "_delegate",
          "type": "address"
        }
      ],
      "name": "getDelegateVote",
      "outputs": [
        {
          "components": [
            {
              "internalType": "address",
              "name": "delegate",
              "type": "address"
            },
            {
              "internalType": "bool",
              "name": "voted",
              "type": "bool"
            },
            {
              "internalType": "uint256",
              "name": "weight",
              "type": "uint256"
            },
            {
              "internalType": "enum Democracy.Choice",
              "name": "choice",
              "type": "uint8"
            }
          ],
          "internalType": "struct Democracy.DelegateVote",
          "name": "",
          "type": "tuple"
        }
      ],
      "stateMutability": "view",
      "type": "function"
    },
    {
      "inputs": [
        {
          "internalType": "uint256",
          "name": "_proposalId",
          "type": "uint256"
        }
      ],
      "name": "getProposal",
      "outputs": [
        {
          "internalType": "bytes32",
          "name": "",
          "type": "bytes32"
        },
        {
          "internalType": "bytes32[8]",
          "name": "",
          "type": "bytes32[8]"
        },
        {
          "internalType": "uint256",
          "name": "",
          "type": "uint256"
        },
        {
          "internalType": "uint256",
          "name": "",
          "type": "uint256"
        },
        {
          "internalType": "bool",
          "name": "",
          "type": "bool"
        }
      ],
      "stateMutability": "view",
      "type": "function"
    },
    {
      "inputs": [],
      "name": "isOwner",
      "outputs": [
        {
          "internalType": "bool",
          "name": "",
          "type": "bool"
        }
      ],
      "stateMutability": "view",
      "type": "function"
    },
    {
      "inputs": [],
      "name": "owner",
      "outputs": [
        {
          "internalType": "address",
          "name": "",
          "type": "address"
        }
      ],
      "stateMutability": "view",
      "type": "function"
    },
    {
      "inputs": [
        {
          "internalType": "address",
          "name": "",
          "type": "address"
        }
      ],
      "name": "percentages",
      "outputs": [
        {
          "internalType": "uint256",
          "name": "",
          "type": "uint256"
        }
      ],
      "stateMutability": "view",
      "type": "function"
    },
    {
      "inputs": [
        {
          "internalType": "uint256",
          "name": "",
          "type": "uint256"
        }
      ],
      "name": "proposals",
      "outputs": [
        {
          "internalType": "bytes32",
          "name": "title",
          "type": "bytes32"
        },
        {
          "internalType": "uint256",
          "name": "yesCount",
          "type": "uint256"
        },
        {
          "internalType": "uint256",
          "name": "noCount",
          "type": "uint256"
        },
        {
          "internalType": "bool",
          "name": "done",
          "type": "bool"
        }
      ],
      "stateMutability": "view",
      "type": "function"
    },
    {
      "inputs": [],
      "name": "proposalsCount",
      "outputs": [
        {
          "internalType": "uint256",
          "name": "",
          "type": "uint256"
        }
      ],
      "stateMutability": "view",
      "type": "function"
    },
    {
      "inputs": [
        {
          "internalType": "address",
          "name": "_citizen",
          "type": "address"
        }
      ],
      "name": "registerCitizen",
      "outputs": [],
      "stateMutability": "nonpayable",
      "type": "function"
    },
    {
      "inputs": [
        {
          "internalType": "address",
          "name": "_delegate",
          "type": "address"
        },
        {
          "internalType": "uint256",
          "name": "_percentage",
          "type": "uint256"
        }
      ],
      "name": "registerDelegate",
      "outputs": [],
      "stateMutability": "nonpayable",
      "type": "function"
    },
    {
      "inputs": [],
      "name": "renounceOwnership",
      "outputs": [],
      "stateMutability": "nonpayable",
      "type": "function"
    },
    {
      "inputs": [],
      "name": "sortDelegates",
      "outputs": [
        {
          "internalType": "address[]",
          "name": "",
          "type": "address[]"
        }
      ],
      "stateMutability": "view",
      "type": "function"
    },
    {
      "inputs": [
        {
          "internalType": "address",
          "name": "newOwner",
          "type": "address"
        }
      ],
      "name": "transferOwnership",
      "outputs": [],
      "stateMutability": "nonpayable",
      "type": "function"
    },
    {
      "inputs": [
        {
          "internalType": "address",
          "name": "_delegate",
          "type": "address"
        }
      ],
      "name": "unregisterDelegate",
      "outputs": [],
      "stateMutability": "nonpayable",
      "type": "function"
    },
    {
      "inputs": [
        {
          "internalType": "uint256",
          "name": "_proposalId",
          "type": "uint256"
        },
        {
          "internalType": "enum Democracy.Choice",
          "name": "_choice",
          "type": "uint8"
        }
      ],
      "name": "voteAsCitizen",
      "outputs": [],
      "stateMutability": "nonpayable",
      "type": "function"
    },
    {
      "inputs": [
        {
          "internalType": "uint256",
          "name": "_proposalId",
          "type": "uint256"
        },
        {
          "internalType": "enum Democracy.Choice",
          "name": "_choice",
          "type": "uint8"
        }
      ],
      "name": "voteAsDelegate",
      "outputs": [],
      "stateMutability": "nonpayable",
      "type": "function"
    }
  ],
  "bytecode": "0x60806040523461002257610011610027565b604051612268610122823961226890f35b600080fd5b61002f6100bf565b565b61004590610048906001600160a01b031682565b90565b6001600160a01b031690565b61004590610031565b61004590610054565b906100766100456100929261005d565b82546001600160a01b0319166001600160a01b03919091161790565b9055565b6100486100456100459290565b61004590610096565b61004590610048565b61004590546100ac565b6100ca336000610066565b6100d460006100a3565b6100f06100ea6100e460006100b5565b9261005d565b9161005d565b907f8be0079c531659141344cd1fd0a4f28419497f9722a3daafe3b4186f6b6457e061011b60405190565b600090a356fe6080604052600436101561001257600080fd5b60003560e01c806284943514610161578063013cf08b1461015c57806309a34f00146101575780630a9f46ad14610152578063218534551461014d578063254c5fd0146101485780633a11ff7914610143578063715018a61461013e5780638376e5ae146101395780638da5cb5b146101345780638f32d59b1461012f5780639d592c661461012a578063aa78ce2214610125578063ac71fe1814610120578063b1548afc1461011b578063b5af4a1814610116578063c7f758a814610111578063cc3fbe211461010c578063e8ad642c14610107578063f2fde38b146101025763fc664ea90361016f5761091f565b610907565b6108ee565b6108d2565b6108a1565b6107fd565b61076d565b61073c565b610724565b610709565b610673565b610658565b610640565b610614565b6105ec565b610520565b6104cd565b610468565b610436565b610394565b610274565b805b0361016f57565b600080fd5b9050359061018182610166565b565b634e487b7160e01b600052604160045260246000fd5b90601f01601f1916810190811067ffffffffffffffff8211176101bb57604052565b610183565b906101816101cd60405190565b9283610199565b67ffffffffffffffff81116101bb5760200290565b909291926101fe6101f9826101d4565b6101c0565b93602085920283019281841161016f57915b83831061021d5750505050565b6020809161022b8486610174565b815201920191610210565b9080601f8301121561016f57600861024d926101e9565b90565b91906101208382031261016f5761024d90602061026d8286610174565b9401610236565b3461016f5761028d610287366004610250565b90611184565b60405180805b0390f35b9060208282031261016f5761024d91610174565b634e487b7160e01b600052603260045260246000fd5b80548210156102e4576102db600e91600052602060002090565b91020190600090565b6102ab565b61024d9081565b61024d90546102e9565b61024d905b60ff1690565b61024d90546102fa565b60049061031a825490565b81101561016f5761032a916102c1565b5090610335826102f0565b91610342600982016102f0565b9161024d600b610354600a85016102f0565b9301610305565b9052565b61038c6101819461038560609498979561037e608086019a6000870152565b6020850152565b6040830152565b019015159052565b3461016f576102936103af6103aa366004610297565b61030f565b906103bc94929460405190565b9485948561035f565b80548210156102e4576102db600191600052602060002090565b61024d916008021c5b6001600160a01b031690565b9061024d91546103df565b60015481101561016f5761041761024d9160016103c5565b906103f4565b61035b906103e8565b602081019291610181919061041d565b3461016f5761029361045161044c366004610297565b6103ff565b60405191829182610426565b600091031261016f57565b3461016f5761047836600461045d565b61029361048460045490565b6040519182918290815260200190565b610168816103e8565b9050359061018182610494565b919060408382031261016f5761024d9060206104c6828661049d565b9401610174565b3461016f5761028d6104e03660046104aa565b90611364565b6003111561016f57565b90503590610181826104e6565b919060408382031261016f5761024d9060206105198286610174565b94016104f0565b3461016f5761028d6105333660046104fd565b906115a1565b919060408382031261016f5761024d9060206105558286610174565b940161049d565b634e487b7160e01b600052602160045260246000fd5b6003111561057c57565b61055c565b9061018182610572565b61024d90610581565b61035b9061058b565b90606080610181936105b76000820151600086019061041d565b6020818101511515908501526105d260408201516040860152565b0151910190610594565b608081019291610181919061059d565b3461016f57610293610608610602366004610539565b90611777565b604051918291826105dc565b3461016f5761062436600461045d565b61028d6118c5565b9060208282031261016f5761024d9161049d565b3461016f5761028d61065336600461062c565b611a77565b3461016f5761066836600461045d565b610293610451611a80565b3461016f5761068336600461045d565b61029361068e611a8a565b60405191829182901515815260200190565b61024d906103e8906001600160a01b031682565b61024d906106a0565b61024d906106b4565b906106d0906106bd565b600052602052604060002090565b61024d916008021c81565b9061024d91546106de565b600061070461024d9260036106c6565b6106e9565b3461016f5761029361048461071f36600461062c565b6106f4565b3461016f5761028d61073736600461062c565b611b56565b3461016f5761028d61074f366004610539565b90611d51565b60025481101561016f5761041761024d9160026103c5565b3461016f57610293610451610783366004610297565b610755565b906107958160209361041d565b0190565b906107b96107b26107a8845190565b8084529260200190565b9260200190565b9060005b8181106107ca5750505090565b9091926107e46107dd6001928651610788565b9460200190565b9291016107bd565b602080825261024d92910190610799565b3461016f5761080d36600461045d565b610293610818611d5b565b604051918291826107ec565b61083461083060089390565b9190565b6000915b8383106108455750505050565b6108586107b26001928451815260200190565b92019190610838565b909594926101819461089961038c926108916101609661088761018088019c6000890152565b6020870190610824565b610120850152565b610140830152565b3461016f576102936108bc6108b7366004610297565b611ee5565b916108c995939560405190565b95869586610861565b3461016f5761029361068e6108e83660046104aa565b90611f41565b3461016f5761028d6109013660046104fd565b906120d4565b3461016f5761028d61091a36600461062c565b6120f6565b3461016f5761029361068e6109353660046104aa565b906120ff565b1561094257565b60405162461bcd60e51b815260206004820152601760248201527f43616c6c6572206973206e6f7420746865206f776e65720000000000000000006044820152606490fd5b906101819161099c610997611a8a565b61093b565b61101a565b61024d61024d61024d9290565b67ffffffffffffffff81116101bb5760208091020190565b906109d36101f9836109ae565b918252565b369037565b906101816109f36109ed846109c6565b936109ae565b601f1901602084016109d8565b61024d60806101c0565b610a12610a00565b60008082526020820181905260408201819052606082015290565b61024d610a0a565b60005b828110610a4457505050565b602090610a4f610a2d565b8184015201610a38565b90610181610a696109ed846109c6565b601f190160208401610a35565b61024d60e06101c0565b9061035b906103e8565b9061035b90610581565b90610a9d825190565b8110156102e4576020809102010190565b634e487b7160e01b600052600060045260246000fd5b5190565b90600019905b9181191691161790565b90610ae661024d610aed9290565b8254610ac8565b9055565b634e487b7160e01b600052601160045260246000fd5b9190610b12565b9290565b91808302928184041490151715610b2557565b610af1565b9160001960089290920291821b911b610ace565b9190610b4d61024d610aed9390565b908354610b2a565b61018191600091610b3e565b818110610b6c575050565b80610b7a6000600193610b55565b01610b61565b919091828210610b8f57505050565b6101819281019101610b61565b90600160401b81116101bb5761018191600890610b80565b600891610bca610b0e60019261024d8686610b9c565b92049160005b838110610bdd5750505050565b6001906020610bed61024d865190565b9401938184015501610bd0565b9061018191610bb4565b90610ae661024d610aed926109a1565b9060ff90610ace565b90610c2d61024d610aed92151590565b8254610c14565b9190610b4d61024d610aed936109a1565b61018191600091610c34565b818110610c5c575050565b80610c6a6000600193610c45565b01610c51565b919091828210610c7f57505050565b6101819291610c95905b91600052602060002090565b9182019101610c51565b90600160401b81116101bb5781610cb7610181935490565b90828155610c70565b61024d90516103e8565b916001600160a01b0360089290920291821b911b610ace565b81519167ffffffffffffffff83116101bb57610d1a610d0e600192610d088686610c9f565b60200190565b92600052602060002090565b92049160005b838110610d2d5750505050565b6001906020610d3e61024d86610cc0565b9401938184015501610d20565b9061018191610ce3565b61024d906003610b07565b600080825590600290610d768360018301610c45565b0155565b90600003610d8b5761018190610d60565b610aae565b818110610d9b575050565b80610da96000600393610d7a565b01610d90565b919091828210610dbe57505050565b610dd6610c89610dd061018195610d55565b93610d55565b9182019101610d90565b90600160401b81116101bb5781610df8610181935490565b90828155610daf565b906001600160a01b0390610ace565b90610e2061024d610aed926106bd565b8254610e01565b9060ff60a01b9060a01b610ace565b90610e4661024d610aed92151590565b8254610e27565b61024d9051610581565b90610c2d61024d610aed9261058b565b61018191600290610eb590606090610e9885610e8b610e8584610cc0565b82610e10565b6020830151151590610e36565b610eaf610ea6604083015190565b60018701610c04565b01610e4d565b9101610e57565b9061018191610e67565b610edf610c89610ed4845190565b93610d088585610de0565b6000915b838310610ef05750505050565b6003602082610f08610f026001955190565b86610ebc565b01920192019190610ee3565b9061018191610ec6565b600d610fb760c061018194610f3d610f37600083015190565b86610ad8565b610f54610f4b602083015190565b60018701610bfa565b610f6b610f62604083015190565b60098701610c04565b610f82610f79606083015190565b600a8701610c04565b610f9b610f926080830151151590565b600b8701610c1d565b610fb2610fa960a083015190565b600c8701610d4b565b015190565b9101610f14565b9190610d8b5761018191610f1e565b90815491600160401b8310156101bb5782610ff0916001610181950181556102c1565b90610fbe565b91908203918211610b2557565b9081526040810192916101819160200152565b0152565b9091600092611028846109a1565b91611032836109dd565b9061109660029261108f61104c611047865490565b610a59565b9161106a611058610a76565b976110638b8d8b0152565b6020890152565b611075886040890152565b611080886060890152565b891515608088015260a0870152565b60c0850152565b835b6110a361024d845490565b8110156111155780611109816110bf61041761111095886103c5565b6110d36110ca610a00565b918c8301610a80565b8a151560208201526110e6896040830152565b6110f38b60608301610a8a565b60c0880151906111038383610a94565b52610a94565b5060010190565b611098565b509450507fb1e570e4094a5f87a5572e3e718941fb3822dd7fdc7a5d6d6d0d905b6c52427192915061114e90611149600490565b610fcd565b61116a61115a60045490565b61116460016109a1565b90610ff6565b61117f61117660405190565b92839283611003565b0390a1565b9061018191610987565b906101819161119e610997611a8a565b61127f565b61024d906103e8565b61024d90546111a3565b906111c5610d0e6107a8845490565b9060005b8181106111d65750505090565b9091926111f76111f06001926111eb876111ac565b610788565b9460010190565b9291016111c9565b9061024d916111b6565b906101816112239261121a60405190565b938480926111ff565b0383610199565b61024d90611209565b1561123a57565b60405162461bcd60e51b815260206004820152601b60248201527f44656c656761746520616c7265616479207265676973746572656400000000006044820152606490fd5b90610181916112a66112a161129d611297600261122a565b8461211e565b1590565b611233565b611308565b91906112bc61024d610aed936106bd565b908354610cca565b90815491600160401b8310156101bb57826112e7916001610181950181556103c5565b906112ab565b9160206101819294936110166040820196600083019061041d565b7f21c628fd83b556927fdf61a558e4514d6e816764e0e9b2af0b3495c21e632fb4919061133b8160026112c4565b6112c4565b61134f8261134a8360036106c6565b610c04565b61117f61135b60405190565b928392836112ed565b906101819161118e565b1561137557565b60405162461bcd60e51b815260206004820152601a60248201527f44656c6567617465206973206e6f7420726567697374657265640000000000006044820152606490fd5b906000916113c860006109a1565b60026113d561024d825490565b82101561141d57610417826113e9926103c5565b6113fb6113f5336103e8565b916103e8565b14611408576001016113c8565b506101819250611418600161136e565b611470565b50506114186101819361136e565b1561143257565b60405162461bcd60e51b815260206004820152601660248201527511195b1959d85d1948185b1c9958591e481d9bdd195960521b6044820152606490fd5b906101819161148a61148561129d83336120ff565b61142b565b61151f565b61024d9060a01c6102ff565b61024d905461148f565b156114ac57565b60405162461bcd60e51b815260206004820152601a60248201527f5468652064656c656761746520616c726561647920766f7465640000000000006044820152606490fd5b60409061151861018194969593966115116060840198600085019061041d565b6020830152565b0190610594565b907f2a0843c4c9b6f826101208fccb9fc7919aa2c226d9c2a29d4e09f16355780a609161158b8260026115523385612182565b61156461155e8261149b565b156114a5565b61156f600182610e36565b61158561157c60006109a1565b60018301610c04565b01610e57565b61117f61159760405190565b92839233846114f1565b90610181916113ba565b6115b761083060089390565b6000915b8383106115c85750505050565b6115e96115e26001926115da856102f0565b815260200190565b9260010190565b920191906115bb565b9061079581610100936115ab565b906101816112239261161160405190565b938480926115f2565b9061018161166f600261162b610a00565b9461163e611638826111ac565b87610a80565b61165361164a8261149b565b15156020880152565b611669611662600183016102f0565b6040880152565b01610305565b60608401610a8a565b61024d9061161a565b9061168a825490565b611693816109c6565b926116a76020850191600052602060002090565b6000915b8383106116b85750505050565b600360206001926116c885611678565b8152019201920191906116ab565b90610181611767600d6116e7610a76565b946116f86116f4826102f0565b8752565b61170e61170760018301611600565b6020880152565b61171d611662600983016102f0565b61173361172c600a83016102f0565b6060880152565b61174b611742600b8301610305565b15156080880152565b61176161175a600c8301611209565b60a0880152565b01611681565b60c0840152565b61024d906116d6565b61178e61179491611786610a2d565b5060046102c1565b5061176e565b906000906117a260006109a1565b60c084016117b261024d82515190565b8210156117f8576117cf846117c8848451610a94565b5101610cc0565b6117db6113f5856103e8565b146117e957506001016117a2565b91509150610ac4925051610a94565b60405162461bcd60e51b815260206004820152601760248201527f44656c656761746520766f7465206e6f7420666f756e640000000000000000006044820152606490fd5b611848610997611a8a565b610181611866565b6103e861024d61024d9290565b61024d90611850565b61018161187360006111ac565b611886611880600061185d565b916106bd565b61188f826106bd565b907f8be0079c531659141344cd1fd0a4f28419497f9722a3daafe3b4186f6b6457e06118ba60405190565b600090a36000610e10565b61018161183d565b610181906118dc610997611a8a565b61192d565b156118e857565b60405162461bcd60e51b815260206004820152601760248201527f44656c6567617465206e6f7420726567697374657265640000000000000000006044820152606490fd5b6101819061194c611947611941600261122a565b8361211e565b6118e1565b61199b565b634e487b7160e01b600052603160045260246000fd5b610181916000916112ab565b8054801561199657600019019061199361198d83836103c5565b90611967565b55565b611951565b6119a560006109a1565b60026119b261024d825490565b821015611a4b576119c661041783836103c5565b6119d26113f5856103e8565b146119e057506001016119a5565b91611a36611a318461024d61117f956112e7611a2a610417611a2461115a7f98561cbe7c9c0b90726130c8409b307d4c9698c9e7ee2797aea68659cad104949c5490565b866103c5565b91846103c5565b611973565b6104516000611a468360036106c6565b610c45565b505061117f7f98561cbe7c9c0b90726130c8409b307d4c9698c9e7ee2797aea68659cad1049491611a36565b610181906118cd565b61024d60006111ac565b611a9c611a9760006111ac565b6103e8565b611aa5336103e8565b1490565b61018190611ab8610997611a8a565b611b09565b15611ac457565b60405162461bcd60e51b815260206004820152601a60248201527f436974697a656e20616c726561647920726567697374657265640000000000006044820152606490fd5b61018190611b25611b2061129d611297600161122a565b611abd565b61117f7fb5598409719558ebd54a454803d5d44a0b2ae7d77be5ea208f6a3b9698a2cb589161045181611336600190565b61018190611aa9565b15611b6657565b60405162461bcd60e51b815260206004820152601960248201527f436974697a656e206973206e6f742072656769737465726564000000000000006044820152606490fd5b90600091611bb960006109a1565b6001611bc661024d825490565b821015611c0857611bda61041783836103c5565b611be66113f5336103e8565b14611bf45750600101611bb9565b6101819450611c039150611b5f565b611c16565b5050611c0361018193611b5f565b9061018191611c2b611947611297600261122a565b611c74565b15611c3757565b60405162461bcd60e51b815260206004820152601560248201527410da5d1a5e995b88185b1c9958591e481d9bdd1959605a1b6044820152606490fd5b9061018191611c8e611c8961129d8333611f41565b611c30565b611cc7565b91908201809211610b2557565b604090611cc061018194969593966115116060840198600085019061041d565b019061041d565b907ff69dfa7dcf0ea3774ec16a69c67fab945b55abba3d54c0c5384b35eb485fbdc591611d1c611cf78383612182565b611d166001611d05816109a1565b920191611d11836102f0565b611c93565b90610c04565b611d3b611d34600c611d2f8460046102c1565b500190565b33906112c4565b61117f611d4760405190565b9283923384611ca0565b9061018191611bab565b6002611d6e611d6960025490565b6109dd565b90611d77825190565b9060019182611d85816109a1565b905b611d93575b5050505090565b81811015611eae579081611dac610417859487966103c5565b846003611dc1611dbc84836106c6565b6102f0565b611dd3611dcd846109a1565b86610ff6565b925b611e13575b5050611e0b9291611e00611dfa611e0593611df48a6109a1565b90611c93565b8a610a94565b610a80565b60010190565b909192611d87565b909189611e2660009995969798996109a1565b82101580611e8d575b15611e805790611e69611e4d611e4883611e7295610a94565b610cc0565b611e008d611e63611e5d8a6109a1565b86611c93565b90610a94565b611164856109a1565b929695949392919087611dd5565b5091969594939296611dda565b50611ea7611dbc611ea1611e488585610a94565b866106c6565b8310611e2f565b611d8c565b6101f961024d916101d4565b90610181611ed5611ecf84611eb3565b936101d4565b836109d8565b61024d6008611ebf565b61178e611f0591611ef4600090565b50611efd611edb565b506000611786565b90611f0e825190565b91602081015192611f20604083015190565b92611f396080611f31606086015190565b940151151590565b919493929190565b9061178e611f5191611786600090565b90611f5c60006109a1565b60a08301611f6c61024d82515190565b821015611fa257611e4882611f819251610a94565b611f8d6113f5846103e8565b14611f9a57600101611f5c565b505050600190565b50505050600090565b90600091611fb960006109a1565b6001611fc661024d825490565b82101561200857611fda61041783836103c5565b611fe66113f5336103e8565b14611ff45750600101611fb9565b61018194506120039150611b5f565b612016565b505061200361018193611b5f565b906101819161202b611c8961129d8333611f41565b907f537b4589cf485698c16a1df191993a3b84135e85fa627536d8e9004c0cf1d2d79161158b611d34600c6120686120648560046102c1565b5090565b6120726001610581565b61207b87610581565b0361209e5761079561208d60016109a1565b611d166009840191611d11836102f0565b6120a86002610581565b6120b187610581565b03610795576107956120c360016109a1565b611d16600a840191611d11836102f0565b9061018191611fab565b610181906120ed610997611a8a565b610181906121fc565b610181906120de565b61211760209161024d93612111600090565b50611777565b0151151590565b61212860006109a1565b61213361024d845190565b8110156121605761214a611a97611e488386610a94565b612153836103e8565b14611f9a57600101612128565b505050600090565b80548210156102e4576102db600391600052602060002090565b6120646121909160046102c1565b9060009061219e60006109a1565b600d84016121ad61024d825490565b8210156117f8576121c9846121c28484612168565b50016111ac565b6121d56113f5856103e8565b146121e3575060010161219e565b90915061024d93506120649250612168565b1561016f57565b61018190612220612210611a97600061185d565b612219836103e8565b14156121f5565b61188661222d60006111ac565b6106bd56fea264697066735822122024a0c11e905b909e34ae86f0e011f2ea4fae3c58f5ef651622594365c6019be664736f6c634300081c0033",
  "linkReferences": {},
  "deployedLinkReferences": {}
}