{
  "_format": "hh-sol-artifact-1",
  "contractName": "Democracy",
  "sourceName": "contracts/Democracy.sol",
  "abi": [
    {
      "anonymous": false,
      "inputs": [
        {
          "indexed": false,
          "internalType": "address",
          "name": "citizen",
          "type": "address"
        },
        {
          "indexed": false,
          "internalType": "uint256",
          "name": "proposalId",
          "type": "uint256"
        },
        {
          "indexed": false,
          "internalType": "address",
          "name": "delegate",
          "type": "address"
        }
      ],
      "name": "CitizenDelegatedVote",
      "type": "event"
    },
    {
      "anonymous": false,
      "inputs": [
        {
          "indexed": false,
          "internalType": "address",
          "name": "citizen",
          "type": "address"
        }
      ],
      "name": "CitizenRegistered",
      "type": "event"
    },
    {
      "anonymous": false,
      "inputs": [
        {
          "indexed": false,
          "internalType": "address",
          "name": "citizen",
          "type": "address"
        },
        {
          "indexed": false,
          "internalType": "uint256",
          "name": "proposalId",
          "type": "uint256"
        },
        {
          "indexed": false,
          "internalType": "enum Democracy.Choice",
          "name": "choice",
          "type": "uint8"
        }
      ],
      "name": "CitizenVoted",
      "type": "event"
    },
    {
      "anonymous": false,
      "inputs": [
        {
          "indexed": false,
          "internalType": "address",
          "name": "delegate",
          "type": "address"
        },
        {
          "indexed": false,
          "internalType": "uint256",
          "name": "percentage",
          "type": "uint256"
        }
      ],
      "name": "DelegateRegistered",
      "type": "event"
    },
    {
      "anonymous": false,
      "inputs": [
        {
          "indexed": false,
          "internalType": "address",
          "name": "delegate",
          "type": "address"
        }
      ],
      "name": "DelegateUnregistered",
      "type": "event"
    },
    {
      "anonymous": false,
      "inputs": [
        {
          "indexed": false,
          "internalType": "address",
          "name": "delegate",
          "type": "address"
        },
        {
          "indexed": false,
          "internalType": "uint256",
          "name": "proposalId",
          "type": "uint256"
        },
        {
          "indexed": false,
          "internalType": "enum Democracy.Choice",
          "name": "choice",
          "type": "uint8"
        }
      ],
      "name": "DelegateVoted",
      "type": "event"
    },
    {
      "anonymous": false,
      "inputs": [
        {
          "indexed": true,
          "internalType": "address",
          "name": "previousOwner",
          "type": "address"
        },
        {
          "indexed": true,
          "internalType": "address",
          "name": "newOwner",
          "type": "address"
        }
      ],
      "name": "OwnershipTransferred",
      "type": "event"
    },
    {
      "anonymous": false,
      "inputs": [
        {
          "indexed": false,
          "internalType": "uint256",
          "name": "proposalId",
          "type": "uint256"
        },
        {
          "indexed": false,
          "internalType": "bytes32",
          "name": "title",
          "type": "bytes32"
        }
      ],
      "name": "ProposalCreated",
      "type": "event"
    },
    {
      "anonymous": false,
      "inputs": [
        {
          "indexed": false,
          "internalType": "uint256",
          "name": "proposalId",
          "type": "uint256"
        }
      ],
      "name": "ProposalDeleted",
      "type": "event"
    },
    {
      "anonymous": false,
      "inputs": [
        {
          "indexed": false,
          "internalType": "uint256",
          "name": "proposalId",
          "type": "uint256"
        }
      ],
      "name": "ProposalFinished",
      "type": "event"
    },
    {
      "inputs": [
        {
          "internalType": "address",
          "name": "_citizen",
          "type": "address"
        },
        {
          "internalType": "uint256",
          "name": "_proposalId",
          "type": "uint256"
        }
      ],
      "name": "citizenHasVoted",
      "outputs": [
        {
          "internalType": "bool",
          "name": "",
          "type": "bool"
        }
      ],
      "stateMutability": "view",
      "type": "function"
    },
    {
      "inputs": [
        {
          "internalType": "uint256",
          "name": "",
          "type": "uint256"
        }
      ],
      "name": "citizens",
      "outputs": [
        {
          "internalType": "address",
          "name": "",
          "type": "address"
        }
      ],
      "stateMutability": "view",
      "type": "function"
    },
    {
      "inputs": [],
      "name": "citizensCount",
      "outputs": [
        {
          "internalType": "uint256",
          "name": "",
          "type": "uint256"
        }
      ],
      "stateMutability": "view",
      "type": "function"
    },
    {
      "inputs": [
        {
          "internalType": "bytes32",
          "name": "_title",
          "type": "bytes32"
        },
        {
          "internalType": "bytes32[8]",
          "name": "_description",
          "type": "bytes32[8]"
        }
      ],
      "name": "createProposal",
      "outputs": [],
      "stateMutability": "nonpayable",
      "type": "function"
    },
    {
      "inputs": [
        {
          "internalType": "address",
          "name": "_delegate",
          "type": "address"
        },
        {
          "internalType": "uint256",
          "name": "_proposalId",
          "type": "uint256"
        }
      ],
      "name": "delegateHasVoted",
      "outputs": [
        {
          "internalType": "bool",
          "name": "",
          "type": "bool"
        }
      ],
      "stateMutability": "view",
      "type": "function"
    },
    {
      "inputs": [
        {
          "internalType": "uint256",
          "name": "_proposalId",
          "type": "uint256"
        },
        {
          "internalType": "address",
          "name": "_delegate",
          "type": "address"
        }
      ],
      "name": "delegateVote",
      "outputs": [],
      "stateMutability": "nonpayable",
      "type": "function"
    },
    {
      "inputs": [
        {
          "internalType": "uint256",
          "name": "",
          "type": "uint256"
        }
      ],
      "name": "delegates",
      "outputs": [
        {
          "internalType": "address",
          "name": "",
          "type": "address"
        }
      ],
      "stateMutability": "view",
      "type": "function"
    },
    {
      "inputs": [],
      "name": "delegatesCount",
      "outputs": [
        {
          "internalType": "uint256",
          "name": "",
          "type": "uint256"
        }
      ],
      "stateMutability": "view",
      "type": "function"
    },
    {
      "inputs": [
        {
          "internalType": "uint256",
          "name": "_proposalId",
          "type": "uint256"
        }
      ],
      "name": "deleteProposal",
      "outputs": [],
      "stateMutability": "nonpayable",
      "type": "function"
    },
    {
      "inputs": [
        {
          "internalType": "uint256",
          "name": "_proposalId",
          "type": "uint256"
        }
      ],
      "name": "finishVoting",
      "outputs": [],
      "stateMutability": "nonpayable",
      "type": "function"
    },
    {
      "inputs": [
        {
          "internalType": "uint256",
          "name": "_index",
          "type": "uint256"
        }
      ],
      "name": "getCitizen",
      "outputs": [
        {
          "internalType": "address",
          "name": "",
          "type": "address"
        }
      ],
      "stateMutability": "view",
      "type": "function"
    },
    {
      "inputs": [
        {
          "internalType": "uint256",
          "name": "_index",
          "type": "uint256"
        }
      ],
      "name": "getDelegate",
      "outputs": [
        {
          "internalType": "address",
          "name": "",
          "type": "address"
        },
        {
          "internalType": "uint256",
          "name": "",
          "type": "uint256"
        }
      ],
      "stateMutability": "view",
      "type": "function"
    },
    {
      "inputs": [
        {
          "internalType": "uint256",
          "name": "_proposalId",
          "type": "uint256"
        },
        {
          "internalType": "address",
          "name": "_delegate",
          "type": "address"
        }
      ],
      "name": "getDelegateVote",
      "outputs": [
        {
          "components": [
            {
              "internalType": "address",
              "name": "delegate",
              "type": "address"
            },
            {
              "internalType": "bool",
              "name": "voted",
              "type": "bool"
            },
            {
              "internalType": "uint256",
              "name": "weight",
              "type": "uint256"
            },
            {
              "internalType": "enum Democracy.Choice",
              "name": "choice",
              "type": "uint8"
            }
          ],
          "internalType": "struct Democracy.DelegateVote",
          "name": "",
          "type": "tuple"
        }
      ],
      "stateMutability": "view",
      "type": "function"
    },
    {
      "inputs": [
        {
          "internalType": "uint256",
          "name": "_proposalId",
          "type": "uint256"
        }
      ],
      "name": "getProposal",
      "outputs": [
        {
          "internalType": "bytes32",
          "name": "",
          "type": "bytes32"
        },
        {
          "internalType": "bytes32[8]",
          "name": "",
          "type": "bytes32[8]"
        },
        {
          "internalType": "uint256",
          "name": "",
          "type": "uint256"
        },
        {
          "internalType": "uint256",
          "name": "",
          "type": "uint256"
        },
        {
          "internalType": "bool",
          "name": "",
          "type": "bool"
        }
      ],
      "stateMutability": "view",
      "type": "function"
    },
    {
      "inputs": [],
      "name": "isOwner",
      "outputs": [
        {
          "internalType": "bool",
          "name": "",
          "type": "bool"
        }
      ],
      "stateMutability": "view",
      "type": "function"
    },
    {
      "inputs": [],
      "name": "owner",
      "outputs": [
        {
          "internalType": "address",
          "name": "",
          "type": "address"
        }
      ],
      "stateMutability": "view",
      "type": "function"
    },
    {
      "inputs": [
        {
          "internalType": "address",
          "name": "",
          "type": "address"
        }
      ],
      "name": "percentages",
      "outputs": [
        {
          "internalType": "uint256",
          "name": "",
          "type": "uint256"
        }
      ],
      "stateMutability": "view",
      "type": "function"
    },
    {
      "inputs": [
        {
          "internalType": "uint256",
          "name": "",
          "type": "uint256"
        }
      ],
      "name": "proposals",
      "outputs": [
        {
          "internalType": "bytes32",
          "name": "title",
          "type": "bytes32"
        },
        {
          "internalType": "uint256",
          "name": "yesCount",
          "type": "uint256"
        },
        {
          "internalType": "uint256",
          "name": "noCount",
          "type": "uint256"
        },
        {
          "internalType": "bool",
          "name": "done",
          "type": "bool"
        }
      ],
      "stateMutability": "view",
      "type": "function"
    },
    {
      "inputs": [],
      "name": "proposalsCount",
      "outputs": [
        {
          "internalType": "uint256",
          "name": "",
          "type": "uint256"
        }
      ],
      "stateMutability": "view",
      "type": "function"
    },
    {
      "inputs": [
        {
          "internalType": "address",
          "name": "_citizen",
          "type": "address"
        }
      ],
      "name": "registerCitizen",
      "outputs": [],
      "stateMutability": "nonpayable",
      "type": "function"
    },
    {
      "inputs": [
        {
          "internalType": "address",
          "name": "_delegate",
          "type": "address"
        },
        {
          "internalType": "uint256",
          "name": "_percentage",
          "type": "uint256"
        }
      ],
      "name": "registerDelegate",
      "outputs": [],
      "stateMutability": "nonpayable",
      "type": "function"
    },
    {
      "inputs": [],
      "name": "renounceOwnership",
      "outputs": [],
      "stateMutability": "nonpayable",
      "type": "function"
    },
    {
      "inputs": [],
      "name": "sortDelegates",
      "outputs": [
        {
          "internalType": "address[]",
          "name": "",
          "type": "address[]"
        }
      ],
      "stateMutability": "view",
      "type": "function"
    },
    {
      "inputs": [
        {
          "internalType": "address",
          "name": "newOwner",
          "type": "address"
        }
      ],
      "name": "transferOwnership",
      "outputs": [],
      "stateMutability": "nonpayable",
      "type": "function"
    },
    {
      "inputs": [
        {
          "internalType": "address",
          "name": "_delegate",
          "type": "address"
        }
      ],
      "name": "unregisterDelegate",
      "outputs": [],
      "stateMutability": "nonpayable",
      "type": "function"
    },
    {
      "inputs": [
        {
          "internalType": "uint256",
          "name": "_proposalId",
          "type": "uint256"
        },
        {
          "internalType": "enum Democracy.Choice",
          "name": "_choice",
          "type": "uint8"
        }
      ],
      "name": "voteAsCitizen",
      "outputs": [],
      "stateMutability": "nonpayable",
      "type": "function"
    },
    {
      "inputs": [
        {
          "internalType": "uint256",
          "name": "_proposalId",
          "type": "uint256"
        },
        {
          "internalType": "enum Democracy.Choice",
          "name": "_choice",
          "type": "uint8"
        }
      ],
      "name": "voteAsDelegate",
      "outputs": [],
      "stateMutability": "nonpayable",
      "type": "function"
    }
  ],
  "bytecode": "0x60806040523461002257610011610027565b604051612ce86101228239612ce890f35b600080fd5b61002f6100bf565b565b61004590610048906001600160a01b031682565b90565b6001600160a01b031690565b61004590610031565b61004590610054565b906100766100456100929261005d565b82546001600160a01b0319166001600160a01b03919091161790565b9055565b6100486100456100459290565b61004590610096565b61004590610048565b61004590546100ac565b6100ca336000610066565b6100d460006100a3565b6100f06100ea6100e460006100b5565b9261005d565b9161005d565b907f8be0079c531659141344cd1fd0a4f28419497f9722a3daafe3b4186f6b6457e061011b60405190565b600090a356fe6080604052600436101561001257600080fd5b60003560e01c8062849435146101c1578063013cf08b146101bc57806309a34f00146101b75780630a9f46ad146101b25780630dc5cca4146101ad57806321853455146101a8578063254c5fd0146101a35780633a11ff791461019e578063715018a6146101995780638259d553146101945780638376e5ae1461018f5780638914a8a01461018a5780638da5cb5b146101855780638f32d59b146101805780639d592c661461017b578063aa78ce2214610176578063abe7c08e14610171578063ac71fe181461016c578063b1548afc14610167578063b5af4a1814610162578063c7f758a81461015d578063cc3fbe2114610158578063dcc66cc214610153578063e8ad642c1461014e578063f2fde38b14610149578063fa1e5e31146101445763fc664ea9036101cf57610a4f565b610a33565b610a1b565b610a02565b6109d4565b610999565b610968565b6108c4565b610834565b610803565b6107eb565b6107d3565b6107b8565b610722565b610707565b6106ec565b6106d4565b6106a8565b610690565b610668565b61059c565b610549565b6104f4565b6104c8565b610496565b6103f4565b6102d4565b805b036101cf57565b600080fd5b905035906101e1826101c6565b565b634e487b7160e01b600052604160045260246000fd5b90601f01601f1916810190811067ffffffffffffffff82111761021b57604052565b6101e3565b906101e161022d60405190565b92836101f9565b67ffffffffffffffff811161021b5760200290565b9092919261025e61025982610234565b610220565b9360208592028301928184116101cf57915b83831061027d5750505050565b6020809161028b84866101d4565b815201920191610270565b9080601f830112156101cf5760086102ad92610249565b90565b9190610120838203126101cf576102ad9060206102cd82866101d4565b9401610296565b346101cf576102ed6102e73660046102b0565b906112b7565b60405180805b0390f35b906020828203126101cf576102ad916101d4565b634e487b7160e01b600052603260045260246000fd5b80548210156103445761033b600e91600052602060002090565b91020190600090565b61030b565b6102ad9081565b6102ad9054610349565b6102ad905b60ff1690565b6102ad905461035a565b60049061037a825490565b8110156101cf5761038a91610321565b509061039582610350565b916103a260098201610350565b916102ad600b6103b4600a8501610350565b9301610365565b9052565b6103ec6101e1946103e56060949897956103de608086019a6000870152565b6020850152565b6040830152565b019015159052565b346101cf576102f361040f61040a3660046102f7565b61036f565b9061041c94929460405190565b948594856103bf565b80548210156103445761033b600191600052602060002090565b6102ad916008021c5b6001600160a01b031690565b906102ad915461043f565b6001548110156101cf576104776102ad916001610425565b90610454565b6103bb90610448565b6020810192916101e1919061047d565b346101cf576102f36104b16104ac3660046102f7565b61045f565b60405191829182610486565b60009103126101cf57565b346101cf576104d83660046104bd565b6102f36104e460045490565b6040519182918290815260200190565b346101cf576105043660046104bd565b6102f36104e460025490565b6101c881610448565b905035906101e182610510565b91906040838203126101cf576102ad9060206105428286610519565b94016101d4565b346101cf576102ed61055c366004610526565b90611473565b600311156101cf57565b905035906101e182610562565b91906040838203126101cf576102ad90602061059582866101d4565b940161056c565b346101cf576102ed6105af366004610579565b906116b0565b91906040838203126101cf576102ad9060206105d182866101d4565b9401610519565b634e487b7160e01b600052602160045260246000fd5b600311156105f857565b6105d8565b906101e1826105ee565b6102ad906105fd565b6103bb90610607565b906060806101e1936106336000820151600086019061047d565b60208181015115159085015261064e60408201516040860152565b0151910190610610565b6080810192916101e19190610619565b346101cf576102f361068461067e3660046105b5565b90611886565b60405191829182610658565b346101cf576106a03660046104bd565b6102ed6119d4565b346101cf576102ed6106bb3660046102f7565b611eff565b906020828203126101cf576102ad91610519565b346101cf576102ed6106e73660046106c0565b612094565b346101cf576102f36104b16107023660046102f7565b6120e2565b346101cf576107173660046104bd565b6102f36104b161210f565b346101cf576107323660046104bd565b6102f361073d612119565b60405191829182901515815260200190565b6102ad90610448906001600160a01b031682565b6102ad9061074f565b6102ad90610763565b9061077f9061076c565b600052602052604060002090565b6102ad916008021c81565b906102ad915461078d565b60006107b36102ad926003610775565b610798565b346101cf576102f36104e46107ce3660046106c0565b6107a3565b346101cf576102ed6107e63660046106c0565b6121e5565b346101cf576102ed6107fe3660046102f7565b6122f0565b346101cf576102ed6108163660046105b5565b906124de565b6002548110156101cf576104776102ad916002610425565b346101cf576102f36104b161084a3660046102f7565b61081c565b9061085c8160209361047d565b0190565b9061088061087961086f845190565b8084529260200190565b9260200190565b9060005b8181106108915750505090565b9091926108ab6108a4600192865161084f565b9460200190565b929101610884565b60208082526102ad92910190610860565b346101cf576108d43660046104bd565b6102f36108df6124e8565b604051918291826108b3565b6108fb6108f760089390565b9190565b6000915b83831061090c5750505050565b61091f6108796001928451815260200190565b920191906108ff565b909594926101e1946109606103ec926109586101609661094e61018088019c6000890152565b60208701906108eb565b610120850152565b610140830152565b346101cf576102f361098361097e3660046102f7565b61266c565b9161099095939560405190565b95869586610928565b346101cf576102f361073d6109af366004610526565b906126c8565b9160206101e19294936109d06040820196600083019061047d565b0152565b346101cf576109ec6109e73660046102f7565b61277e565b906102f36109f960405190565b928392836109b5565b346101cf576102ed610a15366004610579565b906128e2565b346101cf576102ed610a2e3660046106c0565b612904565b346101cf57610a433660046104bd565b6102f36104e460015490565b346101cf576102f361073d610a65366004610526565b9061290d565b15610a7257565b60405162461bcd60e51b815260206004820152601760248201527f43616c6c6572206973206e6f7420746865206f776e65720000000000000000006044820152606490fd5b906101e191610acc610ac7612119565b610a6b565b61114d565b6102ad6102ad6102ad9290565b67ffffffffffffffff811161021b5760208091020190565b90610b0361025983610ade565b918252565b369037565b906101e1610b23610b1d84610af6565b93610ade565b601f190160208401610b08565b6102ad6080610220565b610b42610b30565b60008082526020820181905260408201819052606082015290565b6102ad610b3a565b60005b828110610b7457505050565b602090610b7f610b5d565b8184015201610b68565b906101e1610b99610b1d84610af6565b601f190160208401610b65565b6102ad60e0610220565b60010190565b906103bb90610448565b906103bb906105fd565b90610bd3825190565b811015610344576020809102010190565b634e487b7160e01b600052600060045260246000fd5b5190565b90600019905b9181191691161790565b90610c1c6102ad610c239290565b8254610bfe565b9055565b634e487b7160e01b600052601160045260246000fd5b9190610c48565b9290565b91808302928184041490151715610c5b57565b610c27565b9160001960089290920291821b911b610c04565b9190610c836102ad610c239390565b908354610c60565b6101e191600091610c74565b818110610ca2575050565b80610cb06000600193610c8b565b01610c97565b919091828210610cc557505050565b6101e19281019101610c97565b90600160401b811161021b576101e191600890610cb6565b600891610d00610c446001926102ad8686610cd2565b92049160005b838110610d135750505050565b6001906020610d236102ad865190565b9401938184015501610d06565b906101e191610cea565b90610c1c6102ad610c2392610ad1565b9060ff90610c04565b90610d636102ad610c2392151590565b8254610d4a565b9190610c836102ad610c2393610ad1565b6101e191600091610d6a565b818110610d92575050565b80610da06000600193610d7b565b01610d87565b919091828210610db557505050565b6101e19291610dcb905b91600052602060002090565b9182019101610d87565b90600160401b811161021b5781610ded6101e1935490565b90828155610da6565b6102ad9051610448565b916001600160a01b0360089290920291821b911b610c04565b81519167ffffffffffffffff831161021b57610e50610e44600192610e3e8686610dd5565b60200190565b92600052602060002090565b92049160005b838110610e635750505050565b6001906020610e746102ad86610df6565b9401938184015501610e56565b906101e191610e19565b6102ad906003610c3d565b600080825590600290610eac8360018301610d7b565b0155565b90600003610ec1576101e190610e96565b610be4565b818110610ed1575050565b80610edf6000600393610eb0565b01610ec6565b919091828210610ef457505050565b610f0c610dbf610f066101e195610e8b565b93610e8b565b9182019101610ec6565b90600160401b811161021b5781610f2e6101e1935490565b90828155610ee5565b906001600160a01b0390610c04565b90610f566102ad610c239261076c565b8254610f37565b9060ff60a01b9060a01b610c04565b90610f7c6102ad610c2392151590565b8254610f5d565b6102ad90516105fd565b90610d636102ad610c2392610607565b6101e191600290610fec90606090610fcf85610fc1610fbb84610df6565b82610f46565b602083015115155b90610f6c565b610fe6610fdd604083015190565b60018701610d3a565b01610f83565b9101610f8d565b906101e191610f9d565b611016610dbf61100b845190565b93610e3e8585610f16565b6000915b8383106110275750505050565b600360208261103f6110396001955190565b86610ff3565b0192019201919061101a565b906101e191610ffd565b600d6110ee60c06101e19461107461106e600083015190565b86610c0e565b61108b611082602083015190565b60018701610d30565b6110a2611099604083015190565b60098701610d3a565b6110b96110b0606083015190565b600a8701610d3a565b6110d26110c96080830151151590565b600b8701610d53565b6110e96110e060a083015190565b600c8701610e81565b015190565b910161104b565b9190610ec1576101e191611055565b90815491600160401b83101561021b57826111279160016101e195018155610321565b906110f5565b91908203918211610c5b57565b9081526040810192916101e19160200152565b909160009261115b84610ad1565b9161116583610b0d565b906111c96002926111c261117f61117a865490565b610b89565b9161119d61118b610ba6565b976111968b8d8b0152565b6020890152565b6111a8886040890152565b6111b3886060890152565b891515608088015260a0870152565b60c0850152565b835b6111d66102ad845490565b811015611248578061123c816111f26104776112439588610425565b6112066111fd610b30565b918c8301610bb6565b8a15156020820152611219896040830152565b6112268b60608301610bc0565b60c0880151906112368383610bca565b52610bca565b5060010190565b6111cb565b509450507fb1e570e4094a5f87a5572e3e718941fb3822dd7fdc7a5d6d6d0d905b6c5242719291506112819061127c600490565b611104565b61129d61128d60045490565b6112976001610ad1565b9061112d565b6112b26112a960405190565b9283928361113a565b0390a1565b906101e191610ab7565b906101e1916112d1610ac7612119565b6113b2565b6102ad90610448565b6102ad90546112d6565b906112f8610e4461086f845490565b9060005b8181106113095750505090565b90919261132a61132360019261131e876112df565b61084f565b9460010190565b9291016112fc565b906102ad916112e9565b906101e16113569261134d60405190565b93848092611332565b03836101f9565b6102ad9061133c565b1561136d57565b60405162461bcd60e51b815260206004820152601b60248201527f44656c656761746520616c7265616479207265676973746572656400000000006044820152606490fd5b906101e1916113d96113d46113d06113ca600261135d565b8461292c565b1590565b611366565b611420565b91906113ef6102ad610c239361076c565b908354610e00565b90815491600160401b83101561021b578261141a9160016101e195018155610425565b906113de565b7f21c628fd83b556927fdf61a558e4514d6e816764e0e9b2af0b3495c21e632fb491906114538160026113f7565b6113f7565b61146782611462836003610775565b610d3a565b6112b26109f960405190565b906101e1916112c1565b1561148457565b60405162461bcd60e51b815260206004820152601a60248201527f44656c6567617465206973206e6f7420726567697374657265640000000000006044820152606490fd5b906000916114d76000610ad1565b60026114e46102ad825490565b82101561152c57610477826114f892610425565b61150a61150433610448565b91610448565b14611517576001016114d7565b506101e19250611527600161147d565b61157f565b50506115276101e19361147d565b1561154157565b60405162461bcd60e51b815260206004820152601660248201527511195b1959d85d1948185b1c9958591e481d9bdd195960521b6044820152606490fd5b906101e1916115996115946113d0833361290d565b61153a565b61162e565b6102ad9060a01c61035f565b6102ad905461159e565b156115bb57565b60405162461bcd60e51b815260206004820152601a60248201527f5468652064656c656761746520616c726561647920766f7465640000000000006044820152606490fd5b6040906116276101e194969593966116206060840198600085019061047d565b6020830152565b0190610610565b907f2a0843c4c9b6f826101208fccb9fc7919aa2c226d9c2a29d4e09f16355780a609161169a8260026116613385612990565b61167361166d826115aa565b156115b4565b61167e600182610f6c565b61169461168b6000610ad1565b60018301610d3a565b01610f8d565b6112b26116a660405190565b9283923384611600565b906101e1916114c9565b6116c66108f760089390565b6000915b8383106116d75750505050565b6116f86116f16001926116e985610350565b815260200190565b9260010190565b920191906116ca565b9061085c81610100936116ba565b906101e16113569261172060405190565b93848092611701565b906101e161177e600261173a610b30565b9461174d611747826112df565b87610bb6565b611762611759826115aa565b15156020880152565b61177861177160018301610350565b6040880152565b01610365565b60608401610bc0565b6102ad90611729565b90611799825490565b6117a281610af6565b926117b66020850191600052602060002090565b6000915b8383106117c75750505050565b600360206001926117d785611787565b8152019201920191906117ba565b906101e1611876600d6117f6610ba6565b9461180761180382610350565b8752565b61181d6118166001830161170f565b6020880152565b61182c61177160098301610350565b61184261183b600a8301610350565b6060880152565b61185a611851600b8301610365565b15156080880152565b611870611869600c830161133c565b60a0880152565b01611790565b60c0840152565b6102ad906117e5565b61189d6118a391611895610b5d565b506004610321565b5061187d565b906000906118b16000610ad1565b60c084016118c16102ad82515190565b821015611907576118de846118d7848451610bca565b5101610df6565b6118ea61150485610448565b146118f857506001016118b1565b91509150610bfa925051610bca565b60405162461bcd60e51b815260206004820152601760248201527f44656c656761746520766f7465206e6f7420666f756e640000000000000000006044820152606490fd5b611957610ac7612119565b6101e1611975565b6104486102ad6102ad9290565b6102ad9061195f565b6101e161198260006112df565b61199561198f600061196c565b9161076c565b61199e8261076c565b907f8be0079c531659141344cd1fd0a4f28419497f9722a3daafe3b4186f6b6457e06119c960405190565b600090a36000610f46565b6101e161194c565b6101e1906119eb610ac7612119565b611df9565b156119f757565b60405162461bcd60e51b815260206004820152601760248201527f50726f706f73616c20646f6573206e6f742065786973740000000000000000006044820152606490fd5b15611a4357565b60405162461bcd60e51b815260206004820152601960248201527f50726f706f73616c20616c72656164792066696e6973686564000000000000006044820152606490fd5b15611a8f57565b60405162461bcd60e51b8152602060048201526016602482015275141c9bdc1bdcd85b08185b1c9958591e481d9bdd195960521b6044820152606490fd5b91908201809211610c5b57565b818114611b2b57600891611af7610c446001926102ad8686610cd2565b9204918154916000925b848410611b0f575050505050565b6001611b19819290565b92019384549281850155019290611b01565b5050565b906101e191611ada565b818114611b2b5781549167ffffffffffffffff831161021b57611b70610e44600192611b658686610dd5565b600052602060002090565b9204918154916000925b848410611b88575050505050565b60019081906001600160a01b031692019384549281850155019290611b7a565b906101e191611b39565b818103611bbd575050565b6101e191600290610fec908290611be985610fc983611be4611bde826112df565b84610f46565b6115aa565b611778610fdd60018301610350565b906101e191611bb2565b818114611b2b57611c22610dbf611c17845490565b93611b658585610f16565b6000915b838310611c335750505050565b60038082611c4360019486611bf8565b01920192019190611c26565b906101e191611c02565b818103611c64575050565b600d8083611c80611c7a60006101e19701610350565b85610c0e565b611c906001820160018601611b2f565b611ca8611c9f60098301610350565b60098601610d3a565b611cc0611cb7600a8301610350565b600a8601610d3a565b611cd8611ccf600b8301610365565b600b8601610d53565b611ce8600c8201600c8601611ba8565b019101611c4f565b9190610ec1576101e191611c59565b634e487b7160e01b600052603160045260246000fd5b6101e1906008810190610c97565b90600003610ec1576101e190611d15565b60006101e191610dd5565b90600003610ec1576101e190611d34565b60006101e191610f16565b90600003610ec1576101e190611d50565b6000600d6101e192611d8083808301610c8b565b611d8d8360018301611d23565b611d9a8360098301610d7b565b611da783600a8301610d7b565b82600b820155611dba83600c8301611d3f565b01611d5b565b90600003610ec1576101e190611d6c565b80548015611df4576000190190611df1611deb8383610321565b90611dc0565b55565b611cff565b906004611e11611e0a6102ad835490565b84106119f0565b611e59611e2161189d8584610321565b611e39611e346113d06080840151151590565b611a3c565b6040810151611e4b6108f76000610ad1565b149081611ee5575b50611a88565b825b8154611e6f6102ad60019261129784610ad1565b821015611eae5790610bb0611e98611e92611e8c611ea995610ad1565b84611acd565b85610321565b50611ea38386610321565b90611cf0565b611e5b565b50507f61c0d93dc2b610877e420b107c8d12e9185e46e04a505da758cc7f7329ae545f91926104e4611ee06112b29390565b611dd1565b606001519050611ef86108f76000610ad1565b1438611e53565b6101e1906119dc565b6101e190611f17610ac7612119565b611f68565b15611f2357565b60405162461bcd60e51b815260206004820152601760248201527f44656c6567617465206e6f7420726567697374657265640000000000000000006044820152606490fd5b6101e190611f87611f82611f7c600261135d565b8361292c565b611f1c565b611fb8565b6101e1916000916113de565b80548015611df4576000190190611df1611fb28383610425565b90611f8c565b611fc26000610ad1565b6002611fcf6102ad825490565b82101561206857611fe36104778383610425565b611fef61150485610448565b14611ffd5750600101611fc2565b9161205361204e846102ad6112b29561141a61204761047761204161128d7f98561cbe7c9c0b90726130c8409b307d4c9698c9e7ee2797aea68659cad104949c5490565b86610425565b9184610425565b611f98565b6104b16000612063836003610775565b610d7b565b50506112b27f98561cbe7c9c0b90726130c8409b307d4c9698c9e7ee2797aea68659cad1049491612053565b6101e190611f08565b156120a457565b60405162461bcd60e51b815260206004820152601660248201527510da5d1a5e995b88191bd95cc81b9bdd08195e1a5cdd60521b6044820152606490fd5b6104776102ad916120f1600090565b506121086121016102ad60015490565b821061209d565b6001610425565b6102ad60006112df565b61212b61212660006112df565b610448565b61213433610448565b1490565b6101e190612147610ac7612119565b612198565b1561215357565b60405162461bcd60e51b815260206004820152601a60248201527f436974697a656e20616c726561647920726567697374657265640000000000006044820152606490fd5b6101e1906121b46121af6113d06113ca600161135d565b61214c565b6112b27fb5598409719558ebd54a454803d5d44a0b2ae7d77be5ea208f6a3b9698a2cb58916104b18161144e600190565b6101e190612138565b6101e1906121fd610ac7612119565b612246565b1561220957565b60405162461bcd60e51b815260206004820152601560248201527450726f706f73616c20686173206e6f20766f74657360581b6044820152606490fd5b6112b27fc2946e69de813a7cede502a3b315aa221abf9fcca5c7134b0ae6b2c3857cf63d916104e4600161228261227e846004610321565b5090565b6122c1600b820191612299611e346113d085610365565b6122a560098201610350565b6122b26108f76000610ad1565b119081156122cf575b50612202565b6122ca84612a28565b610d53565b6122dc9150600a01610350565b6122e96108f76000610ad1565b11386122bb565b6101e1906121ee565b1561230057565b60405162461bcd60e51b815260206004820152601960248201527f436974697a656e206973206e6f742072656769737465726564000000000000006044820152606490fd5b906000916123536000610ad1565b60016123606102ad825490565b8210156123a2576123746104778383610425565b61238061150433610448565b1461238e5750600101612353565b6101e1945061239d91506122f9565b6123b0565b505061239d6101e1936122f9565b906101e1916123c5611f826113ca600261135d565b61240e565b156123d157565b60405162461bcd60e51b815260206004820152601560248201527410da5d1a5e995b88185b1c9958591e481d9bdd1959605a1b6044820152606490fd5b906101e1916124286124236113d083336126c8565b6123ca565b612454565b60409061244d6101e194969593966116206060840198600085019061047d565b019061047d565b907ff69dfa7dcf0ea3774ec16a69c67fab945b55abba3d54c0c5384b35eb485fbdc5916124a96124848383612990565b6124a3600161249281610ad1565b92019161249e83610350565b611acd565b90610d3a565b6124c86124c1600c6124bc846004610321565b500190565b33906113f7565b6112b26124d460405190565b928392338461242d565b906101e191612345565b60026124fb6124f660025490565b610b0d565b90612504825190565b906001918261251281610ad1565b905b612520575b5050505090565b8181101561263557908161253961047785948796610425565b84600361254e6125498483610775565b610350565b61256061255a84610ad1565b8661112d565b925b61259a575b5050612592929161258d612587610bb0936125818a610ad1565b90611acd565b8a610bca565b610bb6565b909192612514565b9091896125ad6000999596979899610ad1565b82101580612614575b1561260757906125f06125d46125cf836125f995610bca565b610df6565b61258d8d6125ea6125e48a610ad1565b86611acd565b90610bca565b61129785610ad1565b929695949392919087612562565b5091969594939296612567565b5061262e6125496126286125cf8585610bca565b86610775565b83106125b6565b612519565b6102596102ad91610234565b906101e161265c6126568461263a565b93610234565b83610b08565b6102ad6008612646565b61189d61268c9161267b600090565b50612684612662565b506000611895565b90612695825190565b916020810151926126a7604083015190565b926126c060806126b8606086015190565b940151151590565b919493929190565b9061189d6126d891611895600090565b906126e36000610ad1565b60a083016126f36102ad82515190565b821015612729576125cf826127089251610bca565b61271461150484610448565b14612721576001016126e3565b505050600190565b50505050600090565b1561273957565b60405162461bcd60e51b815260206004820152601760248201527f44656c656761746520646f6573206e6f742065786973740000000000000000006044820152606490fd5b906102ad6125496127b66104776002956127a361279c6102ad895490565b8210612732565b6127b06104778289610425565b96610425565b6003610775565b906000916127cb6000610ad1565b60016127d86102ad825490565b82101561281a576127ec6104778383610425565b6127f861150433610448565b1461280657506001016127cb565b6101e1945061281591506122f9565b612828565b50506128156101e1936122f9565b906101e19161283d6124236113d083336126c8565b907f537b4589cf485698c16a1df191993a3b84135e85fa627536d8e9004c0cf1d2d79161169a6124c1600c61287661227e856004610321565b61288060016105fd565b612889876105fd565b036128ac5761085c61289b6001610ad1565b6124a3600984019161249e83610350565b6128b660026105fd565b6128bf876105fd565b0361085c5761085c6128d16001610ad1565b6124a3600a84019161249e83610350565b906101e1916127bd565b6101e1906128fb610ac7612119565b6101e190612c67565b6101e1906128ec565b6129256020916102ad9361291f600090565b50611886565b0151151590565b6129366000610ad1565b6129416102ad845190565b81101561296e576129586121266125cf8386610bca565b61296183610448565b1461272157600101612936565b505050600090565b80548210156103445761033b600391600052602060002090565b61227e61299e916004610321565b906000906129ac6000610ad1565b600d84016129bb6102ad825490565b821015611907576129d7846129d08484612976565b50016112df565b6129e361150485610448565b146129f157506001016129ac565b9091506102ad935061227e9250612976565b634e487b7160e01b600052601260045260246000fd5b8115612a23570490565b612a03565b612a3661227e826004610321565b600190612a4e612a44835490565b600c830154611297565b600081612a5d6108f783610ad1565b11612bc8575b90839291612a6f6124e8565b9184612a7a83610ad1565b905b612b4b575b5050612a8c90610ad1565b925b612a9a575b5050505050565b612aa56102ad825190565b831015612b4657612b08836060612ac9612ac36125cf899887610bca565b89611886565b01612ad381610f83565b612ae5612adf886105fd565b916105fd565b03612b0e5750610bb0612af786610ad1565b6124a3600987019161249e83610350565b92612a8e565b612b1790610f83565b612b24612adf60026105fd565b03610bb057610bb0612b3586610ad1565b6124a3600a87019161249e83610350565b612a93565b612b5a6102ad85969794955190565b811015612bbe57612b6a84610ad1565b8211612b7f575b6001015b8295949392612a7c565b90612bb6612b7591612b9d612b976125cf868a610bca565b8b612990565b90612bb1612baa87610ad1565b8093612c9d565b61112d565b919050612b71565b9493929194612a81565b8380612bd383610ad1565b915b612be1575b5050612a63565b90926002612bf06102ad825490565b851015612c5757612c44612c5092612bb1612c1161047789612c4996610425565b612c3b612c2b84612c26612549856003610775565b610c3d565b612c356064610ad1565b90612a19565b9384918d612990565b612c9d565b9360010190565b9080612bd5565b50925080612bda565b156101cf57565b6101e190612c8b612c7b612126600061196c565b612c8483610448565b1415612c60565b611995612c9860006112df565b61076c565b906124a360016101e193019161249e8361035056fea26469706673582212205b4b51e2e44a37d3c6e3fffa0ff6b920bca566e54e2dc173d443850283381db764736f6c634300081c0033",
  "linkReferences": {},
  "deployedLinkReferences": {}
}