{
  "_format": "hh-sol-artifact-1",
  "contractName": "Democracy",
  "sourceName": "contracts/Democracy.sol",
  "abi": [
    {
      "anonymous": false,
      "inputs": [
        {
          "indexed": false,
          "internalType": "address",
          "name": "citizen",
          "type": "address"
        },
        {
          "indexed": false,
          "internalType": "uint256",
          "name": "proposalId",
          "type": "uint256"
        },
        {
          "indexed": false,
          "internalType": "address",
          "name": "delegate",
          "type": "address"
        }
      ],
      "name": "CitizenDelegatedVote",
      "type": "event"
    },
    {
      "anonymous": false,
      "inputs": [
        {
          "indexed": false,
          "internalType": "address",
          "name": "citizen",
          "type": "address"
        }
      ],
      "name": "CitizenRegistered",
      "type": "event"
    },
    {
      "anonymous": false,
      "inputs": [
        {
          "indexed": false,
          "internalType": "address",
          "name": "citizen",
          "type": "address"
        },
        {
          "indexed": false,
          "internalType": "uint256",
          "name": "proposalId",
          "type": "uint256"
        },
        {
          "indexed": false,
          "internalType": "enum Democracy.Choice",
          "name": "choice",
          "type": "uint8"
        }
      ],
      "name": "CitizenVoted",
      "type": "event"
    },
    {
      "anonymous": false,
      "inputs": [
        {
          "indexed": false,
          "internalType": "address",
          "name": "delegate",
          "type": "address"
        },
        {
          "indexed": false,
          "internalType": "uint256",
          "name": "percentage",
          "type": "uint256"
        }
      ],
      "name": "DelegateRegistered",
      "type": "event"
    },
    {
      "anonymous": false,
      "inputs": [
        {
          "indexed": false,
          "internalType": "address",
          "name": "delegate",
          "type": "address"
        }
      ],
      "name": "DelegateUnregistered",
      "type": "event"
    },
    {
      "anonymous": false,
      "inputs": [
        {
          "indexed": false,
          "internalType": "address",
          "name": "delegate",
          "type": "address"
        },
        {
          "indexed": false,
          "internalType": "uint256",
          "name": "proposalId",
          "type": "uint256"
        },
        {
          "indexed": false,
          "internalType": "enum Democracy.Choice",
          "name": "choice",
          "type": "uint8"
        }
      ],
      "name": "DelegateVoted",
      "type": "event"
    },
    {
      "anonymous": false,
      "inputs": [
        {
          "indexed": true,
          "internalType": "address",
          "name": "previousOwner",
          "type": "address"
        },
        {
          "indexed": true,
          "internalType": "address",
          "name": "newOwner",
          "type": "address"
        }
      ],
      "name": "OwnershipTransferred",
      "type": "event"
    },
    {
      "anonymous": false,
      "inputs": [
        {
          "indexed": false,
          "internalType": "uint256",
          "name": "proposalId",
          "type": "uint256"
        },
        {
          "indexed": false,
          "internalType": "bytes32",
          "name": "title",
          "type": "bytes32"
        }
      ],
      "name": "ProposalCreated",
      "type": "event"
    },
    {
      "inputs": [
        {
          "internalType": "address",
          "name": "_citizen",
          "type": "address"
        },
        {
          "internalType": "uint256",
          "name": "_proposalId",
          "type": "uint256"
        }
      ],
      "name": "citizenHasVoted",
      "outputs": [
        {
          "internalType": "bool",
          "name": "",
          "type": "bool"
        }
      ],
      "stateMutability": "view",
      "type": "function"
    },
    {
      "inputs": [
        {
          "internalType": "uint256",
          "name": "",
          "type": "uint256"
        }
      ],
      "name": "citizens",
      "outputs": [
        {
          "internalType": "address",
          "name": "",
          "type": "address"
        }
      ],
      "stateMutability": "view",
      "type": "function"
    },
    {
      "inputs": [
        {
          "internalType": "bytes32",
          "name": "_title",
          "type": "bytes32"
        },
        {
          "internalType": "string",
          "name": "_description",
          "type": "string"
        }
      ],
      "name": "createProposal",
      "outputs": [],
      "stateMutability": "nonpayable",
      "type": "function"
    },
    {
      "inputs": [
        {
          "internalType": "address",
          "name": "_delegate",
          "type": "address"
        },
        {
          "internalType": "uint256",
          "name": "_proposalId",
          "type": "uint256"
        }
      ],
      "name": "delegateHasVoted",
      "outputs": [
        {
          "internalType": "bool",
          "name": "",
          "type": "bool"
        }
      ],
      "stateMutability": "view",
      "type": "function"
    },
    {
      "inputs": [
        {
          "internalType": "uint256",
          "name": "_proposalId",
          "type": "uint256"
        },
        {
          "internalType": "address",
          "name": "_delegate",
          "type": "address"
        }
      ],
      "name": "delegateVote",
      "outputs": [],
      "stateMutability": "nonpayable",
      "type": "function"
    },
    {
      "inputs": [
        {
          "internalType": "uint256",
          "name": "",
          "type": "uint256"
        }
      ],
      "name": "delegates",
      "outputs": [
        {
          "internalType": "address",
          "name": "",
          "type": "address"
        }
      ],
      "stateMutability": "view",
      "type": "function"
    },
    {
      "inputs": [
        {
          "internalType": "uint256",
          "name": "_proposalId",
          "type": "uint256"
        },
        {
          "internalType": "address",
          "name": "_delegate",
          "type": "address"
        }
      ],
      "name": "getDelegateVote",
      "outputs": [
        {
          "components": [
            {
              "internalType": "address",
              "name": "delegate",
              "type": "address"
            },
            {
              "internalType": "bool",
              "name": "voted",
              "type": "bool"
            },
            {
              "internalType": "uint256",
              "name": "weight",
              "type": "uint256"
            },
            {
              "internalType": "enum Democracy.Choice",
              "name": "choice",
              "type": "uint8"
            }
          ],
          "internalType": "struct Democracy.DelegateVote",
          "name": "",
          "type": "tuple"
        }
      ],
      "stateMutability": "view",
      "type": "function"
    },
    {
      "inputs": [],
      "name": "isOwner",
      "outputs": [
        {
          "internalType": "bool",
          "name": "",
          "type": "bool"
        }
      ],
      "stateMutability": "view",
      "type": "function"
    },
    {
      "inputs": [],
      "name": "owner",
      "outputs": [
        {
          "internalType": "address",
          "name": "",
          "type": "address"
        }
      ],
      "stateMutability": "view",
      "type": "function"
    },
    {
      "inputs": [
        {
          "internalType": "address",
          "name": "",
          "type": "address"
        }
      ],
      "name": "percentages",
      "outputs": [
        {
          "internalType": "uint256",
          "name": "",
          "type": "uint256"
        }
      ],
      "stateMutability": "view",
      "type": "function"
    },
    {
      "inputs": [
        {
          "internalType": "uint256",
          "name": "",
          "type": "uint256"
        }
      ],
      "name": "proposals",
      "outputs": [
        {
          "internalType": "bytes32",
          "name": "title",
          "type": "bytes32"
        },
        {
          "internalType": "string",
          "name": "description",
          "type": "string"
        },
        {
          "internalType": "uint256",
          "name": "yesCount",
          "type": "uint256"
        },
        {
          "internalType": "uint256",
          "name": "noCount",
          "type": "uint256"
        },
        {
          "internalType": "bool",
          "name": "done",
          "type": "bool"
        }
      ],
      "stateMutability": "view",
      "type": "function"
    },
    {
      "inputs": [],
      "name": "proposalsCount",
      "outputs": [
        {
          "internalType": "uint256",
          "name": "",
          "type": "uint256"
        }
      ],
      "stateMutability": "view",
      "type": "function"
    },
    {
      "inputs": [
        {
          "internalType": "address",
          "name": "_citizen",
          "type": "address"
        }
      ],
      "name": "registerCitizen",
      "outputs": [],
      "stateMutability": "nonpayable",
      "type": "function"
    },
    {
      "inputs": [
        {
          "internalType": "address",
          "name": "_delegate",
          "type": "address"
        },
        {
          "internalType": "uint256",
          "name": "_percentage",
          "type": "uint256"
        }
      ],
      "name": "registerDelegate",
      "outputs": [],
      "stateMutability": "nonpayable",
      "type": "function"
    },
    {
      "inputs": [],
      "name": "renounceOwnership",
      "outputs": [],
      "stateMutability": "nonpayable",
      "type": "function"
    },
    {
      "inputs": [],
      "name": "sortDelegates",
      "outputs": [
        {
          "internalType": "address[]",
          "name": "",
          "type": "address[]"
        }
      ],
      "stateMutability": "view",
      "type": "function"
    },
    {
      "inputs": [
        {
          "internalType": "address",
          "name": "newOwner",
          "type": "address"
        }
      ],
      "name": "transferOwnership",
      "outputs": [],
      "stateMutability": "nonpayable",
      "type": "function"
    },
    {
      "inputs": [
        {
          "internalType": "address",
          "name": "_delegate",
          "type": "address"
        }
      ],
      "name": "unregisterDelegate",
      "outputs": [],
      "stateMutability": "nonpayable",
      "type": "function"
    },
    {
      "inputs": [
        {
          "internalType": "uint256",
          "name": "_proposalId",
          "type": "uint256"
        },
        {
          "internalType": "enum Democracy.Choice",
          "name": "_choice",
          "type": "uint8"
        }
      ],
      "name": "voteAsCitizen",
      "outputs": [],
      "stateMutability": "nonpayable",
      "type": "function"
    },
    {
      "inputs": [
        {
          "internalType": "uint256",
          "name": "_proposalId",
          "type": "uint256"
        },
        {
          "internalType": "enum Democracy.Choice",
          "name": "_choice",
          "type": "uint8"
        }
      ],
      "name": "voteAsDelegate",
      "outputs": [],
      "stateMutability": "nonpayable",
      "type": "function"
    }
  ],
  "bytecode": "0x60806040523461002257610011610027565b604051612298610122823961229890f35b600080fd5b61002f6100bf565b565b61004590610048906001600160a01b031682565b90565b6001600160a01b031690565b61004590610031565b61004590610054565b906100766100456100929261005d565b82546001600160a01b0319166001600160a01b03919091161790565b9055565b6100486100456100459290565b61004590610096565b61004590610048565b61004590546100ac565b6100ca336000610066565b6100d460006100a3565b6100f06100ea6100e460006100b5565b9261005d565b9161005d565b907f8be0079c531659141344cd1fd0a4f28419497f9722a3daafe3b4186f6b6457e061011b60405190565b600090a356fe6080604052600436101561001257600080fd5b60003560e01c8063013cf08b1461015257806309a34f001461014d5780630a9f46ad146101485780632185345514610143578063254c5fd01461013e5780633a11ff7914610139578063715018a6146101345780638376e5ae1461012f5780638da5cb5b1461012a5780638f32d59b1461012557806397f9688f146101205780639d592c661461011b578063aa78ce2214610116578063ac71fe1814610111578063b1548afc1461010c578063b5af4a1814610107578063cc3fbe2114610102578063e8ad642c146100fd578063f2fde38b146100f85763fc664ea903610160576109d3565b6109bb565b6109a2565b610986565b61095f565b6108d3565b6108a2565b61088a565b61086f565b6107ed565b610703565b6106e8565b6106d0565b6106a4565b61067c565b6105b0565b610558565b6104f3565b6104c1565b61041b565b805b0361016057565b600080fd5b9050359061017282610157565b565b906020828203126101605761018891610165565b90565b634e487b7160e01b600052603260045260246000fd5b80548210156101c4576101bb600791600052602060002090565b91020190600090565b61018b565b6101889081565b61018890546101c9565b634e487b7160e01b600052602260045260246000fd5b9060016002830492168015610210575b602083101461020b57565b6101da565b91607f1691610200565b8054600093929161023761022d836101f0565b8085529360200190565b9160018116908115610289575060011461025057505050565b6102639192939450600052602060002090565b916000925b8184106102755750500190565b805484840152602090930192600101610268565b92949550505060ff1916825215156020020190565b906101889161021a565b634e487b7160e01b600052604160045260246000fd5b90601f01601f1916810190811067ffffffffffffffff8211176102e057604052565b6102a8565b906101726102ff926102f660405190565b9384809261029e565b03836102be565b610188905b60ff1690565b6101889054610306565b600490610326825490565b81101561016057610336916101a1565b50610340816101d0565b9161034d600183016102e5565b9161035a600282016101d0565b91610188600461036c600385016101d0565b9301610311565b9052565b60005b83811061038a5750506000910152565b818101518382015260200161037a565b6103bb6103c46020936103ce936103af815190565b80835293849260200190565b95869101610377565b601f01601f191690565b0190565b906101729461040c610404610413936080969a99979a6103f760a08801926000890152565b868203602088015261039a565b986040850152565b6060830152565b019015159052565b346101605761044c610436610431366004610174565b61031b565b9161044395939560405190565b958695866103d2565b0390f35b80548210156101c4576101bb600191600052602060002090565b610188916008021c5b6001600160a01b031690565b90610188915461046a565b600154811015610160576104a2610188916001610450565b9061047f565b61037390610473565b60208101929161017291906104a8565b346101605761044c6104dc6104d7366004610174565b61048a565b604051918291826104b1565b600091031261016057565b34610160576105033660046104e8565b61044c61050f60045490565b6040519182918290815260200190565b61015981610473565b905035906101728261051f565b9190604083820312610160576101889060206105518286610528565b9401610165565b346101605761057161056b366004610535565b90610c75565b604051005b6003111561016057565b9050359061017282610576565b9190604083820312610160576101889060206105a98286610165565b9401610580565b34610160576105716105c336600461058d565b90610ef8565b9190604083820312610160576101889060206105e58286610165565b9401610528565b634e487b7160e01b600052602160045260246000fd5b6003111561060c57565b6105ec565b9061017282610602565b61018890610611565b6103739061061b565b9060608061017293610647600082015160008601906104a8565b60208181015115159085015261066260408201516040860152565b0151910190610624565b608081019291610172919061062d565b346101605761044c6106986106923660046105c9565b90611100565b6040519182918261066c565b34610160576106b43660046104e8565b610571611278565b906020828203126101605761018891610528565b34610160576105716106e33660046106bc565b61149b565b34610160576106f83660046104e8565b61044c6104dc6114a4565b34610160576107133660046104e8565b61044c61071e6114ae565b60405191829182901515815260200190565b9061017261073d60405190565b92836102be565b67ffffffffffffffff81116102e057602090601f01601f19160190565b90826000939282370152565b9092919261078261077d82610744565b610730565b938185528183011161016057610172916020850190610761565b9080601f83011215610160578160206101889335910161076d565b919091604081840312610160576107ce8382610165565b92602082013567ffffffffffffffff811161016057610188920161079c565b34610160576105716108003660046107b7565b90611b5d565b61018890610473906001600160a01b031682565b61018890610806565b6101889061081a565b9061083690610823565b600052602052604060002090565b610188916008021c81565b906101889154610844565b600061086a61018892600361082c565b61084f565b346101605761044c61050f6108853660046106bc565b61085a565b346101605761057161089d3660046106bc565b611c14565b34610160576105716108b53660046105c9565b90611e0f565b600254811015610160576104a2610188916002610450565b346101605761044c6104dc6108e9366004610174565b6108bb565b906103ce816020936104a8565b9061091b61091461090a845190565b8084529260200190565b9260200190565b9060005b81811061092c5750505090565b90919261094661093f60019286516108ee565b9460200190565b92910161091f565b6020808252610188929101906108fb565b346101605761096f3660046104e8565b61044c61097a611e19565b6040519182918261094e565b346101605761044c61071e61099c366004610535565b90611f71565b34610160576105716109b536600461058d565b90612104565b34610160576105716109ce3660046106bc565b612126565b346101605761044c61071e6109e9366004610535565b9061212f565b156109f657565b60405162461bcd60e51b815260206004820152601760248201527f43616c6c6572206973206e6f7420746865206f776e65720000000000000000006044820152606490fd5b9061017291610a50610a4b6114ae565b6109ef565b610b36565b61018890610473565b6101889054610a55565b90610a83610a7761090a845490565b92600052602060002090565b9060005b818110610a945750505090565b909192610ab5610aae600192610aa987610a5e565b6108ee565b9460010190565b929101610a87565b9061018891610a68565b906101726102ff92610ad860405190565b93848092610abd565b61018890610ac7565b15610af157565b60405162461bcd60e51b815260206004820152601b60248201527f44656c656761746520616c7265616479207265676973746572656400000000006044820152606490fd5b9061017291610b5d610b58610b54610b4e6002610ae1565b8461214e565b1590565b610aea565b610c14565b916001600160a01b0360089290920291821b911b5b9181191691161790565b9190610b92610188610b9a93610823565b908354610b62565b9055565b90815491600160401b8310156102e05782610bc191600161017295018155610450565b90610b81565b9060001990610b77565b6101886101886101889290565b90610bee610188610b9a92610bd1565b8254610bc7565b916020610172929493610c10604082019660008301906104a8565b0152565b7f21c628fd83b556927fdf61a558e4514d6e816764e0e9b2af0b3495c21e632fb49190610c47816002610b9e565b610b9e565b610c5b82610c5683600361082c565b610bde565b610c70610c6760405190565b92839283610bf5565b0390a1565b9061017291610a3b565b15610c8657565b60405162461bcd60e51b815260206004820152601a60248201527f44656c6567617465206973206e6f7420726567697374657265640000000000006044820152606490fd5b90600091610cd96000610bd1565b6002610ce6610188825490565b821015610d2e576104a282610cfa92610450565b610d0c610d0633610473565b91610473565b14610d1957600101610cd9565b506101729250610d296001610c7f565b610d81565b5050610d2961017293610c7f565b15610d4357565b60405162461bcd60e51b815260206004820152601660248201527511195b1959d85d1948185b1c9958591e481d9bdd195960521b6044820152606490fd5b9061017291610d9b610d96610b54833361212f565b610d3c565b610e76565b6101889060a01c61030b565b6101889054610da0565b15610dbd57565b60405162461bcd60e51b815260206004820152601a60248201527f5468652064656c656761746520616c726561647920766f7465640000000000006044820152606490fd5b9060ff60a01b9060a01b610b77565b90610e21610188610b9a92151590565b8254610e02565b9060ff90610b77565b90610e41610188610b9a9261061b565b8254610e28565b604090610e6f6101729496959396610e68606084019860008501906104a8565b6020830152565b0190610624565b907f2a0843c4c9b6f826101208fccb9fc7919aa2c226d9c2a29d4e09f16355780a6091610ee2826002610ea933856121b2565b610ebb610eb582610dac565b15610db6565b610ec6600182610e11565b610edc610ed36000610bd1565b60018301610bde565b01610e31565b610c70610eee60405190565b9283923384610e48565b9061017291610ccb565b6101886080610730565b610f14610f02565b60008082526020820181905260408201819052606082015290565b610188610f0c565b67ffffffffffffffff81116102e05760208091020190565b90610f5c61077d83610f37565b918252565b9061037390610473565b9061037390610611565b90610172610fca6002610f86610f02565b94610f99610f9382610a5e565b87610f61565b610fae610fa582610dac565b15156020880152565b610fc4610fbd600183016101d0565b6040880152565b01610311565b60608401610f6b565b61018890610f75565b90610fe5825490565b610fee81610f4f565b926110026020850191600052602060002090565b6000915b8383106110135750505050565b6003602060019261102385610fd3565b815201920192019190611006565b61018860e0610730565b906101726110cc600661104c611031565b9461105d611059826101d0565b8752565b61107361106c600183016102e5565b6020880152565b611082610fbd600283016101d0565b611098611091600383016101d0565b6060880152565b6110b06110a760048301610311565b15156080880152565b6110c66110bf60058301610ac7565b60a0880152565b01610fdc565b60c0840152565b6101889061103b565b906110e5825190565b8110156101c4576020809102010190565b6101889051610473565b61111761111d9161110f610f2f565b5060046101a1565b506110d3565b9060009061112b6000610bd1565b60c0840161113b61018882515190565b82101561118557611158846111518484516110dc565b51016110f6565b611164610d0685610473565b14611172575060010161112b565b915091506111819250516110dc565b5190565b60405162461bcd60e51b815260206004820152601760248201527f44656c656761746520766f7465206e6f7420666f756e640000000000000000006044820152606490fd5b6111d5610a4b6114ae565b610172611219565b6104736101886101889290565b610188906111dd565b906001600160a01b0390610b77565b90611212610188610b9a92610823565b82546111f3565b6101726112266000610a5e565b61123961123360006111ea565b91610823565b61124282610823565b907f8be0079c531659141344cd1fd0a4f28419497f9722a3daafe3b4186f6b6457e061126d60405190565b600090a36000611202565b6101726111ca565b6101729061128f610a4b6114ae565b6112e0565b1561129b57565b60405162461bcd60e51b815260206004820152601760248201527f44656c6567617465206e6f7420726567697374657265640000000000000000006044820152606490fd5b610172906112ff6112fa6112f46002610ae1565b8361214e565b611294565b6113af565b634e487b7160e01b600052601160045260246000fd5b9190820391821161132757565b611304565b634e487b7160e01b600052603160045260246000fd5b61017291600091610b81565b8054801561137157600019019061136e6113688383610450565b90611342565b55565b61132c565b9160001960089290920291821b911b610b77565b919061139b610188610b9a93610bd1565b908354611376565b6101729160009161138a565b6113b96000610bd1565b60026113c6610188825490565b82101561146f576113da6104a28383610450565b6113e6610d0685610473565b146113f457506001016113b9565b9161145a61145584610188610c7095610bc161144e6104a26114486114387f98561cbe7c9c0b90726130c8409b307d4c9698c9e7ee2797aea68659cad104949c5490565b6114426001610bd1565b9061131a565b86610450565b9184610450565b61134e565b6104dc600061146a83600361082c565b6113a3565b5050610c707f98561cbe7c9c0b90726130c8409b307d4c9698c9e7ee2797aea68659cad104949161145a565b61017290611280565b6101886000610a5e565b6114c06114bb6000610a5e565b610473565b6114c933610473565b1490565b90610172916114dd610a4b6114ae565b611a08565b369037565b906101726114fd6114f784610f4f565b93610f37565b601f1901602084016114e2565b60005b82811061151957505050565b602090611524610f2f565b818401520161150d565b9061017261153e6114f784610f4f565b601f19016020840161150a565b634e487b7160e01b600052600060045260246000fd5b90610bee610188610b9a9290565b81811061157a575050565b8061158860006001936113a3565b0161156f565b9190601f811161159d57505050565b6115af61017293600052602060002090565b906020601f8401819004830193106115d1575b6020601f90910104019061156f565b90915081906115c2565b906115e4815190565b9067ffffffffffffffff82116102e0576116088261160285546101f0565b8561158e565b602090601f831160011461164357610b9a929160009183611638575b5050600019600883021c1916906002021790565b015190503880611624565b601f1983169161165885600052602060002090565b9260005b8181106116965750916002939185600196941061167d575b50505002019055565b01516000196008601f8516021c19169055388080611674565b9193602060018192878701518155019501920161165c565b90610172916115db565b90610e41610188610b9a92151590565b8181029291811591840414171561132757565b8181106116e6575050565b806116f460006001936113a3565b016116db565b91909182821061170957505050565b610172929161171f905b91600052602060002090565b91820191016116db565b90600160401b81116102e05781611741610172935490565b908281556116fa565b81519167ffffffffffffffff83116102e057611775610a7760019261176f8686611729565b60200190565b92049160005b8381106117885750505050565b6001906020611799610188866110f6565b940193818401550161177b565b906101729161174a565b6101889060036116c8565b6000808255906002906117d183600183016113a3565b0155565b906000036117e657610172906117bb565b61154b565b8181106117f6575050565b8061180460006003936117d5565b016117eb565b91909182821061181957505050565b61183161171361182b610172956117b0565b936117b0565b91820191016117eb565b90600160401b81116102e05781611853610172935490565b9082815561180a565b6101889051610611565b610172916002906118b4906060906118978561188a611884846110f6565b82611202565b6020830151151590610e11565b6118ae6118a5604083015190565b60018701610bde565b0161185c565b9101610e31565b9061017291611866565b6118de6117136118d3845190565b9361176f858561183b565b6000915b8383106118ef5750505050565b60036020826119076119016001955190565b866118bb565b019201920191906118e2565b90610172916118c5565b60066119b660c06101729461193c611936600083015190565b86611561565b61195361194a602083015190565b600187016116ae565b61196a611961604083015190565b60028701610bde565b611981611978606083015190565b60038701610bde565b61199a6119916080830151151590565b600487016116b8565b6119b16119a860a083015190565b600587016117a6565b015190565b9101611913565b91906117e6576101729161191d565b90815491600160401b8310156102e057826119ef916001610172950181556101a1565b906119bd565b9081526040810192916101729160200152565b9091600092611a1684610bd1565b91611a20836114e7565b90611a84600292611a7d611a3a611a35865490565b61152e565b91611a58611a46611031565b97611a518b8d8b0152565b6020890152565b611a63886040890152565b611a6e886060890152565b891515608088015260a0870152565b60c0850152565b835b611a91610188845490565b811015611b035780611af781611aad6104a2611afe9588610450565b611ac1611ab8610f02565b918c8301610f61565b8a15156020820152611ad4896040830152565b611ae18b60608301610f6b565b60c088015190611af183836110dc565b526110dc565b5060010190565b611a86565b509450507fb1e570e4094a5f87a5572e3e718941fb3822dd7fdc7a5d6d6d0d905b6c524271929150611b3c90611b37600490565b6119cc565b611b4861143860045490565b610c70611b5460405190565b928392836119f5565b90610172916114cd565b61017290611b76610a4b6114ae565b611bc7565b15611b8257565b60405162461bcd60e51b815260206004820152601a60248201527f436974697a656e20616c726561647920726567697374657265640000000000006044820152606490fd5b61017290611be3611bde610b54610b4e6001610ae1565b611b7b565b610c707fb5598409719558ebd54a454803d5d44a0b2ae7d77be5ea208f6a3b9698a2cb58916104dc81610c42600190565b61017290611b67565b15611c2457565b60405162461bcd60e51b815260206004820152601960248201527f436974697a656e206973206e6f742072656769737465726564000000000000006044820152606490fd5b90600091611c776000610bd1565b6001611c84610188825490565b821015611cc657611c986104a28383610450565b611ca4610d0633610473565b14611cb25750600101611c77565b6101729450611cc19150611c1d565b611cd4565b5050611cc161017293611c1d565b9061017291611ce96112fa610b4e6002610ae1565b611d32565b15611cf557565b60405162461bcd60e51b815260206004820152601560248201527410da5d1a5e995b88185b1c9958591e481d9bdd1959605a1b6044820152606490fd5b9061017291611d4c611d47610b548333611f71565b611cee565b611d85565b9190820180921161132757565b604090611d7e6101729496959396610e68606084019860008501906104a8565b01906104a8565b907ff69dfa7dcf0ea3774ec16a69c67fab945b55abba3d54c0c5384b35eb485fbdc591611dda611db583836121b2565b611dd46001611dc381610bd1565b920191611dcf836101d0565b611d51565b90610bde565b611df9611df26005611ded8460046101a1565b500190565b3390610b9e565b610c70611e0560405190565b9283923384611d5e565b9061017291611c69565b6002611e2c611e2760025490565b6114e7565b90611e35825190565b9060019182611e4381610bd1565b905b611e51575b5050505090565b81811015611f6c579081611e6a6104a285948796610450565b846003611e7f611e7a848361082c565b6101d0565b611e91611e8b84610bd1565b8661131a565b925b611ed1575b5050611ec99291611ebe611eb8611ec393611eb28a610bd1565b90611d51565b8a6110dc565b610f61565b60010190565b909192611e45565b909189611ee46000999596979899610bd1565b82101580611f4b575b15611f3e5790611f27611f0b611f0683611f30956110dc565b6110f6565b611ebe8d611f21611f1b8a610bd1565b86611d51565b906110dc565b61144285610bd1565b929695949392919087611e93565b5091969594939296611e98565b50611f65611e7a611f5f611f0685856110dc565b8661082c565b8310611eed565b611e4a565b90611117611f819161110f600090565b90611f8c6000610bd1565b60a08301611f9c61018882515190565b821015611fd257611f0682611fb192516110dc565b611fbd610d0684610473565b14611fca57600101611f8c565b505050600190565b50505050600090565b90600091611fe96000610bd1565b6001611ff6610188825490565b8210156120385761200a6104a28383610450565b612016610d0633610473565b146120245750600101611fe9565b61017294506120339150611c1d565b612046565b505061203361017293611c1d565b906101729161205b611d47610b548333611f71565b907f537b4589cf485698c16a1df191993a3b84135e85fa627536d8e9004c0cf1d2d791610ee2611df260056120986120948560046101a1565b5090565b6120a26001610611565b6120ab87610611565b036120ce576103ce6120bd6001610bd1565b611dd46002840191611dcf836101d0565b6120d86002610611565b6120e187610611565b036103ce576103ce6120f36001610bd1565b611dd46003840191611dcf836101d0565b9061017291611fdb565b6101729061211d610a4b6114ae565b6101729061222c565b6101729061210e565b61214760209161018893612141600090565b50611100565b0151151590565b6121586000610bd1565b612163610188845190565b8110156121905761217a6114bb611f0683866110dc565b61218383610473565b14611fca57600101612158565b505050600090565b80548210156101c4576101bb600391600052602060002090565b6120946121c09160046101a1565b906000906121ce6000610bd1565b600684016121dd610188825490565b821015611185576121f9846121f28484612198565b5001610a5e565b612205610d0685610473565b1461221357506001016121ce565b90915061018893506120949250612198565b1561016057565b610172906122506122406114bb60006111ea565b61224983610473565b1415612225565b61123961225d6000610a5e565b61082356fea26469706673582212205c6646ec660c178dc85b5b7b10f6a711102379da090d6e0d69421622a63bb9fb64736f6c634300081c0033",
  "linkReferences": {},
  "deployedLinkReferences": {}
}