{
  "_format": "hh-sol-artifact-1",
  "contractName": "Democracy",
  "sourceName": "contracts/Democracy.sol",
  "abi": [
    {
      "anonymous": false,
      "inputs": [
        {
          "indexed": false,
          "internalType": "address",
          "name": "citizen",
          "type": "address"
        },
        {
          "indexed": false,
          "internalType": "uint256",
          "name": "proposalId",
          "type": "uint256"
        },
        {
          "indexed": false,
          "internalType": "address",
          "name": "delegate",
          "type": "address"
        }
      ],
      "name": "CitizenDelegatedVote",
      "type": "event"
    },
    {
      "anonymous": false,
      "inputs": [
        {
          "indexed": false,
          "internalType": "address",
          "name": "citizen",
          "type": "address"
        }
      ],
      "name": "CitizenRegistered",
      "type": "event"
    },
    {
      "anonymous": false,
      "inputs": [
        {
          "indexed": false,
          "internalType": "address",
          "name": "citizen",
          "type": "address"
        },
        {
          "indexed": false,
          "internalType": "uint256",
          "name": "proposalId",
          "type": "uint256"
        },
        {
          "indexed": false,
          "internalType": "enum Democracy.Choice",
          "name": "choice",
          "type": "uint8"
        }
      ],
      "name": "CitizenVoted",
      "type": "event"
    },
    {
      "anonymous": false,
      "inputs": [
        {
          "indexed": false,
          "internalType": "address",
          "name": "delegate",
          "type": "address"
        },
        {
          "indexed": false,
          "internalType": "uint256",
          "name": "percentage",
          "type": "uint256"
        }
      ],
      "name": "DelegateRegistered",
      "type": "event"
    },
    {
      "anonymous": false,
      "inputs": [
        {
          "indexed": false,
          "internalType": "address",
          "name": "delegate",
          "type": "address"
        }
      ],
      "name": "DelegateUnregistered",
      "type": "event"
    },
    {
      "anonymous": false,
      "inputs": [
        {
          "indexed": false,
          "internalType": "address",
          "name": "delegate",
          "type": "address"
        },
        {
          "indexed": false,
          "internalType": "uint256",
          "name": "proposalId",
          "type": "uint256"
        },
        {
          "indexed": false,
          "internalType": "enum Democracy.Choice",
          "name": "choice",
          "type": "uint8"
        }
      ],
      "name": "DelegateVoted",
      "type": "event"
    },
    {
      "anonymous": false,
      "inputs": [
        {
          "indexed": true,
          "internalType": "address",
          "name": "previousOwner",
          "type": "address"
        },
        {
          "indexed": true,
          "internalType": "address",
          "name": "newOwner",
          "type": "address"
        }
      ],
      "name": "OwnershipTransferred",
      "type": "event"
    },
    {
      "anonymous": false,
      "inputs": [
        {
          "indexed": false,
          "internalType": "uint256",
          "name": "proposalId",
          "type": "uint256"
        },
        {
          "indexed": false,
          "internalType": "bytes32",
          "name": "title",
          "type": "bytes32"
        }
      ],
      "name": "ProposalCreated",
      "type": "event"
    },
    {
      "anonymous": false,
      "inputs": [
        {
          "indexed": false,
          "internalType": "uint256",
          "name": "proposalId",
          "type": "uint256"
        }
      ],
      "name": "ProposalDeleted",
      "type": "event"
    },
    {
      "anonymous": false,
      "inputs": [
        {
          "indexed": false,
          "internalType": "uint256",
          "name": "proposalId",
          "type": "uint256"
        }
      ],
      "name": "ProposalFinished",
      "type": "event"
    },
    {
      "inputs": [
        {
          "internalType": "address",
          "name": "_citizen",
          "type": "address"
        },
        {
          "internalType": "uint256",
          "name": "_proposalId",
          "type": "uint256"
        }
      ],
      "name": "citizenHasVoted",
      "outputs": [
        {
          "internalType": "bool",
          "name": "",
          "type": "bool"
        }
      ],
      "stateMutability": "view",
      "type": "function"
    },
    {
      "inputs": [
        {
          "internalType": "uint256",
          "name": "",
          "type": "uint256"
        }
      ],
      "name": "citizens",
      "outputs": [
        {
          "internalType": "address",
          "name": "",
          "type": "address"
        }
      ],
      "stateMutability": "view",
      "type": "function"
    },
    {
      "inputs": [
        {
          "internalType": "bytes32",
          "name": "_title",
          "type": "bytes32"
        },
        {
          "internalType": "bytes32[8]",
          "name": "_description",
          "type": "bytes32[8]"
        }
      ],
      "name": "createProposal",
      "outputs": [],
      "stateMutability": "nonpayable",
      "type": "function"
    },
    {
      "inputs": [
        {
          "internalType": "address",
          "name": "_delegate",
          "type": "address"
        },
        {
          "internalType": "uint256",
          "name": "_proposalId",
          "type": "uint256"
        }
      ],
      "name": "delegateHasVoted",
      "outputs": [
        {
          "internalType": "bool",
          "name": "",
          "type": "bool"
        }
      ],
      "stateMutability": "view",
      "type": "function"
    },
    {
      "inputs": [
        {
          "internalType": "uint256",
          "name": "_proposalId",
          "type": "uint256"
        },
        {
          "internalType": "address",
          "name": "_delegate",
          "type": "address"
        }
      ],
      "name": "delegateVote",
      "outputs": [],
      "stateMutability": "nonpayable",
      "type": "function"
    },
    {
      "inputs": [
        {
          "internalType": "uint256",
          "name": "",
          "type": "uint256"
        }
      ],
      "name": "delegates",
      "outputs": [
        {
          "internalType": "address",
          "name": "",
          "type": "address"
        }
      ],
      "stateMutability": "view",
      "type": "function"
    },
    {
      "inputs": [
        {
          "internalType": "uint256",
          "name": "_proposalId",
          "type": "uint256"
        }
      ],
      "name": "deleteProposal",
      "outputs": [],
      "stateMutability": "nonpayable",
      "type": "function"
    },
    {
      "inputs": [
        {
          "internalType": "uint256",
          "name": "_proposalId",
          "type": "uint256"
        }
      ],
      "name": "finishVoting",
      "outputs": [],
      "stateMutability": "nonpayable",
      "type": "function"
    },
    {
      "inputs": [
        {
          "internalType": "uint256",
          "name": "_proposalId",
          "type": "uint256"
        },
        {
          "internalType": "address",
          "name": "_delegate",
          "type": "address"
        }
      ],
      "name": "getDelegateVote",
      "outputs": [
        {
          "components": [
            {
              "internalType": "address",
              "name": "delegate",
              "type": "address"
            },
            {
              "internalType": "bool",
              "name": "voted",
              "type": "bool"
            },
            {
              "internalType": "uint256",
              "name": "weight",
              "type": "uint256"
            },
            {
              "internalType": "enum Democracy.Choice",
              "name": "choice",
              "type": "uint8"
            }
          ],
          "internalType": "struct Democracy.DelegateVote",
          "name": "",
          "type": "tuple"
        }
      ],
      "stateMutability": "view",
      "type": "function"
    },
    {
      "inputs": [
        {
          "internalType": "uint256",
          "name": "_proposalId",
          "type": "uint256"
        }
      ],
      "name": "getProposal",
      "outputs": [
        {
          "internalType": "bytes32",
          "name": "",
          "type": "bytes32"
        },
        {
          "internalType": "bytes32[8]",
          "name": "",
          "type": "bytes32[8]"
        },
        {
          "internalType": "uint256",
          "name": "",
          "type": "uint256"
        },
        {
          "internalType": "uint256",
          "name": "",
          "type": "uint256"
        },
        {
          "internalType": "bool",
          "name": "",
          "type": "bool"
        }
      ],
      "stateMutability": "view",
      "type": "function"
    },
    {
      "inputs": [],
      "name": "isOwner",
      "outputs": [
        {
          "internalType": "bool",
          "name": "",
          "type": "bool"
        }
      ],
      "stateMutability": "view",
      "type": "function"
    },
    {
      "inputs": [],
      "name": "owner",
      "outputs": [
        {
          "internalType": "address",
          "name": "",
          "type": "address"
        }
      ],
      "stateMutability": "view",
      "type": "function"
    },
    {
      "inputs": [
        {
          "internalType": "address",
          "name": "",
          "type": "address"
        }
      ],
      "name": "percentages",
      "outputs": [
        {
          "internalType": "uint256",
          "name": "",
          "type": "uint256"
        }
      ],
      "stateMutability": "view",
      "type": "function"
    },
    {
      "inputs": [
        {
          "internalType": "uint256",
          "name": "",
          "type": "uint256"
        }
      ],
      "name": "proposals",
      "outputs": [
        {
          "internalType": "bytes32",
          "name": "title",
          "type": "bytes32"
        },
        {
          "internalType": "uint256",
          "name": "yesCount",
          "type": "uint256"
        },
        {
          "internalType": "uint256",
          "name": "noCount",
          "type": "uint256"
        },
        {
          "internalType": "bool",
          "name": "done",
          "type": "bool"
        }
      ],
      "stateMutability": "view",
      "type": "function"
    },
    {
      "inputs": [],
      "name": "proposalsCount",
      "outputs": [
        {
          "internalType": "uint256",
          "name": "",
          "type": "uint256"
        }
      ],
      "stateMutability": "view",
      "type": "function"
    },
    {
      "inputs": [
        {
          "internalType": "address",
          "name": "_citizen",
          "type": "address"
        }
      ],
      "name": "registerCitizen",
      "outputs": [],
      "stateMutability": "nonpayable",
      "type": "function"
    },
    {
      "inputs": [
        {
          "internalType": "address",
          "name": "_delegate",
          "type": "address"
        },
        {
          "internalType": "uint256",
          "name": "_percentage",
          "type": "uint256"
        }
      ],
      "name": "registerDelegate",
      "outputs": [],
      "stateMutability": "nonpayable",
      "type": "function"
    },
    {
      "inputs": [],
      "name": "renounceOwnership",
      "outputs": [],
      "stateMutability": "nonpayable",
      "type": "function"
    },
    {
      "inputs": [],
      "name": "sortDelegates",
      "outputs": [
        {
          "internalType": "address[]",
          "name": "",
          "type": "address[]"
        }
      ],
      "stateMutability": "view",
      "type": "function"
    },
    {
      "inputs": [
        {
          "internalType": "address",
          "name": "newOwner",
          "type": "address"
        }
      ],
      "name": "transferOwnership",
      "outputs": [],
      "stateMutability": "nonpayable",
      "type": "function"
    },
    {
      "inputs": [
        {
          "internalType": "address",
          "name": "_delegate",
          "type": "address"
        }
      ],
      "name": "unregisterDelegate",
      "outputs": [],
      "stateMutability": "nonpayable",
      "type": "function"
    },
    {
      "inputs": [
        {
          "internalType": "uint256",
          "name": "_proposalId",
          "type": "uint256"
        },
        {
          "internalType": "enum Democracy.Choice",
          "name": "_choice",
          "type": "uint8"
        }
      ],
      "name": "voteAsCitizen",
      "outputs": [],
      "stateMutability": "nonpayable",
      "type": "function"
    },
    {
      "inputs": [
        {
          "internalType": "uint256",
          "name": "_proposalId",
          "type": "uint256"
        },
        {
          "internalType": "enum Democracy.Choice",
          "name": "_choice",
          "type": "uint8"
        }
      ],
      "name": "voteAsDelegate",
      "outputs": [],
      "stateMutability": "nonpayable",
      "type": "function"
    }
  ],
  "bytecode": "0x60806040523461002257610011610027565b604051612b336101228239612b3390f35b600080fd5b61002f6100bf565b565b61004590610048906001600160a01b031682565b90565b6001600160a01b031690565b61004590610031565b61004590610054565b906100766100456100929261005d565b82546001600160a01b0319166001600160a01b03919091161790565b9055565b6100486100456100459290565b61004590610096565b61004590610048565b61004590546100ac565b6100ca336000610066565b6100d460006100a3565b6100f06100ea6100e460006100b5565b9261005d565b9161005d565b907f8be0079c531659141344cd1fd0a4f28419497f9722a3daafe3b4186f6b6457e061011b60405190565b600090a356fe6080604052600436101561001257600080fd5b60003560e01c806284943514610181578063013cf08b1461017c57806309a34f00146101775780630a9f46ad14610172578063218534551461016d578063254c5fd0146101685780633a11ff7914610163578063715018a61461015e5780638259d553146101595780638376e5ae146101545780638da5cb5b1461014f5780638f32d59b1461014a5780639d592c6614610145578063aa78ce2214610140578063abe7c08e1461013b578063ac71fe1814610136578063b1548afc14610131578063b5af4a181461012c578063c7f758a814610127578063cc3fbe2114610122578063e8ad642c1461011d578063f2fde38b146101185763fc664ea90361018f5761096f565b610957565b61093e565b610922565b6108f1565b61084d565b6107bd565b61078c565b610774565b61075c565b610741565b6106ab565b610690565b610678565b61064c565b610634565b61060c565b610540565b6104ed565b610488565b610456565b6103b4565b610294565b805b0361018f57565b600080fd5b905035906101a182610186565b565b634e487b7160e01b600052604160045260246000fd5b90601f01601f1916810190811067ffffffffffffffff8211176101db57604052565b6101a3565b906101a16101ed60405190565b92836101b9565b67ffffffffffffffff81116101db5760200290565b9092919261021e610219826101f4565b6101e0565b93602085920283019281841161018f57915b83831061023d5750505050565b6020809161024b8486610194565b815201920191610230565b9080601f8301121561018f57600861026d92610209565b90565b91906101208382031261018f5761026d90602061028d8286610194565b9401610256565b3461018f576102ad6102a7366004610270565b906111db565b60405180805b0390f35b9060208282031261018f5761026d91610194565b634e487b7160e01b600052603260045260246000fd5b8054821015610304576102fb600e91600052602060002090565b91020190600090565b6102cb565b61026d9081565b61026d9054610309565b61026d905b60ff1690565b61026d905461031a565b60049061033a825490565b81101561018f5761034a916102e1565b509061035582610310565b9161036260098201610310565b9161026d600b610374600a8501610310565b9301610325565b9052565b6103ac6101a1946103a560609498979561039e608086019a6000870152565b6020850152565b6040830152565b019015159052565b3461018f576102b36103cf6103ca3660046102b7565b61032f565b906103dc94929460405190565b9485948561037f565b8054821015610304576102fb600191600052602060002090565b61026d916008021c5b6001600160a01b031690565b9061026d91546103ff565b60015481101561018f5761043761026d9160016103e5565b90610414565b61037b90610408565b6020810192916101a1919061043d565b3461018f576102b361047161046c3660046102b7565b61041f565b60405191829182610446565b600091031261018f57565b3461018f5761049836600461047d565b6102b36104a460045490565b6040519182918290815260200190565b61018881610408565b905035906101a1826104b4565b919060408382031261018f5761026d9060206104e682866104bd565b9401610194565b3461018f576102ad6105003660046104ca565b906113bb565b6003111561018f57565b905035906101a182610506565b919060408382031261018f5761026d9060206105398286610194565b9401610510565b3461018f576102ad61055336600461051d565b906115f8565b919060408382031261018f5761026d9060206105758286610194565b94016104bd565b634e487b7160e01b600052602160045260246000fd5b6003111561059c57565b61057c565b906101a182610592565b61026d906105a1565b61037b906105ab565b906060806101a1936105d76000820151600086019061043d565b6020818101511515908501526105f260408201516040860152565b01519101906105b4565b6080810192916101a191906105bd565b3461018f576102b3610628610622366004610559565b906117ce565b604051918291826105fc565b3461018f5761064436600461047d565b6102ad61191c565b3461018f576102ad61065f3660046102b7565b611e47565b9060208282031261018f5761026d916104bd565b3461018f576102ad61068b366004610664565b611fdc565b3461018f576106a036600461047d565b6102b3610471611fe5565b3461018f576106bb36600461047d565b6102b36106c6611fef565b60405191829182901515815260200190565b61026d90610408906001600160a01b031682565b61026d906106d8565b61026d906106ec565b90610708906106f5565b600052602052604060002090565b61026d916008021c81565b9061026d9154610716565b600061073c61026d9260036106fe565b610721565b3461018f576102b36104a4610757366004610664565b61072c565b3461018f576102ad61076f366004610664565b6120bb565b3461018f576102ad6107873660046102b7565b6121c6565b3461018f576102ad61079f366004610559565b906123b4565b60025481101561018f5761043761026d9160026103e5565b3461018f576102b36104716107d33660046102b7565b6107a5565b906107e58160209361043d565b0190565b906108096108026107f8845190565b8084529260200190565b9260200190565b9060005b81811061081a5750505090565b90919261083461082d60019286516107d8565b9460200190565b92910161080d565b602080825261026d929101906107e9565b3461018f5761085d36600461047d565b6102b36108686123be565b6040519182918261083c565b61088461088060089390565b9190565b6000915b8383106108955750505050565b6108a86108026001928451815260200190565b92019190610888565b909594926101a1946108e96103ac926108e1610160966108d761018088019c6000890152565b6020870190610874565b610120850152565b610140830152565b3461018f576102b361090c6109073660046102b7565b612542565b9161091995939560405190565b958695866108b1565b3461018f576102b36106c66109383660046104ca565b9061259e565b3461018f576102ad61095136600461051d565b9061272d565b3461018f576102ad61096a366004610664565b61274f565b3461018f576102b36106c66109853660046104ca565b90612758565b1561099257565b60405162461bcd60e51b815260206004820152601760248201527f43616c6c6572206973206e6f7420746865206f776e65720000000000000000006044820152606490fd5b906101a1916109ec6109e7611fef565b61098b565b611071565b61026d61026d61026d9290565b67ffffffffffffffff81116101db5760208091020190565b90610a23610219836109fe565b918252565b369037565b906101a1610a43610a3d84610a16565b936109fe565b601f190160208401610a28565b61026d60806101e0565b610a62610a50565b60008082526020820181905260408201819052606082015290565b61026d610a5a565b60005b828110610a9457505050565b602090610a9f610a7d565b8184015201610a88565b906101a1610ab9610a3d84610a16565b601f190160208401610a85565b61026d60e06101e0565b60010190565b9061037b90610408565b9061037b906105a1565b90610af3825190565b811015610304576020809102010190565b634e487b7160e01b600052600060045260246000fd5b5190565b90600019905b9181191691161790565b90610b3c61026d610b439290565b8254610b1e565b9055565b634e487b7160e01b600052601160045260246000fd5b9190610b68565b9290565b91808302928184041490151715610b7b57565b610b47565b9160001960089290920291821b911b610b24565b9190610ba361026d610b439390565b908354610b80565b6101a191600091610b94565b818110610bc2575050565b80610bd06000600193610bab565b01610bb7565b919091828210610be557505050565b6101a19281019101610bb7565b90600160401b81116101db576101a191600890610bd6565b600891610c20610b6460019261026d8686610bf2565b92049160005b838110610c335750505050565b6001906020610c4361026d865190565b9401938184015501610c26565b906101a191610c0a565b90610b3c61026d610b43926109f1565b9060ff90610b24565b90610c8361026d610b4392151590565b8254610c6a565b9190610ba361026d610b43936109f1565b6101a191600091610c8a565b818110610cb2575050565b80610cc06000600193610c9b565b01610ca7565b919091828210610cd557505050565b6101a19291610ceb905b91600052602060002090565b9182019101610ca7565b90600160401b81116101db5781610d0d6101a1935490565b90828155610cc6565b61026d9051610408565b916001600160a01b0360089290920291821b911b610b24565b81519167ffffffffffffffff83116101db57610d70610d64600192610d5e8686610cf5565b60200190565b92600052602060002090565b92049160005b838110610d835750505050565b6001906020610d9461026d86610d16565b9401938184015501610d76565b906101a191610d39565b61026d906003610b5d565b600080825590600290610dcc8360018301610c9b565b0155565b90600003610de1576101a190610db6565b610b04565b818110610df1575050565b80610dff6000600393610dd0565b01610de6565b919091828210610e1457505050565b610e2c610cdf610e266101a195610dab565b93610dab565b9182019101610de6565b90600160401b81116101db5781610e4e6101a1935490565b90828155610e05565b906001600160a01b0390610b24565b90610e7661026d610b43926106f5565b8254610e57565b9060ff60a01b9060a01b610b24565b90610e9c61026d610b4392151590565b8254610e7d565b61026d90516105a1565b90610c8361026d610b43926105ab565b6101a191600290610f0c90606090610eef85610ee1610edb84610d16565b82610e66565b602083015115155b90610e8c565b610f06610efd604083015190565b60018701610c5a565b01610ea3565b9101610ead565b906101a191610ebd565b610f36610cdf610f2b845190565b93610d5e8585610e36565b6000915b838310610f475750505050565b6003602082610f5f610f596001955190565b86610f13565b01920192019190610f3a565b906101a191610f1d565b600d61100e60c06101a194610f94610f8e600083015190565b86610b2e565b610fab610fa2602083015190565b60018701610c50565b610fc2610fb9604083015190565b60098701610c5a565b610fd9610fd0606083015190565b600a8701610c5a565b610ff2610fe96080830151151590565b600b8701610c73565b61100961100060a083015190565b600c8701610da1565b015190565b9101610f6b565b9190610de1576101a191610f75565b90815491600160401b8310156101db57826110479160016101a1950181556102e1565b90611015565b91908203918211610b7b57565b9081526040810192916101a19160200152565b0152565b909160009261107f846109f1565b9161108983610a2d565b906110ed6002926110e66110a361109e865490565b610aa9565b916110c16110af610ac6565b976110ba8b8d8b0152565b6020890152565b6110cc886040890152565b6110d7886060890152565b891515608088015260a0870152565b60c0850152565b835b6110fa61026d845490565b81101561116c57806111608161111661043761116795886103e5565b61112a611121610a50565b918c8301610ad6565b8a1515602082015261113d896040830152565b61114a8b60608301610ae0565b60c08801519061115a8383610aea565b52610aea565b5060010190565b6110ef565b509450507fb1e570e4094a5f87a5572e3e718941fb3822dd7fdc7a5d6d6d0d905b6c5242719291506111a5906111a0600490565b611024565b6111c16111b160045490565b6111bb60016109f1565b9061104d565b6111d66111cd60405190565b9283928361105a565b0390a1565b906101a1916109d7565b906101a1916111f56109e7611fef565b6112d6565b61026d90610408565b61026d90546111fa565b9061121c610d646107f8845490565b9060005b81811061122d5750505090565b90919261124e61124760019261124287611203565b6107d8565b9460010190565b929101611220565b9061026d9161120d565b906101a161127a9261127160405190565b93848092611256565b03836101b9565b61026d90611260565b1561129157565b60405162461bcd60e51b815260206004820152601b60248201527f44656c656761746520616c7265616479207265676973746572656400000000006044820152606490fd5b906101a1916112fd6112f86112f46112ee6002611281565b84612777565b1590565b61128a565b61135f565b919061131361026d610b43936106f5565b908354610d20565b90815491600160401b8310156101db578261133e9160016101a1950181556103e5565b90611302565b9160206101a192949361106d6040820196600083019061043d565b7f21c628fd83b556927fdf61a558e4514d6e816764e0e9b2af0b3495c21e632fb4919061139281600261131b565b61131b565b6113a6826113a18360036106fe565b610c5a565b6111d66113b260405190565b92839283611344565b906101a1916111e5565b156113cc57565b60405162461bcd60e51b815260206004820152601a60248201527f44656c6567617465206973206e6f7420726567697374657265640000000000006044820152606490fd5b9060009161141f60006109f1565b600261142c61026d825490565b8210156114745761043782611440926103e5565b61145261144c33610408565b91610408565b1461145f5760010161141f565b506101a1925061146f60016113c5565b6114c7565b505061146f6101a1936113c5565b1561148957565b60405162461bcd60e51b815260206004820152601660248201527511195b1959d85d1948185b1c9958591e481d9bdd195960521b6044820152606490fd5b906101a1916114e16114dc6112f48333612758565b611482565b611576565b61026d9060a01c61031f565b61026d90546114e6565b1561150357565b60405162461bcd60e51b815260206004820152601a60248201527f5468652064656c656761746520616c726561647920766f7465640000000000006044820152606490fd5b60409061156f6101a194969593966115686060840198600085019061043d565b6020830152565b01906105b4565b907f2a0843c4c9b6f826101208fccb9fc7919aa2c226d9c2a29d4e09f16355780a60916115e28260026115a933856127db565b6115bb6115b5826114f2565b156114fc565b6115c6600182610e8c565b6115dc6115d360006109f1565b60018301610c5a565b01610ead565b6111d66115ee60405190565b9283923384611548565b906101a191611411565b61160e61088060089390565b6000915b83831061161f5750505050565b61164061163960019261163185610310565b815260200190565b9260010190565b92019190611612565b906107e58161010093611602565b906101a161127a9261166860405190565b93848092611649565b906101a16116c66002611682610a50565b9461169561168f82611203565b87610ad6565b6116aa6116a1826114f2565b15156020880152565b6116c06116b960018301610310565b6040880152565b01610325565b60608401610ae0565b61026d90611671565b906116e1825490565b6116ea81610a16565b926116fe6020850191600052602060002090565b6000915b83831061170f5750505050565b6003602060019261171f856116cf565b815201920192019190611702565b906101a16117be600d61173e610ac6565b9461174f61174b82610310565b8752565b61176561175e60018301611657565b6020880152565b6117746116b960098301610310565b61178a611783600a8301610310565b6060880152565b6117a2611799600b8301610325565b15156080880152565b6117b86117b1600c8301611260565b60a0880152565b016116d8565b60c0840152565b61026d9061172d565b6117e56117eb916117dd610a7d565b5060046102e1565b506117c5565b906000906117f960006109f1565b60c0840161180961026d82515190565b82101561184f576118268461181f848451610aea565b5101610d16565b61183261144c85610408565b1461184057506001016117f9565b91509150610b1a925051610aea565b60405162461bcd60e51b815260206004820152601760248201527f44656c656761746520766f7465206e6f7420666f756e640000000000000000006044820152606490fd5b61189f6109e7611fef565b6101a16118bd565b61040861026d61026d9290565b61026d906118a7565b6101a16118ca6000611203565b6118dd6118d760006118b4565b916106f5565b6118e6826106f5565b907f8be0079c531659141344cd1fd0a4f28419497f9722a3daafe3b4186f6b6457e061191160405190565b600090a36000610e66565b6101a1611894565b6101a1906119336109e7611fef565b611d41565b1561193f57565b60405162461bcd60e51b815260206004820152601760248201527f50726f706f73616c20646f6573206e6f742065786973740000000000000000006044820152606490fd5b1561198b57565b60405162461bcd60e51b815260206004820152601960248201527f50726f706f73616c20616c72656164792066696e6973686564000000000000006044820152606490fd5b156119d757565b60405162461bcd60e51b8152602060048201526016602482015275141c9bdc1bdcd85b08185b1c9958591e481d9bdd195960521b6044820152606490fd5b91908201809211610b7b57565b818114611a7357600891611a3f610b6460019261026d8686610bf2565b9204918154916000925b848410611a57575050505050565b6001611a61819290565b92019384549281850155019290611a49565b5050565b906101a191611a22565b818114611a735781549167ffffffffffffffff83116101db57611ab8610d64600192611aad8686610cf5565b600052602060002090565b9204918154916000925b848410611ad0575050505050565b60019081906001600160a01b031692019384549281850155019290611ac2565b906101a191611a81565b818103611b05575050565b6101a191600290610f0c908290611b3185610ee983611b2c611b2682611203565b84610e66565b6114f2565b6116c0610efd60018301610310565b906101a191611afa565b818114611a7357611b6a610cdf611b5f845490565b93611aad8585610e36565b6000915b838310611b7b5750505050565b60038082611b8b60019486611b40565b01920192019190611b6e565b906101a191611b4a565b818103611bac575050565b600d8083611bc8611bc260006101a19701610310565b85610b2e565b611bd86001820160018601611a77565b611bf0611be760098301610310565b60098601610c5a565b611c08611bff600a8301610310565b600a8601610c5a565b611c20611c17600b8301610325565b600b8601610c73565b611c30600c8201600c8601611af0565b019101611b97565b9190610de1576101a191611ba1565b634e487b7160e01b600052603160045260246000fd5b6101a1906008810190610bb7565b90600003610de1576101a190611c5d565b60006101a191610cf5565b90600003610de1576101a190611c7c565b60006101a191610e36565b90600003610de1576101a190611c98565b6000600d6101a192611cc883808301610bab565b611cd58360018301611c6b565b611ce28360098301610c9b565b611cef83600a8301610c9b565b82600b820155611d0283600c8301611c87565b01611ca3565b90600003610de1576101a190611cb4565b80548015611d3c576000190190611d39611d3383836102e1565b90611d08565b55565b611c47565b906004611d59611d5261026d835490565b8410611938565b611da1611d696117e585846102e1565b611d81611d7c6112f46080840151151590565b611984565b6040810151611d9361088060006109f1565b149081611e2d575b506119d0565b825b8154611db761026d6001926111bb846109f1565b821015611df65790610ad0611de0611dda611dd4611df1956109f1565b84611a15565b856102e1565b50611deb83866102e1565b90611c38565b611da3565b50507f61c0d93dc2b610877e420b107c8d12e9185e46e04a505da758cc7f7329ae545f91926104a4611e286111d69390565b611d19565b606001519050611e4061088060006109f1565b1438611d9b565b6101a190611924565b6101a190611e5f6109e7611fef565b611eb0565b15611e6b57565b60405162461bcd60e51b815260206004820152601760248201527f44656c6567617465206e6f7420726567697374657265640000000000000000006044820152606490fd5b6101a190611ecf611eca611ec46002611281565b83612777565b611e64565b611f00565b6101a191600091611302565b80548015611d3c576000190190611d39611efa83836103e5565b90611ed4565b611f0a60006109f1565b6002611f1761026d825490565b821015611fb057611f2b61043783836103e5565b611f3761144c85610408565b14611f455750600101611f0a565b91611f9b611f968461026d6111d69561133e611f8f610437611f896111b17f98561cbe7c9c0b90726130c8409b307d4c9698c9e7ee2797aea68659cad104949c5490565b866103e5565b91846103e5565b611ee0565b6104716000611fab8360036106fe565b610c9b565b50506111d67f98561cbe7c9c0b90726130c8409b307d4c9698c9e7ee2797aea68659cad1049491611f9b565b6101a190611e50565b61026d6000611203565b612001611ffc6000611203565b610408565b61200a33610408565b1490565b6101a19061201d6109e7611fef565b61206e565b1561202957565b60405162461bcd60e51b815260206004820152601a60248201527f436974697a656e20616c726561647920726567697374657265640000000000006044820152606490fd5b6101a19061208a6120856112f46112ee6001611281565b612022565b6111d67fb5598409719558ebd54a454803d5d44a0b2ae7d77be5ea208f6a3b9698a2cb58916104718161138d600190565b6101a19061200e565b6101a1906120d36109e7611fef565b61211c565b156120df57565b60405162461bcd60e51b815260206004820152601560248201527450726f706f73616c20686173206e6f20766f74657360581b6044820152606490fd5b6111d67fc2946e69de813a7cede502a3b315aa221abf9fcca5c7134b0ae6b2c3857cf63d916104a460016121586121548460046102e1565b5090565b612197600b82019161216f611d7c6112f485610325565b61217b60098201610310565b61218861088060006109f1565b119081156121a5575b506120d8565b6121a084612873565b610c73565b6121b29150600a01610310565b6121bf61088060006109f1565b1138612191565b6101a1906120c4565b156121d657565b60405162461bcd60e51b815260206004820152601960248201527f436974697a656e206973206e6f742072656769737465726564000000000000006044820152606490fd5b9060009161222960006109f1565b600161223661026d825490565b8210156122785761224a61043783836103e5565b61225661144c33610408565b146122645750600101612229565b6101a1945061227391506121cf565b612286565b50506122736101a1936121cf565b906101a19161229b611eca6112ee6002611281565b6122e4565b156122a757565b60405162461bcd60e51b815260206004820152601560248201527410da5d1a5e995b88185b1c9958591e481d9bdd1959605a1b6044820152606490fd5b906101a1916122fe6122f96112f4833361259e565b6122a0565b61232a565b6040906123236101a194969593966115686060840198600085019061043d565b019061043d565b907ff69dfa7dcf0ea3774ec16a69c67fab945b55abba3d54c0c5384b35eb485fbdc59161237f61235a83836127db565b6123796001612368816109f1565b92019161237483610310565b611a15565b90610c5a565b61239e612397600c6123928460046102e1565b500190565b339061131b565b6111d66123aa60405190565b9283923384612303565b906101a19161221b565b60026123d16123cc60025490565b610a2d565b906123da825190565b90600191826123e8816109f1565b905b6123f6575b5050505090565b8181101561250b57908161240f610437859487966103e5565b84600361242461241f84836106fe565b610310565b612436612430846109f1565b8661104d565b925b612470575b5050612468929161246361245d610ad0936124578a6109f1565b90611a15565b8a610aea565b610ad6565b9091926123ea565b90918961248360009995969798996109f1565b821015806124ea575b156124dd57906124c66124aa6124a5836124cf95610aea565b610d16565b6124638d6124c06124ba8a6109f1565b86611a15565b90610aea565b6111bb856109f1565b929695949392919087612438565b509196959493929661243d565b5061250461241f6124fe6124a58585610aea565b866106fe565b831061248c565b6123ef565b61021961026d916101f4565b906101a161253261252c84612510565b936101f4565b83610a28565b61026d600861251c565b6117e561256291612551600090565b5061255a612538565b5060006117dd565b9061256b825190565b9160208101519261257d604083015190565b92612596608061258e606086015190565b940151151590565b919493929190565b906117e56125ae916117dd600090565b906125b960006109f1565b60a083016125c961026d82515190565b8210156125ff576124a5826125de9251610aea565b6125ea61144c84610408565b146125f7576001016125b9565b505050600190565b50505050600090565b9060009161261660006109f1565b600161262361026d825490565b8210156126655761263761043783836103e5565b61264361144c33610408565b146126515750600101612616565b6101a1945061266091506121cf565b612673565b50506126606101a1936121cf565b906101a1916126886122f96112f4833361259e565b907f537b4589cf485698c16a1df191993a3b84135e85fa627536d8e9004c0cf1d2d7916115e2612397600c6126c16121548560046102e1565b6126cb60016105a1565b6126d4876105a1565b036126f7576107e56126e660016109f1565b612379600984019161237483610310565b61270160026105a1565b61270a876105a1565b036107e5576107e561271c60016109f1565b612379600a84019161237483610310565b906101a191612608565b6101a1906127466109e7611fef565b6101a190612ab2565b6101a190612737565b61277060209161026d9361276a600090565b506117ce565b0151151590565b61278160006109f1565b61278c61026d845190565b8110156127b9576127a3611ffc6124a58386610aea565b6127ac83610408565b146125f757600101612781565b505050600090565b8054821015610304576102fb600391600052602060002090565b6121546127e99160046102e1565b906000906127f760006109f1565b600d840161280661026d825490565b82101561184f576128228461281b84846127c1565b5001611203565b61282e61144c85610408565b1461283c57506001016127f7565b90915061026d935061215492506127c1565b634e487b7160e01b600052601260045260246000fd5b811561286e570490565b61284e565b6128816121548260046102e1565b60019061289961288f835490565b600c8301546111bb565b6000816128a8610880836109f1565b11612a13575b908392916128ba6123be565b91846128c5836109f1565b905b612996575b50506128d7906109f1565b925b6128e5575b5050505050565b6128f061026d825190565b8310156129915761295383606061291461290e6124a5899887610aea565b896117ce565b0161291e81610ea3565b61293061292a886105a1565b916105a1565b036129595750610ad0612942866109f1565b612379600987019161237483610310565b926128d9565b61296290610ea3565b61296f61292a60026105a1565b03610ad057610ad0612980866109f1565b612379600a87019161237483610310565b6128de565b6129a561026d85969794955190565b811015612a09576129b5846109f1565b82116129ca575b6001015b82959493926128c7565b90612a016129c0916129e86129e26124a5868a610aea565b8b6127db565b906129fc6129f5876109f1565b8093612ae8565b61104d565b9190506129bc565b94939291946128cc565b8380612a1e836109f1565b915b612a2c575b50506128ae565b90926002612a3b61026d825490565b851015612aa257612a8f612a9b926129fc612a5c61043789612a94966103e5565b612a86612a7684612a7161241f8560036106fe565b610b5d565b612a8060646109f1565b90612864565b9384918d6127db565b612ae8565b9360010190565b9080612a20565b50925080612a25565b1561018f57565b6101a190612ad6612ac6611ffc60006118b4565b612acf83610408565b1415612aab565b6118dd612ae36000611203565b6106f5565b9061237960016101a19301916123748361031056fea2646970667358221220803a6f583debc385288523b92c6302e5ef84a92ea58e612e9d4d39de7415083164736f6c634300081c0033",
  "linkReferences": {},
  "deployedLinkReferences": {}
}