{
  "_format": "hh-sol-artifact-1",
  "contractName": "Democracy",
  "sourceName": "contracts/Democracy.sol",
  "abi": [
    {
      "anonymous": false,
      "inputs": [
        {
          "indexed": false,
          "internalType": "address",
          "name": "citizen",
          "type": "address"
        },
        {
          "indexed": false,
          "internalType": "uint256",
          "name": "proposalId",
          "type": "uint256"
        },
        {
          "indexed": false,
          "internalType": "address",
          "name": "delegate",
          "type": "address"
        }
      ],
      "name": "CitizenDelegatedVote",
      "type": "event"
    },
    {
      "anonymous": false,
      "inputs": [
        {
          "indexed": false,
          "internalType": "address",
          "name": "citizen",
          "type": "address"
        }
      ],
      "name": "CitizenRegistered",
      "type": "event"
    },
    {
      "anonymous": false,
      "inputs": [
        {
          "indexed": false,
          "internalType": "address",
          "name": "citizen",
          "type": "address"
        },
        {
          "indexed": false,
          "internalType": "uint256",
          "name": "proposalId",
          "type": "uint256"
        },
        {
          "indexed": false,
          "internalType": "enum Democracy.Choice",
          "name": "choice",
          "type": "uint8"
        }
      ],
      "name": "CitizenVoted",
      "type": "event"
    },
    {
      "anonymous": false,
      "inputs": [
        {
          "indexed": false,
          "internalType": "address",
          "name": "delegate",
          "type": "address"
        },
        {
          "indexed": false,
          "internalType": "uint256",
          "name": "percentage",
          "type": "uint256"
        }
      ],
      "name": "DelegateRegistered",
      "type": "event"
    },
    {
      "anonymous": false,
      "inputs": [
        {
          "indexed": false,
          "internalType": "address",
          "name": "delegate",
          "type": "address"
        }
      ],
      "name": "DelegateUnregistered",
      "type": "event"
    },
    {
      "anonymous": false,
      "inputs": [
        {
          "indexed": false,
          "internalType": "address",
          "name": "delegate",
          "type": "address"
        },
        {
          "indexed": false,
          "internalType": "uint256",
          "name": "proposalId",
          "type": "uint256"
        },
        {
          "indexed": false,
          "internalType": "enum Democracy.Choice",
          "name": "choice",
          "type": "uint8"
        }
      ],
      "name": "DelegateVoted",
      "type": "event"
    },
    {
      "anonymous": false,
      "inputs": [
        {
          "indexed": true,
          "internalType": "address",
          "name": "previousOwner",
          "type": "address"
        },
        {
          "indexed": true,
          "internalType": "address",
          "name": "newOwner",
          "type": "address"
        }
      ],
      "name": "OwnershipTransferred",
      "type": "event"
    },
    {
      "anonymous": false,
      "inputs": [
        {
          "indexed": false,
          "internalType": "uint256",
          "name": "proposalId",
          "type": "uint256"
        },
        {
          "indexed": false,
          "internalType": "bytes32",
          "name": "title",
          "type": "bytes32"
        }
      ],
      "name": "ProposalCreated",
      "type": "event"
    },
    {
      "anonymous": false,
      "inputs": [
        {
          "indexed": false,
          "internalType": "uint256",
          "name": "proposalId",
          "type": "uint256"
        }
      ],
      "name": "ProposalDeleted",
      "type": "event"
    },
    {
      "anonymous": false,
      "inputs": [
        {
          "indexed": false,
          "internalType": "uint256",
          "name": "proposalId",
          "type": "uint256"
        }
      ],
      "name": "ProposalFinished",
      "type": "event"
    },
    {
      "inputs": [
        {
          "internalType": "address",
          "name": "_citizen",
          "type": "address"
        },
        {
          "internalType": "uint256",
          "name": "_proposalId",
          "type": "uint256"
        }
      ],
      "name": "citizenHasVoted",
      "outputs": [
        {
          "internalType": "bool",
          "name": "",
          "type": "bool"
        }
      ],
      "stateMutability": "view",
      "type": "function"
    },
    {
      "inputs": [
        {
          "internalType": "uint256",
          "name": "",
          "type": "uint256"
        }
      ],
      "name": "citizens",
      "outputs": [
        {
          "internalType": "address",
          "name": "",
          "type": "address"
        }
      ],
      "stateMutability": "view",
      "type": "function"
    },
    {
      "inputs": [],
      "name": "citizensCount",
      "outputs": [
        {
          "internalType": "uint256",
          "name": "",
          "type": "uint256"
        }
      ],
      "stateMutability": "view",
      "type": "function"
    },
    {
      "inputs": [
        {
          "internalType": "bytes32",
          "name": "_title",
          "type": "bytes32"
        },
        {
          "internalType": "bytes32[8]",
          "name": "_description",
          "type": "bytes32[8]"
        }
      ],
      "name": "createProposal",
      "outputs": [],
      "stateMutability": "nonpayable",
      "type": "function"
    },
    {
      "inputs": [
        {
          "internalType": "address",
          "name": "_delegate",
          "type": "address"
        },
        {
          "internalType": "uint256",
          "name": "_proposalId",
          "type": "uint256"
        }
      ],
      "name": "delegateHasVoted",
      "outputs": [
        {
          "internalType": "bool",
          "name": "",
          "type": "bool"
        }
      ],
      "stateMutability": "view",
      "type": "function"
    },
    {
      "inputs": [
        {
          "internalType": "uint256",
          "name": "_proposalId",
          "type": "uint256"
        },
        {
          "internalType": "address",
          "name": "_delegate",
          "type": "address"
        }
      ],
      "name": "delegateVote",
      "outputs": [],
      "stateMutability": "nonpayable",
      "type": "function"
    },
    {
      "inputs": [
        {
          "internalType": "uint256",
          "name": "",
          "type": "uint256"
        }
      ],
      "name": "delegates",
      "outputs": [
        {
          "internalType": "address",
          "name": "",
          "type": "address"
        }
      ],
      "stateMutability": "view",
      "type": "function"
    },
    {
      "inputs": [],
      "name": "delegatesCount",
      "outputs": [
        {
          "internalType": "uint256",
          "name": "",
          "type": "uint256"
        }
      ],
      "stateMutability": "view",
      "type": "function"
    },
    {
      "inputs": [
        {
          "internalType": "uint256",
          "name": "_proposalId",
          "type": "uint256"
        }
      ],
      "name": "deleteProposal",
      "outputs": [],
      "stateMutability": "nonpayable",
      "type": "function"
    },
    {
      "inputs": [
        {
          "internalType": "uint256",
          "name": "_proposalId",
          "type": "uint256"
        }
      ],
      "name": "finishVoting",
      "outputs": [],
      "stateMutability": "nonpayable",
      "type": "function"
    },
    {
      "inputs": [
        {
          "internalType": "uint256",
          "name": "_index",
          "type": "uint256"
        }
      ],
      "name": "getCitizen",
      "outputs": [
        {
          "internalType": "address",
          "name": "",
          "type": "address"
        }
      ],
      "stateMutability": "view",
      "type": "function"
    },
    {
      "inputs": [
        {
          "internalType": "uint256",
          "name": "_index",
          "type": "uint256"
        }
      ],
      "name": "getDelegate",
      "outputs": [
        {
          "internalType": "address",
          "name": "",
          "type": "address"
        },
        {
          "internalType": "uint256",
          "name": "",
          "type": "uint256"
        }
      ],
      "stateMutability": "view",
      "type": "function"
    },
    {
      "inputs": [
        {
          "internalType": "uint256",
          "name": "_proposalId",
          "type": "uint256"
        },
        {
          "internalType": "address",
          "name": "_delegate",
          "type": "address"
        }
      ],
      "name": "getDelegateVote",
      "outputs": [
        {
          "components": [
            {
              "internalType": "address",
              "name": "delegate",
              "type": "address"
            },
            {
              "internalType": "bool",
              "name": "voted",
              "type": "bool"
            },
            {
              "internalType": "uint256",
              "name": "weight",
              "type": "uint256"
            },
            {
              "internalType": "enum Democracy.Choice",
              "name": "choice",
              "type": "uint8"
            }
          ],
          "internalType": "struct Democracy.DelegateVote",
          "name": "",
          "type": "tuple"
        }
      ],
      "stateMutability": "view",
      "type": "function"
    },
    {
      "inputs": [
        {
          "internalType": "uint256",
          "name": "_proposalId",
          "type": "uint256"
        }
      ],
      "name": "getProposal",
      "outputs": [
        {
          "internalType": "bytes32",
          "name": "",
          "type": "bytes32"
        },
        {
          "internalType": "bytes32[8]",
          "name": "",
          "type": "bytes32[8]"
        },
        {
          "internalType": "uint256",
          "name": "",
          "type": "uint256"
        },
        {
          "internalType": "uint256",
          "name": "",
          "type": "uint256"
        },
        {
          "internalType": "bool",
          "name": "",
          "type": "bool"
        }
      ],
      "stateMutability": "view",
      "type": "function"
    },
    {
      "inputs": [],
      "name": "isOwner",
      "outputs": [
        {
          "internalType": "bool",
          "name": "",
          "type": "bool"
        }
      ],
      "stateMutability": "view",
      "type": "function"
    },
    {
      "inputs": [],
      "name": "owner",
      "outputs": [
        {
          "internalType": "address",
          "name": "",
          "type": "address"
        }
      ],
      "stateMutability": "view",
      "type": "function"
    },
    {
      "inputs": [
        {
          "internalType": "address",
          "name": "",
          "type": "address"
        }
      ],
      "name": "percentages",
      "outputs": [
        {
          "internalType": "uint256",
          "name": "",
          "type": "uint256"
        }
      ],
      "stateMutability": "view",
      "type": "function"
    },
    {
      "inputs": [
        {
          "internalType": "uint256",
          "name": "",
          "type": "uint256"
        }
      ],
      "name": "proposals",
      "outputs": [
        {
          "internalType": "bytes32",
          "name": "title",
          "type": "bytes32"
        },
        {
          "internalType": "uint256",
          "name": "yesCount",
          "type": "uint256"
        },
        {
          "internalType": "uint256",
          "name": "noCount",
          "type": "uint256"
        },
        {
          "internalType": "bool",
          "name": "done",
          "type": "bool"
        }
      ],
      "stateMutability": "view",
      "type": "function"
    },
    {
      "inputs": [],
      "name": "proposalsCount",
      "outputs": [
        {
          "internalType": "uint256",
          "name": "",
          "type": "uint256"
        }
      ],
      "stateMutability": "view",
      "type": "function"
    },
    {
      "inputs": [
        {
          "internalType": "address",
          "name": "_citizen",
          "type": "address"
        }
      ],
      "name": "registerCitizen",
      "outputs": [],
      "stateMutability": "nonpayable",
      "type": "function"
    },
    {
      "inputs": [
        {
          "internalType": "address",
          "name": "_delegate",
          "type": "address"
        },
        {
          "internalType": "uint256",
          "name": "_percentage",
          "type": "uint256"
        }
      ],
      "name": "registerDelegate",
      "outputs": [],
      "stateMutability": "nonpayable",
      "type": "function"
    },
    {
      "inputs": [],
      "name": "renounceOwnership",
      "outputs": [],
      "stateMutability": "nonpayable",
      "type": "function"
    },
    {
      "inputs": [],
      "name": "sortDelegates",
      "outputs": [
        {
          "internalType": "address[]",
          "name": "",
          "type": "address[]"
        }
      ],
      "stateMutability": "view",
      "type": "function"
    },
    {
      "inputs": [
        {
          "internalType": "address",
          "name": "newOwner",
          "type": "address"
        }
      ],
      "name": "transferOwnership",
      "outputs": [],
      "stateMutability": "nonpayable",
      "type": "function"
    },
    {
      "inputs": [
        {
          "internalType": "address",
          "name": "_delegate",
          "type": "address"
        }
      ],
      "name": "unregisterDelegate",
      "outputs": [],
      "stateMutability": "nonpayable",
      "type": "function"
    },
    {
      "inputs": [
        {
          "internalType": "uint256",
          "name": "_proposalId",
          "type": "uint256"
        },
        {
          "internalType": "enum Democracy.Choice",
          "name": "_choice",
          "type": "uint8"
        }
      ],
      "name": "voteAsCitizen",
      "outputs": [],
      "stateMutability": "nonpayable",
      "type": "function"
    },
    {
      "inputs": [
        {
          "internalType": "uint256",
          "name": "_proposalId",
          "type": "uint256"
        },
        {
          "internalType": "enum Democracy.Choice",
          "name": "_choice",
          "type": "uint8"
        }
      ],
      "name": "voteAsDelegate",
      "outputs": [],
      "stateMutability": "nonpayable",
      "type": "function"
    }
  ],
  "bytecode": "0x60806040523461002257610011610027565b604051612da76101228239612da790f35b600080fd5b61002f6100bf565b565b61004590610048906001600160a01b031682565b90565b6001600160a01b031690565b61004590610031565b61004590610054565b906100766100456100929261005d565b82546001600160a01b0319166001600160a01b03919091161790565b9055565b6100486100456100459290565b61004590610096565b61004590610048565b61004590546100ac565b6100ca336000610066565b6100d460006100a3565b6100f06100ea6100e460006100b5565b9261005d565b9161005d565b907f8be0079c531659141344cd1fd0a4f28419497f9722a3daafe3b4186f6b6457e061011b60405190565b600090a356fe6080604052600436101561001257600080fd5b60003560e01c8062849435146101c1578063013cf08b146101bc57806309a34f00146101b75780630a9f46ad146101b25780630dc5cca4146101ad57806321853455146101a8578063254c5fd0146101a35780633a11ff791461019e578063715018a6146101995780638259d553146101945780638376e5ae1461018f5780638914a8a01461018a5780638da5cb5b146101855780638f32d59b146101805780639d592c661461017b578063aa78ce2214610176578063abe7c08e14610171578063ac71fe181461016c578063b1548afc14610167578063b5af4a1814610162578063c7f758a81461015d578063cc3fbe2114610158578063dcc66cc214610153578063e8ad642c1461014e578063f2fde38b14610149578063fa1e5e31146101445763fc664ea9036101cf57610a4f565b610a33565b610a1b565b610a02565b6109d4565b610999565b610968565b6108c4565b610834565b610803565b6107eb565b6107d3565b6107b8565b610722565b610707565b6106ec565b6106d4565b6106a8565b610690565b610668565b61059c565b610549565b6104f4565b6104c8565b610496565b6103f4565b6102d4565b805b036101cf57565b600080fd5b905035906101e1826101c6565b565b634e487b7160e01b600052604160045260246000fd5b90601f01601f1916810190811067ffffffffffffffff82111761021b57604052565b6101e3565b906101e161022d60405190565b92836101f9565b67ffffffffffffffff811161021b5760200290565b9092919261025e61025982610234565b610220565b9360208592028301928184116101cf57915b83831061027d5750505050565b6020809161028b84866101d4565b815201920191610270565b9080601f830112156101cf5760086102ad92610249565b90565b9190610120838203126101cf576102ad9060206102cd82866101d4565b9401610296565b346101cf576102ed6102e73660046102b0565b906112b7565b60405180805b0390f35b906020828203126101cf576102ad916101d4565b634e487b7160e01b600052603260045260246000fd5b80548210156103445761033b600e91600052602060002090565b91020190600090565b61030b565b6102ad9081565b6102ad9054610349565b6102ad905b60ff1690565b6102ad905461035a565b60049061037a825490565b8110156101cf5761038a91610321565b509061039582610350565b916103a260098201610350565b916102ad600b6103b4600a8501610350565b9301610365565b9052565b6103ec6101e1946103e56060949897956103de608086019a6000870152565b6020850152565b6040830152565b019015159052565b346101cf576102f361040f61040a3660046102f7565b61036f565b9061041c94929460405190565b948594856103bf565b80548210156103445761033b600191600052602060002090565b6102ad916008021c5b6001600160a01b031690565b906102ad915461043f565b6001548110156101cf576104776102ad916001610425565b90610454565b6103bb90610448565b6020810192916101e1919061047d565b346101cf576102f36104b16104ac3660046102f7565b61045f565b60405191829182610486565b60009103126101cf57565b346101cf576104d83660046104bd565b6102f36104e460045490565b6040519182918290815260200190565b346101cf576105043660046104bd565b6102f36104e460025490565b6101c881610448565b905035906101e182610510565b91906040838203126101cf576102ad9060206105428286610519565b94016101d4565b346101cf576102ed61055c366004610526565b90611551565b600311156101cf57565b905035906101e182610562565b91906040838203126101cf576102ad90602061059582866101d4565b940161056c565b346101cf576102ed6105af366004610579565b9061178e565b91906040838203126101cf576102ad9060206105d182866101d4565b9401610519565b634e487b7160e01b600052602160045260246000fd5b600311156105f857565b6105d8565b906101e1826105ee565b6102ad906105fd565b6103bb90610607565b906060806101e1936106336000820151600086019061047d565b60208181015115159085015261064e60408201516040860152565b0151910190610610565b6080810192916101e19190610619565b346101cf576102f361068461067e3660046105b5565b90611964565b60405191829182610658565b346101cf576106a03660046104bd565b6102ed611ab2565b346101cf576102ed6106bb3660046102f7565b611fd0565b906020828203126101cf576102ad91610519565b346101cf576102ed6106e73660046106c0565b612165565b346101cf576102f36104b16107023660046102f7565b6121b3565b346101cf576107173660046104bd565b6102f36104b16121e0565b346101cf576107323660046104bd565b6102f361073d6121ea565b60405191829182901515815260200190565b6102ad90610448906001600160a01b031682565b6102ad9061074f565b6102ad90610763565b9061077f9061076c565b600052602052604060002090565b6102ad916008021c81565b906102ad915461078d565b60006107b36102ad926003610775565b610798565b346101cf576102f36104e46107ce3660046106c0565b6107a3565b346101cf576102ed6107e63660046106c0565b6122b6565b346101cf576102ed6107fe3660046102f7565b6123c1565b346101cf576102ed6108163660046105b5565b906125af565b6002548110156101cf576104776102ad916002610425565b346101cf576102f36104b161084a3660046102f7565b61081c565b9061085c8160209361047d565b0190565b9061088061087961086f845190565b8084529260200190565b9260200190565b9060005b8181106108915750505090565b9091926108ab6108a4600192865161084f565b9460200190565b929101610884565b60208082526102ad92910190610860565b346101cf576108d43660046104bd565b6102f36108df6125b9565b604051918291826108b3565b6108fb6108f760089390565b9190565b6000915b83831061090c5750505050565b61091f6108796001928451815260200190565b920191906108ff565b909594926101e1946109606103ec926109586101609661094e61018088019c6000890152565b60208701906108eb565b610120850152565b610140830152565b346101cf576102f361098361097e3660046102f7565b612732565b9161099095939560405190565b95869586610928565b346101cf576102f361073d6109af366004610526565b9061278e565b9160206101e19294936109d06040820196600083019061047d565b0152565b346101cf576109ec6109e73660046102f7565b612844565b906102f36109f960405190565b928392836109b5565b346101cf576102ed610a15366004610579565b906129a8565b346101cf576102ed610a2e3660046106c0565b6129ca565b346101cf57610a433660046104bd565b6102f36104e460015490565b346101cf576102f361073d610a65366004610526565b906129d3565b15610a7257565b60405162461bcd60e51b815260206004820152601760248201527f43616c6c6572206973206e6f7420746865206f776e65720000000000000000006044820152606490fd5b906101e191610acc610ac76121ea565b610a6b565b61114d565b6102ad6102ad6102ad9290565b67ffffffffffffffff811161021b5760208091020190565b90610b0361025983610ade565b918252565b369037565b906101e1610b23610b1d84610af6565b93610ade565b601f190160208401610b08565b6102ad6080610220565b610b42610b30565b60008082526020820181905260408201819052606082015290565b6102ad610b3a565b60005b828110610b7457505050565b602090610b7f610b5d565b8184015201610b68565b906101e1610b99610b1d84610af6565b601f190160208401610b65565b6102ad60e0610220565b60010190565b906103bb90610448565b906103bb906105fd565b90610bd3825190565b811015610344576020809102010190565b634e487b7160e01b600052600060045260246000fd5b5190565b90600019905b9181191691161790565b90610c1c6102ad610c239290565b8254610bfe565b9055565b634e487b7160e01b600052601160045260246000fd5b9190610c48565b9290565b91808302928184041490151715610c5b57565b610c27565b9160001960089290920291821b911b610c04565b9190610c836102ad610c239390565b908354610c60565b6101e191600091610c74565b818110610ca2575050565b80610cb06000600193610c8b565b01610c97565b919091828210610cc557505050565b6101e19281019101610c97565b90600160401b811161021b576101e191600890610cb6565b600891610d00610c446001926102ad8686610cd2565b92049160005b838110610d135750505050565b6001906020610d236102ad865190565b9401938184015501610d06565b906101e191610cea565b90610c1c6102ad610c2392610ad1565b9060ff90610c04565b90610d636102ad610c2392151590565b8254610d4a565b9190610c836102ad610c2393610ad1565b6101e191600091610d6a565b818110610d92575050565b80610da06000600193610d7b565b01610d87565b919091828210610db557505050565b6101e19291610dcb905b91600052602060002090565b9182019101610d87565b90600160401b811161021b5781610ded6101e1935490565b90828155610da6565b6102ad9051610448565b916001600160a01b0360089290920291821b911b610c04565b81519167ffffffffffffffff831161021b57610e50610e44600192610e3e8686610dd5565b60200190565b92600052602060002090565b92049160005b838110610e635750505050565b6001906020610e746102ad86610df6565b9401938184015501610e56565b906101e191610e19565b6102ad906003610c3d565b600080825590600290610eac8360018301610d7b565b0155565b90600003610ec1576101e190610e96565b610be4565b818110610ed1575050565b80610edf6000600393610eb0565b01610ec6565b919091828210610ef457505050565b610f0c610dbf610f066101e195610e8b565b93610e8b565b9182019101610ec6565b90600160401b811161021b5781610f2e6101e1935490565b90828155610ee5565b906001600160a01b0390610c04565b90610f566102ad610c239261076c565b8254610f37565b9060ff60a01b9060a01b610c04565b90610f7c6102ad610c2392151590565b8254610f5d565b6102ad90516105fd565b90610d636102ad610c2392610607565b6101e191600290610fec90606090610fcf85610fc1610fbb84610df6565b82610f46565b602083015115155b90610f6c565b610fe6610fdd604083015190565b60018701610d3a565b01610f83565b9101610f8d565b906101e191610f9d565b611016610dbf61100b845190565b93610e3e8585610f16565b6000915b8383106110275750505050565b600360208261103f6110396001955190565b86610ff3565b0192019201919061101a565b906101e191610ffd565b600d6110ee60c06101e19461107461106e600083015190565b86610c0e565b61108b611082602083015190565b60018701610d30565b6110a2611099604083015190565b60098701610d3a565b6110b96110b0606083015190565b600a8701610d3a565b6110d26110c96080830151151590565b600b8701610d53565b6110e96110e060a083015190565b600c8701610e81565b015190565b910161104b565b9190610ec1576101e191611055565b90815491600160401b83101561021b57826111279160016101e195018155610321565b906110f5565b91908203918211610c5b57565b9081526040810192916101e19160200152565b909160009261115b84610ad1565b9161116583610b0d565b906111c96002926111c261117f61117a865490565b610b89565b9161119d61118b610ba6565b976111968b8d8b0152565b6020890152565b6111a8886040890152565b6111b3886060890152565b891515608088015260a0870152565b60c0850152565b835b6111d66102ad845490565b811015611248578061123c816111f26104776112439588610425565b6112066111fd610b30565b918c8301610bb6565b8a15156020820152611219896040830152565b6112268b60608301610bc0565b60c0880151906112368383610bca565b52610bca565b5060010190565b6111cb565b509450507fb1e570e4094a5f87a5572e3e718941fb3822dd7fdc7a5d6d6d0d905b6c5242719291506112819061127c600490565b611104565b61129d61128d60045490565b6112976001610ad1565b9061112d565b6112b26112a960405190565b9283928361113a565b0390a1565b906101e191610ab7565b906101e1916112d1610ac76121ea565b6113b2565b6102ad90610448565b6102ad90546112d6565b906112f8610e4461086f845490565b9060005b8181106113095750505090565b90919261132a61132360019261131e876112df565b61084f565b9460010190565b9291016112fc565b906102ad916112e9565b906101e16113569261134d60405190565b93848092611332565b03836101f9565b6102ad9061133c565b1561136d57565b60405162461bcd60e51b815260206004820152601b60248201527f44656c656761746520616c7265616479207265676973746572656400000000006044820152606490fd5b906101e1916113d96113d46113d06113ca600261135d565b846129f2565b1590565b611366565b611479565b91908201809211610c5b57565b156113f257565b60405162461bcd60e51b815260206004820152601c60248201527f546f74616c2070657263656e74616765206578636565647320313030000000006044820152606490fd5b91906114486102ad610c239361076c565b908354610e00565b90815491600160401b83101561021b57826114739160016101e195018155610425565b90611437565b9190916114866000610ad1565b91825b60026114966102ad825490565b8510156114d8576114d2916114c56114c06114cb936114ba6104778a600393610425565b90610775565b610350565b906113de565b9360010190565b92611489565b507f21c628fd83b556927fdf61a558e4514d6e816764e0e9b2af0b3495c21e632fb4935061150d8561152192969493966113de565b61151a6108f76064610ad1565b11156113eb565b611531816002611450565b611450565b61154582611540836003610775565b610d3a565b6112b26109f960405190565b906101e1916112c1565b1561156257565b60405162461bcd60e51b815260206004820152601a60248201527f44656c6567617465206973206e6f7420726567697374657265640000000000006044820152606490fd5b906000916115b56000610ad1565b60026115c26102ad825490565b82101561160a57610477826115d692610425565b6115e86115e233610448565b91610448565b146115f5576001016115b5565b506101e19250611605600161155b565b61165d565b50506116056101e19361155b565b1561161f57565b60405162461bcd60e51b815260206004820152601660248201527511195b1959d85d1948185b1c9958591e481d9bdd195960521b6044820152606490fd5b906101e1916116776116726113d083336129d3565b611618565b61170c565b6102ad9060a01c61035f565b6102ad905461167c565b1561169957565b60405162461bcd60e51b815260206004820152601a60248201527f5468652064656c656761746520616c726561647920766f7465640000000000006044820152606490fd5b6040906117056101e194969593966116fe6060840198600085019061047d565b6020830152565b0190610610565b907f2a0843c4c9b6f826101208fccb9fc7919aa2c226d9c2a29d4e09f16355780a609161177882600261173f3385612a56565b61175161174b82611688565b15611692565b61175c600182610f6c565b6117726117696000610ad1565b60018301610d3a565b01610f8d565b6112b261178460405190565b92839233846116de565b906101e1916115a7565b6117a46108f760089390565b6000915b8383106117b55750505050565b6117d66117cf6001926117c785610350565b815260200190565b9260010190565b920191906117a8565b9061085c8161010093611798565b906101e1611356926117fe60405190565b938480926117df565b906101e161185c6002611818610b30565b9461182b611825826112df565b87610bb6565b61184061183782611688565b15156020880152565b61185661184f60018301610350565b6040880152565b01610365565b60608401610bc0565b6102ad90611807565b90611877825490565b61188081610af6565b926118946020850191600052602060002090565b6000915b8383106118a55750505050565b600360206001926118b585611865565b815201920192019190611898565b906101e1611954600d6118d4610ba6565b946118e56118e182610350565b8752565b6118fb6118f4600183016117ed565b6020880152565b61190a61184f60098301610350565b611920611919600a8301610350565b6060880152565b61193861192f600b8301610365565b15156080880152565b61194e611947600c830161133c565b60a0880152565b0161186e565b60c0840152565b6102ad906118c3565b61197b61198191611973610b5d565b506004610321565b5061195b565b9060009061198f6000610ad1565b60c0840161199f6102ad82515190565b8210156119e5576119bc846119b5848451610bca565b5101610df6565b6119c86115e285610448565b146119d6575060010161198f565b91509150610bfa925051610bca565b60405162461bcd60e51b815260206004820152601760248201527f44656c656761746520766f7465206e6f7420666f756e640000000000000000006044820152606490fd5b611a35610ac76121ea565b6101e1611a53565b6104486102ad6102ad9290565b6102ad90611a3d565b6101e1611a6060006112df565b611a73611a6d6000611a4a565b9161076c565b611a7c8261076c565b907f8be0079c531659141344cd1fd0a4f28419497f9722a3daafe3b4186f6b6457e0611aa760405190565b600090a36000610f46565b6101e1611a2a565b6101e190611ac9610ac76121ea565b611eca565b15611ad557565b60405162461bcd60e51b815260206004820152601760248201527f50726f706f73616c20646f6573206e6f742065786973740000000000000000006044820152606490fd5b15611b2157565b60405162461bcd60e51b815260206004820152601960248201527f50726f706f73616c20616c72656164792066696e6973686564000000000000006044820152606490fd5b15611b6d57565b60405162461bcd60e51b8152602060048201526016602482015275141c9bdc1bdcd85b08185b1c9958591e481d9bdd195960521b6044820152606490fd5b818114611bfc57600891611bc8610c446001926102ad8686610cd2565b9204918154916000925b848410611be0575050505050565b6001611bea819290565b92019384549281850155019290611bd2565b5050565b906101e191611bab565b818114611bfc5781549167ffffffffffffffff831161021b57611c41610e44600192611c368686610dd5565b600052602060002090565b9204918154916000925b848410611c59575050505050565b60019081906001600160a01b031692019384549281850155019290611c4b565b906101e191611c0a565b818103611c8e575050565b6101e191600290610fec908290611cba85610fc983611cb5611caf826112df565b84610f46565b611688565b611856610fdd60018301610350565b906101e191611c83565b818114611bfc57611cf3610dbf611ce8845490565b93611c368585610f16565b6000915b838310611d045750505050565b60038082611d1460019486611cc9565b01920192019190611cf7565b906101e191611cd3565b818103611d35575050565b600d8083611d51611d4b60006101e19701610350565b85610c0e565b611d616001820160018601611c00565b611d79611d7060098301610350565b60098601610d3a565b611d91611d88600a8301610350565b600a8601610d3a565b611da9611da0600b8301610365565b600b8601610d53565b611db9600c8201600c8601611c79565b019101611d20565b9190610ec1576101e191611d2a565b634e487b7160e01b600052603160045260246000fd5b6101e1906008810190610c97565b90600003610ec1576101e190611de6565b60006101e191610dd5565b90600003610ec1576101e190611e05565b60006101e191610f16565b90600003610ec1576101e190611e21565b6000600d6101e192611e5183808301610c8b565b611e5e8360018301611df4565b611e6b8360098301610d7b565b611e7883600a8301610d7b565b82600b820155611e8b83600c8301611e10565b01611e2c565b90600003610ec1576101e190611e3d565b80548015611ec5576000190190611ec2611ebc8383610321565b90611e91565b55565b611dd0565b906004611ee2611edb6102ad835490565b8410611ace565b611f2a611ef261197b8584610321565b611f0a611f056113d06080840151151590565b611b1a565b6040810151611f1c6108f76000610ad1565b149081611fb6575b50611b66565b825b8154611f406102ad60019261129784610ad1565b821015611f7f5790610bb0611f69611f63611f5d611f7a95610ad1565b846113de565b85610321565b50611f748386610321565b90611dc1565b611f2c565b50507f61c0d93dc2b610877e420b107c8d12e9185e46e04a505da758cc7f7329ae545f91926104e4611fb16112b29390565b611ea2565b606001519050611fc96108f76000610ad1565b1438611f24565b6101e190611aba565b6101e190611fe8610ac76121ea565b612039565b15611ff457565b60405162461bcd60e51b815260206004820152601760248201527f44656c6567617465206e6f7420726567697374657265640000000000000000006044820152606490fd5b6101e19061205861205361204d600261135d565b836129f2565b611fed565b612089565b6101e191600091611437565b80548015611ec5576000190190611ec26120838383610425565b9061205d565b6120936000610ad1565b60026120a06102ad825490565b821015612139576120b46104778383610425565b6120c06115e285610448565b146120ce5750600101612093565b9161212461211f846102ad6112b29561147361211861047761211261128d7f98561cbe7c9c0b90726130c8409b307d4c9698c9e7ee2797aea68659cad104949c5490565b86610425565b9184610425565b612069565b6104b16000612134836003610775565b610d7b565b50506112b27f98561cbe7c9c0b90726130c8409b307d4c9698c9e7ee2797aea68659cad1049491612124565b6101e190611fd9565b1561217557565b60405162461bcd60e51b815260206004820152601660248201527510da5d1a5e995b88191bd95cc81b9bdd08195e1a5cdd60521b6044820152606490fd5b6104776102ad916121c2600090565b506121d96121d26102ad60015490565b821061216e565b6001610425565b6102ad60006112df565b6121fc6121f760006112df565b610448565b61220533610448565b1490565b6101e190612218610ac76121ea565b612269565b1561222457565b60405162461bcd60e51b815260206004820152601a60248201527f436974697a656e20616c726561647920726567697374657265640000000000006044820152606490fd5b6101e1906122856122806113d06113ca600161135d565b61221d565b6112b27fb5598409719558ebd54a454803d5d44a0b2ae7d77be5ea208f6a3b9698a2cb58916104b18161152c600190565b6101e190612209565b6101e1906122ce610ac76121ea565b612317565b156122da57565b60405162461bcd60e51b815260206004820152601560248201527450726f706f73616c20686173206e6f20766f74657360581b6044820152606490fd5b6112b27fc2946e69de813a7cede502a3b315aa221abf9fcca5c7134b0ae6b2c3857cf63d916104e4600161235361234f846004610321565b5090565b612392600b82019161236a611f056113d085610365565b61237660098201610350565b6123836108f76000610ad1565b119081156123a0575b506122d3565b61239b84612aee565b610d53565b6123ad9150600a01610350565b6123ba6108f76000610ad1565b113861238c565b6101e1906122bf565b156123d157565b60405162461bcd60e51b815260206004820152601960248201527f436974697a656e206973206e6f742072656769737465726564000000000000006044820152606490fd5b906000916124246000610ad1565b60016124316102ad825490565b821015612473576124456104778383610425565b6124516115e233610448565b1461245f5750600101612424565b6101e1945061246e91506123ca565b612481565b505061246e6101e1936123ca565b906101e1916124966120536113ca600261135d565b6124df565b156124a257565b60405162461bcd60e51b815260206004820152601560248201527410da5d1a5e995b88185b1c9958591e481d9bdd1959605a1b6044820152606490fd5b906101e1916124f96124f46113d0833361278e565b61249b565b612525565b60409061251e6101e194969593966116fe6060840198600085019061047d565b019061047d565b907ff69dfa7dcf0ea3774ec16a69c67fab945b55abba3d54c0c5384b35eb485fbdc59161257a6125558383612a56565b612574600161256381610ad1565b92019161256f83610350565b6113de565b90610d3a565b612599612592600c61258d846004610321565b500190565b3390611450565b6112b26125a560405190565b92839233846124fe565b906101e191612416565b60026125cc6125c760025490565b610b0d565b906125d5825190565b90600191826125e381610ad1565b905b6125f1575b5050505090565b818110156126fb57908161260a61047785948796610425565b84600361261a6114c08483610775565b61262c61262684610ad1565b8661112d565b925b612660575b5050612658929161265361264d610bb0936114c58a610ad1565b8a610bca565b610bb6565b9091926125e5565b9091896126736000999596979899610ad1565b821015806126da575b156126cd57906126b661269a612695836126bf95610bca565b610df6565b6126538d6126b06126aa8a610ad1565b866113de565b90610bca565b61129785610ad1565b92969594939291908761262e565b5091969594939296612633565b506126f46114c06126ee6126958585610bca565b86610775565b831061267c565b6125ea565b6102596102ad91610234565b906101e161272261271c84612700565b93610234565b83610b08565b6102ad600861270c565b61197b61275291612741600090565b5061274a612728565b506000611973565b9061275b825190565b9160208101519261276d604083015190565b92612786608061277e606086015190565b940151151590565b919493929190565b9061197b61279e91611973600090565b906127a96000610ad1565b60a083016127b96102ad82515190565b8210156127ef57612695826127ce9251610bca565b6127da6115e284610448565b146127e7576001016127a9565b505050600190565b50505050600090565b156127ff57565b60405162461bcd60e51b815260206004820152601760248201527f44656c656761746520646f6573206e6f742065786973740000000000000000006044820152606490fd5b906102ad6114c061287c6104776002956128696128626102ad895490565b82106127f8565b6128766104778289610425565b96610425565b6003610775565b906000916128916000610ad1565b600161289e6102ad825490565b8210156128e0576128b26104778383610425565b6128be6115e233610448565b146128cc5750600101612891565b6101e194506128db91506123ca565b6128ee565b50506128db6101e1936123ca565b906101e1916129036124f46113d0833361278e565b907f537b4589cf485698c16a1df191993a3b84135e85fa627536d8e9004c0cf1d2d791611778612592600c61293c61234f856004610321565b61294660016105fd565b61294f876105fd565b036129725761085c6129616001610ad1565b612574600984019161256f83610350565b61297c60026105fd565b612985876105fd565b0361085c5761085c6129976001610ad1565b612574600a84019161256f83610350565b906101e191612883565b6101e1906129c1610ac76121ea565b6101e190612d26565b6101e1906129b2565b6129eb6020916102ad936129e5600090565b50611964565b0151151590565b6129fc6000610ad1565b612a076102ad845190565b811015612a3457612a1e6121f76126958386610bca565b612a2783610448565b146127e7576001016129fc565b505050600090565b80548210156103445761033b600391600052602060002090565b61234f612a64916004610321565b90600090612a726000610ad1565b600d8401612a816102ad825490565b8210156119e557612a9d84612a968484612a3c565b50016112df565b612aa96115e285610448565b14612ab75750600101612a72565b9091506102ad935061234f9250612a3c565b634e487b7160e01b600052601260045260246000fd5b8115612ae9570490565b612ac9565b612afc61234f826004610321565b600190612b14612b0a835490565b600c830154611297565b600081612b236108f783610ad1565b11612c8e575b90839291612b356125b9565b9184612b4083610ad1565b905b612c11575b5050612b5290610ad1565b925b612b60575b5050505050565b612b6b6102ad825190565b831015612c0c57612bce836060612b8f612b89612695899887610bca565b89611964565b01612b9981610f83565b612bab612ba5886105fd565b916105fd565b03612bd45750610bb0612bbd86610ad1565b612574600987019161256f83610350565b92612b54565b612bdd90610f83565b612bea612ba560026105fd565b03610bb057610bb0612bfb86610ad1565b612574600a87019161256f83610350565b612b59565b612c206102ad85969794955190565b811015612c8457612c3084610ad1565b8211612c45575b6001015b8295949392612b42565b90612c7c612c3b91612c63612c5d612695868a610bca565b8b612a56565b90612c77612c7087610ad1565b8093612d5c565b61112d565b919050612c37565b9493929194612b47565b8380612c9983610ad1565b915b612ca7575b5050612b29565b90926002612cb66102ad825490565b851015612d1657612d0a612d0f92612c77612cd7610477896114cb96610425565b612d01612cf184612cec6114c0856003610775565b610c3d565b612cfb6064610ad1565b90612adf565b9384918d612a56565b612d5c565b9080612c9b565b50925080612ca0565b156101cf57565b6101e190612d4a612d3a6121f76000611a4a565b612d4383610448565b1415612d1f565b611a73612d5760006112df565b61076c565b9061257460016101e193019161256f8361035056fea2646970667358221220bc8a534b34e2e7bbedd0221159ca7d976b18d2f3d09970aee3db2dff6d135c8f64736f6c634300081c0033",
  "linkReferences": {},
  "deployedLinkReferences": {}
}