{
  "_format": "hh-sol-artifact-1",
  "contractName": "Democracy",
  "sourceName": "contracts/Democracy.sol",
  "abi": [
    {
      "anonymous": false,
      "inputs": [
        {
          "indexed": false,
          "internalType": "address",
          "name": "citizen",
          "type": "address"
        },
        {
          "indexed": false,
          "internalType": "uint256",
          "name": "proposalId",
          "type": "uint256"
        },
        {
          "indexed": false,
          "internalType": "address",
          "name": "delegate",
          "type": "address"
        }
      ],
      "name": "CitizenDelegatedVote",
      "type": "event"
    },
    {
      "anonymous": false,
      "inputs": [
        {
          "indexed": false,
          "internalType": "address",
          "name": "citizen",
          "type": "address"
        }
      ],
      "name": "CitizenRegistered",
      "type": "event"
    },
    {
      "anonymous": false,
      "inputs": [
        {
          "indexed": false,
          "internalType": "address",
          "name": "citizen",
          "type": "address"
        },
        {
          "indexed": false,
          "internalType": "uint256",
          "name": "proposalId",
          "type": "uint256"
        },
        {
          "indexed": false,
          "internalType": "enum Democracy.Choice",
          "name": "choice",
          "type": "uint8"
        }
      ],
      "name": "CitizenVoted",
      "type": "event"
    },
    {
      "anonymous": false,
      "inputs": [
        {
          "indexed": false,
          "internalType": "address",
          "name": "delegate",
          "type": "address"
        },
        {
          "indexed": false,
          "internalType": "uint256",
          "name": "percentage",
          "type": "uint256"
        }
      ],
      "name": "DelegateRegistered",
      "type": "event"
    },
    {
      "anonymous": false,
      "inputs": [
        {
          "indexed": false,
          "internalType": "address",
          "name": "delegate",
          "type": "address"
        }
      ],
      "name": "DelegateUnregistered",
      "type": "event"
    },
    {
      "anonymous": false,
      "inputs": [
        {
          "indexed": false,
          "internalType": "address",
          "name": "delegate",
          "type": "address"
        },
        {
          "indexed": false,
          "internalType": "uint256",
          "name": "proposalId",
          "type": "uint256"
        },
        {
          "indexed": false,
          "internalType": "enum Democracy.Choice",
          "name": "choice",
          "type": "uint8"
        }
      ],
      "name": "DelegateVoted",
      "type": "event"
    },
    {
      "anonymous": false,
      "inputs": [
        {
          "indexed": true,
          "internalType": "address",
          "name": "previousOwner",
          "type": "address"
        },
        {
          "indexed": true,
          "internalType": "address",
          "name": "newOwner",
          "type": "address"
        }
      ],
      "name": "OwnershipTransferred",
      "type": "event"
    },
    {
      "anonymous": false,
      "inputs": [
        {
          "indexed": false,
          "internalType": "uint256",
          "name": "proposalId",
          "type": "uint256"
        },
        {
          "indexed": false,
          "internalType": "bytes32",
          "name": "title",
          "type": "bytes32"
        }
      ],
      "name": "ProposalCreated",
      "type": "event"
    },
    {
      "inputs": [
        {
          "internalType": "address",
          "name": "_citizen",
          "type": "address"
        },
        {
          "internalType": "uint256",
          "name": "_proposalId",
          "type": "uint256"
        }
      ],
      "name": "citizenHasVoted",
      "outputs": [
        {
          "internalType": "bool",
          "name": "",
          "type": "bool"
        }
      ],
      "stateMutability": "view",
      "type": "function"
    },
    {
      "inputs": [
        {
          "internalType": "uint256",
          "name": "",
          "type": "uint256"
        }
      ],
      "name": "citizens",
      "outputs": [
        {
          "internalType": "address",
          "name": "",
          "type": "address"
        }
      ],
      "stateMutability": "view",
      "type": "function"
    },
    {
      "inputs": [
        {
          "internalType": "bytes32",
          "name": "_title",
          "type": "bytes32"
        },
        {
          "internalType": "bytes32[8]",
          "name": "_description",
          "type": "bytes32[8]"
        }
      ],
      "name": "createProposal",
      "outputs": [],
      "stateMutability": "nonpayable",
      "type": "function"
    },
    {
      "inputs": [
        {
          "internalType": "address",
          "name": "_delegate",
          "type": "address"
        },
        {
          "internalType": "uint256",
          "name": "_proposalId",
          "type": "uint256"
        }
      ],
      "name": "delegateHasVoted",
      "outputs": [
        {
          "internalType": "bool",
          "name": "",
          "type": "bool"
        }
      ],
      "stateMutability": "view",
      "type": "function"
    },
    {
      "inputs": [
        {
          "internalType": "uint256",
          "name": "_proposalId",
          "type": "uint256"
        },
        {
          "internalType": "address",
          "name": "_delegate",
          "type": "address"
        }
      ],
      "name": "delegateVote",
      "outputs": [],
      "stateMutability": "nonpayable",
      "type": "function"
    },
    {
      "inputs": [
        {
          "internalType": "uint256",
          "name": "",
          "type": "uint256"
        }
      ],
      "name": "delegates",
      "outputs": [
        {
          "internalType": "address",
          "name": "",
          "type": "address"
        }
      ],
      "stateMutability": "view",
      "type": "function"
    },
    {
      "inputs": [
        {
          "internalType": "uint256",
          "name": "_proposalId",
          "type": "uint256"
        },
        {
          "internalType": "address",
          "name": "_delegate",
          "type": "address"
        }
      ],
      "name": "getDelegateVote",
      "outputs": [
        {
          "components": [
            {
              "internalType": "address",
              "name": "delegate",
              "type": "address"
            },
            {
              "internalType": "bool",
              "name": "voted",
              "type": "bool"
            },
            {
              "internalType": "uint256",
              "name": "weight",
              "type": "uint256"
            },
            {
              "internalType": "enum Democracy.Choice",
              "name": "choice",
              "type": "uint8"
            }
          ],
          "internalType": "struct Democracy.DelegateVote",
          "name": "",
          "type": "tuple"
        }
      ],
      "stateMutability": "view",
      "type": "function"
    },
    {
      "inputs": [],
      "name": "isOwner",
      "outputs": [
        {
          "internalType": "bool",
          "name": "",
          "type": "bool"
        }
      ],
      "stateMutability": "view",
      "type": "function"
    },
    {
      "inputs": [],
      "name": "owner",
      "outputs": [
        {
          "internalType": "address",
          "name": "",
          "type": "address"
        }
      ],
      "stateMutability": "view",
      "type": "function"
    },
    {
      "inputs": [
        {
          "internalType": "address",
          "name": "",
          "type": "address"
        }
      ],
      "name": "percentages",
      "outputs": [
        {
          "internalType": "uint256",
          "name": "",
          "type": "uint256"
        }
      ],
      "stateMutability": "view",
      "type": "function"
    },
    {
      "inputs": [
        {
          "internalType": "uint256",
          "name": "",
          "type": "uint256"
        }
      ],
      "name": "proposals",
      "outputs": [
        {
          "internalType": "bytes32",
          "name": "title",
          "type": "bytes32"
        },
        {
          "internalType": "uint256",
          "name": "yesCount",
          "type": "uint256"
        },
        {
          "internalType": "uint256",
          "name": "noCount",
          "type": "uint256"
        },
        {
          "internalType": "bool",
          "name": "done",
          "type": "bool"
        }
      ],
      "stateMutability": "view",
      "type": "function"
    },
    {
      "inputs": [
        {
          "internalType": "address",
          "name": "_citizen",
          "type": "address"
        }
      ],
      "name": "registerCitizen",
      "outputs": [],
      "stateMutability": "nonpayable",
      "type": "function"
    },
    {
      "inputs": [
        {
          "internalType": "address",
          "name": "_delegate",
          "type": "address"
        },
        {
          "internalType": "uint256",
          "name": "_percentage",
          "type": "uint256"
        }
      ],
      "name": "registerDelegate",
      "outputs": [],
      "stateMutability": "nonpayable",
      "type": "function"
    },
    {
      "inputs": [],
      "name": "renounceOwnership",
      "outputs": [],
      "stateMutability": "nonpayable",
      "type": "function"
    },
    {
      "inputs": [],
      "name": "sortDelegates",
      "outputs": [
        {
          "internalType": "address[]",
          "name": "",
          "type": "address[]"
        }
      ],
      "stateMutability": "view",
      "type": "function"
    },
    {
      "inputs": [
        {
          "internalType": "address",
          "name": "newOwner",
          "type": "address"
        }
      ],
      "name": "transferOwnership",
      "outputs": [],
      "stateMutability": "nonpayable",
      "type": "function"
    },
    {
      "inputs": [
        {
          "internalType": "address",
          "name": "_delegate",
          "type": "address"
        }
      ],
      "name": "unregisterDelegate",
      "outputs": [],
      "stateMutability": "nonpayable",
      "type": "function"
    },
    {
      "inputs": [
        {
          "internalType": "uint256",
          "name": "_proposalId",
          "type": "uint256"
        },
        {
          "internalType": "enum Democracy.Choice",
          "name": "_choice",
          "type": "uint8"
        }
      ],
      "name": "voteAsCitizen",
      "outputs": [],
      "stateMutability": "nonpayable",
      "type": "function"
    },
    {
      "inputs": [
        {
          "internalType": "uint256",
          "name": "_proposalId",
          "type": "uint256"
        },
        {
          "internalType": "enum Democracy.Choice",
          "name": "_choice",
          "type": "uint8"
        }
      ],
      "name": "voteAsDelegate",
      "outputs": [],
      "stateMutability": "nonpayable",
      "type": "function"
    }
  ],
  "bytecode": "0x60806040523461002257610011610027565b6040516120fc61012282396120fc90f35b600080fd5b61002f6100bf565b565b61004590610048906001600160a01b031682565b90565b6001600160a01b031690565b61004590610031565b61004590610054565b906100766100456100929261005d565b82546001600160a01b0319166001600160a01b03919091161790565b9055565b6100486100456100459290565b61004590610096565b61004590610048565b61004590546100ac565b6100ca336000610066565b6100d460006100a3565b6100f06100ea6100e460006100b5565b9261005d565b9161005d565b907f8be0079c531659141344cd1fd0a4f28419497f9722a3daafe3b4186f6b6457e061011b60405190565b600090a356fe6080604052600436101561001257600080fd5b60003560e01c806284943514610141578063013cf08b1461013c57806309a34f00146101375780632185345514610132578063254c5fd01461012d5780633a11ff7914610128578063715018a6146101235780638376e5ae1461011e5780638da5cb5b146101195780638f32d59b146101145780639d592c661461010f578063aa78ce221461010a578063ac71fe1814610105578063b1548afc14610100578063b5af4a18146100fb578063cc3fbe21146100f6578063e8ad642c146100f1578063f2fde38b146100ec5763fc664ea90361014f57610835565b61081d565b610804565b6107e8565b6107c1565b610731565b610700565b6106e8565b6106bd565b610627565b61060c565b6105f4565b6105c8565b610595565b6104c9565b610476565b610416565b610374565b610254565b805b0361014f57565b600080fd5b9050359061016182610146565b565b634e487b7160e01b600052604160045260246000fd5b90601f01601f1916810190811067ffffffffffffffff82111761019b57604052565b610163565b906101616101ad60405190565b9283610179565b67ffffffffffffffff811161019b5760200290565b909291926101de6101d9826101b4565b6101a0565b93602085920283019281841161014f57915b8383106101fd5750505050565b6020809161020b8486610154565b8152019201916101f0565b9080601f8301121561014f57600861022d926101c9565b90565b91906101208382031261014f5761022d90602061024d8286610154565b9401610216565b3461014f5761026d610267366004610230565b906110a6565b60405180805b0390f35b9060208282031261014f5761022d91610154565b634e487b7160e01b600052603260045260246000fd5b80548210156102c4576102bb600e91600052602060002090565b91020190600090565b61028b565b61022d9081565b61022d90546102c9565b61022d905b60ff1690565b61022d90546102da565b6004906102fa825490565b81101561014f5761030a916102a1565b5090610315826102d0565b91610322600982016102d0565b9161022d600b610334600a85016102d0565b93016102e5565b9052565b61036c6101619461036560609498979561035e608086019a6000870152565b6020850152565b6040830152565b019015159052565b3461014f5761027361038f61038a366004610277565b6102ef565b9061039c94929460405190565b9485948561033f565b80548210156102c4576102bb600191600052602060002090565b61022d916008021c5b6001600160a01b031690565b9061022d91546103bf565b60015481101561014f576103f761022d9160016103a5565b906103d4565b61033b906103c8565b60208101929161016191906103fd565b3461014f5761027361043161042c366004610277565b6103df565b60405191829182610406565b610148816103c8565b905035906101618261043d565b919060408382031261014f5761022d90602061046f8286610446565b9401610154565b3461014f5761026d610489366004610453565b90611286565b6003111561014f57565b905035906101618261048f565b919060408382031261014f5761022d9060206104c28286610154565b9401610499565b3461014f5761026d6104dc3660046104a6565b906114c3565b919060408382031261014f5761022d9060206104fe8286610154565b9401610446565b634e487b7160e01b600052602160045260246000fd5b6003111561052557565b610505565b906101618261051b565b61022d9061052a565b61033b90610534565b9060608061016193610560600082015160008601906103fd565b60208181015115159085015261057b60408201516040860152565b015191019061053d565b6080810192916101619190610546565b3461014f576102736105b16105ab3660046104e2565b90611699565b60405191829182610585565b600091031261014f57565b3461014f576105d83660046105bd565b61026d6117e7565b9060208282031261014f5761022d91610446565b3461014f5761026d6106073660046105e0565b611999565b3461014f5761061c3660046105bd565b6102736104316119a2565b3461014f576106373660046105bd565b6102736106426119ac565b60405191829182901515815260200190565b61022d906103c8906001600160a01b031682565b61022d90610654565b61022d90610668565b9061068490610671565b600052602052604060002090565b61022d916008021c81565b9061022d9154610692565b60006106b861022d92600361067a565b61069d565b3461014f576102736106d86106d33660046105e0565b6106a8565b6040519182918290815260200190565b3461014f5761026d6106fb3660046105e0565b611a78565b3461014f5761026d6107133660046104e2565b90611c73565b60025481101561014f576103f761022d9160026103a5565b3461014f57610273610431610747366004610277565b610719565b90610759816020936103fd565b0190565b9061077d61077661076c845190565b8084529260200190565b9260200190565b9060005b81811061078e5750505090565b9091926107a86107a1600192865161074c565b9460200190565b929101610781565b602080825261022d9291019061075d565b3461014f576107d13660046105bd565b6102736107dc611c7d565b604051918291826107b0565b3461014f576102736106426107fe366004610453565b90611dd5565b3461014f5761026d6108173660046104a6565b90611f68565b3461014f5761026d6108303660046105e0565b611f8a565b3461014f5761027361064261084b366004610453565b90611f93565b1561085857565b60405162461bcd60e51b815260206004820152601760248201527f43616c6c6572206973206e6f7420746865206f776e65720000000000000000006044820152606490fd5b90610161916108b26108ad6119ac565b610851565b610f3c565b61022d61022d61022d9290565b67ffffffffffffffff811161019b5760208091020190565b906108e96101d9836108c4565b918252565b369037565b90610161610909610903846108dc565b936108c4565b601f1901602084016108ee565b61022d60806101a0565b610928610916565b60008082526020820181905260408201819052606082015290565b61022d610920565b60005b82811061095a57505050565b602090610965610943565b818401520161094e565b9061016161097f610903846108dc565b601f19016020840161094b565b61022d60e06101a0565b9061033b906103c8565b9061033b9061052a565b906109b3825190565b8110156102c4576020809102010190565b634e487b7160e01b600052600060045260246000fd5b5190565b90600019905b9181191691161790565b906109fc61022d610a039290565b82546109de565b9055565b634e487b7160e01b600052601160045260246000fd5b9190610a28565b9290565b91808302928184041490151715610a3b57565b610a07565b9160001960089290920291821b911b6109e4565b9190610a6361022d610a039390565b908354610a40565b61016191600091610a54565b818110610a82575050565b80610a906000600193610a6b565b01610a77565b919091828210610aa557505050565b610161929190610ab4565b9190565b9182019101610a77565b90600160401b811161019b5761016191600890610a96565b600891610aec610a2460019261022d8686610abe565b92049160005b838110610aff5750505050565b6001906020610b0f61022d865190565b9401938184015501610af2565b9061016191610ad6565b906109fc61022d610a03926108b7565b9060ff906109e4565b90610b4f61022d610a0392151590565b8254610b36565b9190610a6361022d610a03936108b7565b61016191600091610b56565b818110610b7e575050565b80610b8c6000600193610b67565b01610b73565b919091828210610ba157505050565b6101619291610bb7905b91600052602060002090565b9182019101610b73565b90600160401b811161019b5781610bd9610161935490565b90828155610b92565b61022d90516103c8565b916001600160a01b0360089290920291821b911b6109e4565b81519167ffffffffffffffff831161019b57610c3c610c30600192610c2a8686610bc1565b60200190565b92600052602060002090565b92049160005b838110610c4f5750505050565b6001906020610c6061022d86610be2565b9401938184015501610c42565b9061016191610c05565b61022d906003610a1d565b600080825590600290610c988360018301610b67565b0155565b90600003610cad5761016190610c82565b6109c4565b818110610cbd575050565b80610ccb6000600393610c9c565b01610cb2565b919091828210610ce057505050565b610cf8610bab610cf261016195610c77565b93610c77565b9182019101610cb2565b90600160401b811161019b5781610d1a610161935490565b90828155610cd1565b906001600160a01b03906109e4565b90610d4261022d610a0392610671565b8254610d23565b9060ff60a01b9060a01b6109e4565b90610d6861022d610a0392151590565b8254610d49565b61022d905161052a565b90610b4f61022d610a0392610534565b61016191600290610dd790606090610dba85610dad610da784610be2565b82610d32565b6020830151151590610d58565b610dd1610dc8604083015190565b60018701610b26565b01610d6f565b9101610d79565b9061016191610d89565b610e01610bab610df6845190565b93610c2a8585610d02565b6000915b838310610e125750505050565b6003602082610e2a610e246001955190565b86610dde565b01920192019190610e05565b9061016191610de8565b600d610ed960c061016194610e5f610e59600083015190565b866109ee565b610e76610e6d602083015190565b60018701610b1c565b610e8d610e84604083015190565b60098701610b26565b610ea4610e9b606083015190565b600a8701610b26565b610ebd610eb46080830151151590565b600b8701610b3f565b610ed4610ecb60a083015190565b600c8701610c6d565b015190565b9101610e36565b9190610cad5761016191610e40565b90815491600160401b83101561019b5782610f12916001610161950181556102a1565b90610ee0565b91908203918211610a3b57565b9081526040810192916101619160200152565b0152565b9091600092610f4a846108b7565b91610f54836108f3565b90610fb8600292610fb1610f6e610f69865490565b61096f565b91610f8c610f7a61098c565b97610f858b8d8b0152565b6020890152565b610f97886040890152565b610fa2886060890152565b891515608088015260a0870152565b60c0850152565b835b610fc561022d845490565b811015611037578061102b81610fe16103f761103295886103a5565b610ff5610fec610916565b918c8301610996565b8a15156020820152611008896040830152565b6110158b606083016109a0565b60c08801519061102583836109aa565b526109aa565b5060010190565b610fba565b509450507fb1e570e4094a5f87a5572e3e718941fb3822dd7fdc7a5d6d6d0d905b6c5242719291506110709061106b600490565b610eef565b61108c61107c60045490565b61108660016108b7565b90610f18565b6110a161109860405190565b92839283610f25565b0390a1565b906101619161089d565b90610161916110c06108ad6119ac565b6111a1565b61022d906103c8565b61022d90546110c5565b906110e7610c3061076c845490565b9060005b8181106110f85750505090565b90919261111961111260019261110d876110ce565b61074c565b9460010190565b9291016110eb565b9061022d916110d8565b906101616111459261113c60405190565b93848092611121565b0383610179565b61022d9061112b565b1561115c57565b60405162461bcd60e51b815260206004820152601b60248201527f44656c656761746520616c7265616479207265676973746572656400000000006044820152606490fd5b90610161916111c86111c36111bf6111b9600261114c565b84611fb2565b1590565b611155565b61122a565b91906111de61022d610a0393610671565b908354610bec565b90815491600160401b83101561019b5782611209916001610161950181556103a5565b906111cd565b916020610161929493610f38604082019660008301906103fd565b7f21c628fd83b556927fdf61a558e4514d6e816764e0e9b2af0b3495c21e632fb4919061125d8160026111e6565b6111e6565b6112718261126c83600361067a565b610b26565b6110a161127d60405190565b9283928361120f565b90610161916110b0565b1561129757565b60405162461bcd60e51b815260206004820152601a60248201527f44656c6567617465206973206e6f7420726567697374657265640000000000006044820152606490fd5b906000916112ea60006108b7565b60026112f761022d825490565b82101561133f576103f78261130b926103a5565b61131d611317336103c8565b916103c8565b1461132a576001016112ea565b50610161925061133a6001611290565b611392565b505061133a61016193611290565b1561135457565b60405162461bcd60e51b815260206004820152601660248201527511195b1959d85d1948185b1c9958591e481d9bdd195960521b6044820152606490fd5b90610161916113ac6113a76111bf8333611f93565b61134d565b611441565b61022d9060a01c6102df565b61022d90546113b1565b156113ce57565b60405162461bcd60e51b815260206004820152601a60248201527f5468652064656c656761746520616c726561647920766f7465640000000000006044820152606490fd5b60409061143a6101619496959396611433606084019860008501906103fd565b6020830152565b019061053d565b907f2a0843c4c9b6f826101208fccb9fc7919aa2c226d9c2a29d4e09f16355780a60916114ad8260026114743385612016565b611486611480826113bd565b156113c7565b611491600182610d58565b6114a761149e60006108b7565b60018301610b26565b01610d79565b6110a16114b960405190565b9283923384611413565b90610161916112dc565b6114d9610ab060089390565b6000915b8383106114ea5750505050565b61150b6115046001926114fc856102d0565b815260200190565b9260010190565b920191906114dd565b9061075981610100936114cd565b906101616111459261153360405190565b93848092611514565b90610161611591600261154d610916565b9461156061155a826110ce565b87610996565b61157561156c826113bd565b15156020880152565b61158b611584600183016102d0565b6040880152565b016102e5565b606084016109a0565b61022d9061153c565b906115ac825490565b6115b5816108dc565b926115c96020850191600052602060002090565b6000915b8383106115da5750505050565b600360206001926115ea8561159a565b8152019201920191906115cd565b90610161611689600d61160961098c565b9461161a611616826102d0565b8752565b61163061162960018301611522565b6020880152565b61163f611584600983016102d0565b61165561164e600a83016102d0565b6060880152565b61166d611664600b83016102e5565b15156080880152565b61168361167c600c830161112b565b60a0880152565b016115a3565b60c0840152565b61022d906115f8565b6116b06116b6916116a8610943565b5060046102a1565b50611690565b906000906116c460006108b7565b60c084016116d461022d82515190565b82101561171a576116f1846116ea8484516109aa565b5101610be2565b6116fd611317856103c8565b1461170b57506001016116c4565b915091506109da9250516109aa565b60405162461bcd60e51b815260206004820152601760248201527f44656c656761746520766f7465206e6f7420666f756e640000000000000000006044820152606490fd5b61176a6108ad6119ac565b610161611788565b6103c861022d61022d9290565b61022d90611772565b61016161179560006110ce565b6117a86117a2600061177f565b91610671565b6117b182610671565b907f8be0079c531659141344cd1fd0a4f28419497f9722a3daafe3b4186f6b6457e06117dc60405190565b600090a36000610d32565b61016161175f565b610161906117fe6108ad6119ac565b61184f565b1561180a57565b60405162461bcd60e51b815260206004820152601760248201527f44656c6567617465206e6f7420726567697374657265640000000000000000006044820152606490fd5b6101619061186e611869611863600261114c565b83611fb2565b611803565b6118bd565b634e487b7160e01b600052603160045260246000fd5b610161916000916111cd565b805480156118b85760001901906118b56118af83836103a5565b90611889565b55565b611873565b6118c760006108b7565b60026118d461022d825490565b82101561196d576118e86103f783836103a5565b6118f4611317856103c8565b1461190257506001016118c7565b916119586119538461022d6110a19561120961194c6103f761194661107c7f98561cbe7c9c0b90726130c8409b307d4c9698c9e7ee2797aea68659cad104949c5490565b866103a5565b91846103a5565b611895565b610431600061196883600361067a565b610b67565b50506110a17f98561cbe7c9c0b90726130c8409b307d4c9698c9e7ee2797aea68659cad1049491611958565b610161906117ef565b61022d60006110ce565b6119be6119b960006110ce565b6103c8565b6119c7336103c8565b1490565b610161906119da6108ad6119ac565b611a2b565b156119e657565b60405162461bcd60e51b815260206004820152601a60248201527f436974697a656e20616c726561647920726567697374657265640000000000006044820152606490fd5b61016190611a47611a426111bf6111b9600161114c565b6119df565b6110a17fb5598409719558ebd54a454803d5d44a0b2ae7d77be5ea208f6a3b9698a2cb589161043181611258600190565b610161906119cb565b15611a8857565b60405162461bcd60e51b815260206004820152601960248201527f436974697a656e206973206e6f742072656769737465726564000000000000006044820152606490fd5b90600091611adb60006108b7565b6001611ae861022d825490565b821015611b2a57611afc6103f783836103a5565b611b08611317336103c8565b14611b165750600101611adb565b6101619450611b259150611a81565b611b38565b5050611b2561016193611a81565b9061016191611b4d6118696111b9600261114c565b611b96565b15611b5957565b60405162461bcd60e51b815260206004820152601560248201527410da5d1a5e995b88185b1c9958591e481d9bdd1959605a1b6044820152606490fd5b9061016191611bb0611bab6111bf8333611dd5565b611b52565b611be9565b91908201809211610a3b57565b604090611be26101619496959396611433606084019860008501906103fd565b01906103fd565b907ff69dfa7dcf0ea3774ec16a69c67fab945b55abba3d54c0c5384b35eb485fbdc591611c3e611c198383612016565b611c386001611c27816108b7565b920191611c33836102d0565b611bb5565b90610b26565b611c5d611c56600c611c518460046102a1565b500190565b33906111e6565b6110a1611c6960405190565b9283923384611bc2565b9061016191611acd565b6002611c90611c8b60025490565b6108f3565b90611c99825190565b9060019182611ca7816108b7565b905b611cb5575b5050505090565b81811015611dd0579081611cce6103f7859487966103a5565b846003611ce3611cde848361067a565b6102d0565b611cf5611cef846108b7565b86610f18565b925b611d35575b5050611d2d9291611d22611d1c611d2793611d168a6108b7565b90611bb5565b8a6109aa565b610996565b60010190565b909192611ca9565b909189611d4860009995969798996108b7565b82101580611daf575b15611da25790611d8b611d6f611d6a83611d94956109aa565b610be2565b611d228d611d85611d7f8a6108b7565b86611bb5565b906109aa565b611086856108b7565b929695949392919087611cf7565b5091969594939296611cfc565b50611dc9611cde611dc3611d6a85856109aa565b8661067a565b8310611d51565b611cae565b906116b0611de5916116a8600090565b90611df060006108b7565b60a08301611e0061022d82515190565b821015611e3657611d6a82611e1592516109aa565b611e21611317846103c8565b14611e2e57600101611df0565b505050600190565b50505050600090565b90600091611e4d60006108b7565b6001611e5a61022d825490565b821015611e9c57611e6e6103f783836103a5565b611e7a611317336103c8565b14611e885750600101611e4d565b6101619450611e979150611a81565b611eaa565b5050611e9761016193611a81565b9061016191611ebf611bab6111bf8333611dd5565b907f537b4589cf485698c16a1df191993a3b84135e85fa627536d8e9004c0cf1d2d7916114ad611c56600c611efc611ef88560046102a1565b5090565b611f06600161052a565b611f0f8761052a565b03611f3257610759611f2160016108b7565b611c386009840191611c33836102d0565b611f3c600261052a565b611f458761052a565b0361075957610759611f5760016108b7565b611c38600a840191611c33836102d0565b9061016191611e3f565b61016190611f816108ad6119ac565b61016190612090565b61016190611f72565b611fab60209161022d93611fa5600090565b50611699565b0151151590565b611fbc60006108b7565b611fc761022d845190565b811015611ff457611fde6119b9611d6a83866109aa565b611fe7836103c8565b14611e2e57600101611fbc565b505050600090565b80548210156102c4576102bb600391600052602060002090565b611ef86120249160046102a1565b9060009061203260006108b7565b600d840161204161022d825490565b82101561171a5761205d846120568484611ffc565b50016110ce565b612069611317856103c8565b146120775750600101612032565b90915061022d9350611ef89250611ffc565b1561014f57565b610161906120b46120a46119b9600061177f565b6120ad836103c8565b1415612089565b6117a86120c160006110ce565b61067156fea264697066735822122099f186062d5cc2793527d2fd92fdb6bbb4cd09e9df80ef525dc91fbf4579088064736f6c634300081c0033",
  "linkReferences": {},
  "deployedLinkReferences": {}
}